{
  "contractName": "Deployer",
  "abi": [
    {
      "inputs": [
        {
          "name": "_factory",
          "type": "address"
        }
      ],
      "payable": false,
      "stateMutability": "nonpayable",
      "type": "constructor"
    },
    {
      "constant": false,
      "inputs": [
        {
          "name": "_party",
          "type": "address"
        },
        {
          "name": "user_contract",
          "type": "address"
        },
        {
          "name": "_start_date",
          "type": "uint256"
        }
      ],
      "name": "newContract",
      "outputs": [
        {
          "name": "",
          "type": "address"
        }
      ],
      "payable": false,
      "stateMutability": "nonpayable",
      "type": "function"
    },
    {
      "constant": false,
      "inputs": [
        {
          "name": "_factory",
          "type": "address"
        },
        {
          "name": "_owner",
          "type": "address"
        }
      ],
      "name": "setVars",
      "outputs": [],
      "payable": false,
      "stateMutability": "nonpayable",
      "type": "function"
    }
  ],
  "bytecode": "0x6060604052341561000f57600080fd5b6040516020806126d28339810160405280805190602001909190505080600160006101000a81548173ffffffffffffffffffffffffffffffffffffffff021916908373ffffffffffffffffffffffffffffffffffffffff160217905550336000806101000a81548173ffffffffffffffffffffffffffffffffffffffff021916908373ffffffffffffffffffffffffffffffffffffffff16021790555050612616806100bc6000396000f30060606040526004361061004c576000357c0100000000000000000000000000000000000000000000000000000000900463ffffffff168063548dd51e14610051578063cea9f621146100f2575b600080fd5b341561005c57600080fd5b6100b0600480803573ffffffffffffffffffffffffffffffffffffffff1690602001909190803573ffffffffffffffffffffffffffffffffffffffff1690602001909190803590602001909190505061014a565b604051808273ffffffffffffffffffffffffffffffffffffffff1673ffffffffffffffffffffffffffffffffffffffff16815260200191505060405180910390f35b34156100fd57600080fd5b610148600480803573ffffffffffffffffffffffffffffffffffffffff1690602001909190803573ffffffffffffffffffffffffffffffffffffffff1690602001909190505061029d565b005b600080600160009054906101000a900473ffffffffffffffffffffffffffffffffffffffff1673ffffffffffffffffffffffffffffffffffffffff163373ffffffffffffffffffffffffffffffffffffffff161415156101a957600080fd5b600160009054906101000a900473ffffffffffffffffffffffffffffffffffffffff168585856101d761037d565b808573ffffffffffffffffffffffffffffffffffffffff1673ffffffffffffffffffffffffffffffffffffffff1681526020018473ffffffffffffffffffffffffffffffffffffffff1673ffffffffffffffffffffffffffffffffffffffff1681526020018373ffffffffffffffffffffffffffffffffffffffff1673ffffffffffffffffffffffffffffffffffffffff168152602001828152602001945050505050604051809103906000f080151561029057600080fd5b9050809150509392505050565b6000809054906101000a900473ffffffffffffffffffffffffffffffffffffffff1673ffffffffffffffffffffffffffffffffffffffff163373ffffffffffffffffffffffffffffffffffffffff161415156102f857600080fd5b81600160006101000a81548173ffffffffffffffffffffffffffffffffffffffff021916908373ffffffffffffffffffffffffffffffffffffffff160217905550806000806101000a81548173ffffffffffffffffffffffffffffffffffffffff021916908373ffffffffffffffffffffffffffffffffffffffff1602179055505050565b60405161225d8061038e8339019056006060604052341561000f57600080fd5b60405160808061225d8339810160405280805190602001909190805190602001909190805190602001909190805190602001909190505082600460006101000a81548173ffffffffffffffffffffffffffffffffffffffff021916908373ffffffffffffffffffffffffffffffffffffffff16021790555083600260006101000a81548173ffffffffffffffffffffffffffffffffffffffff021916908373ffffffffffffffffffffffffffffffffffffffff16021790555081601460006101000a81548173ffffffffffffffffffffffffffffffffffffffff021916908373ffffffffffffffffffffffffffffffffffffffff160217905550806007819055506000600660146101000a81548160ff0219169083600281111561012f57fe5b021790555050505050612116806101476000396000f300606060405260043610610078576000357c0100000000000000000000000000000000000000000000000000000000900463ffffffff16806354f6c0db1461007d5780635b04cbb5146100a657806370f9c021146100dd57806379eba0b614610121578063ba92d38214610265578063dec5472a146102ba575b600080fd5b341561008857600080fd5b6100906102fc565b6040518082815260200191505060405180910390f35b34156100b157600080fd5b6100b9610302565b604051808260028111156100c957fe5b60ff16815260200191505060405180910390f35b34156100e857600080fd5b6101076004808035906020019091908035906020019091905050610315565b604051808215151515815260200191505060405180910390f35b341561012c57600080fd5b610134610c98565b604051808b73ffffffffffffffffffffffffffffffffffffffff1673ffffffffffffffffffffffffffffffffffffffff1681526020018a81526020018973ffffffffffffffffffffffffffffffffffffffff1673ffffffffffffffffffffffffffffffffffffffff1681526020018873ffffffffffffffffffffffffffffffffffffffff1673ffffffffffffffffffffffffffffffffffffffff1681526020018773ffffffffffffffffffffffffffffffffffffffff1673ffffffffffffffffffffffffffffffffffffffff1681526020018673ffffffffffffffffffffffffffffffffffffffff1673ffffffffffffffffffffffffffffffffffffffff1681526020018581526020018481526020018381526020018281526020019a505050505050505050505060405180910390f35b341561027057600080fd5b610278610d84565b604051808273ffffffffffffffffffffffffffffffffffffffff1673ffffffffffffffffffffffffffffffffffffffff16815260200191505060405180910390f35b34156102c557600080fd5b6102fa600480803590602001909190803573ffffffffffffffffffffffffffffffffffffffff16906020019091905050610daa565b005b60125481565b600660149054906101000a900460ff1681565b6000806000806000806000806000806001600660149054906101000a900460ff16600281111561034157fe5b81600281111561034d57fe5b14151561035957600080fd5b600854421015151561036a57600080fd5b6103726111eb565b99508915610c8557610382611771565b600f60009054906101000a900473ffffffffffffffffffffffffffffffffffffffff16601360006101000a81548173ffffffffffffffffffffffffffffffffffffffff021916908373ffffffffffffffffffffffffffffffffffffffff160217905550601360009054906101000a900473ffffffffffffffffffffffffffffffffffffffff1673ffffffffffffffffffffffffffffffffffffffff16638811a0ae306000604051602001526040518263ffffffff167c0100000000000000000000000000000000000000000000000000000000028152600401808273ffffffffffffffffffffffffffffffffffffffff1673ffffffffffffffffffffffffffffffffffffffff168152602001915050602060405180830381600087803b15156104aa57600080fd5b6102c65a03f115156104bb57600080fd5b5050506040518051905098508b89106104d4578b6104d6565b885b97506001880396505b8c871015156106d657601360009054906101000a900473ffffffffffffffffffffffffffffffffffffffff1673ffffffffffffffffffffffffffffffffffffffff1663b85ed17d88306000604051602001526040518363ffffffff167c0100000000000000000000000000000000000000000000000000000000028152600401808381526020018273ffffffffffffffffffffffffffffffffffffffff1673ffffffffffffffffffffffffffffffffffffffff16815260200192505050602060405180830381600087803b15156105b557600080fd5b6102c65a03f115156105c657600080fd5b505050604051805190509550601360009054906101000a900473ffffffffffffffffffffffffffffffffffffffff1673ffffffffffffffffffffffffffffffffffffffff1663637dda3f88306000604051602001526040518363ffffffff167c0100000000000000000000000000000000000000000000000000000000028152600401808381526020018273ffffffffffffffffffffffffffffffffffffffff1673ffffffffffffffffffffffffffffffffffffffff16815260200192505050602060405180830381600087803b151561069f57600080fd5b6102c65a03f115156106b057600080fd5b5050506040518051905094506106c8868660016118cb565b8680600190039750506104df565b601060009054906101000a900473ffffffffffffffffffffffffffffffffffffffff16601360006101000a81548173ffffffffffffffffffffffffffffffffffffffff021916908373ffffffffffffffffffffffffffffffffffffffff160217905550601360009054906101000a900473ffffffffffffffffffffffffffffffffffffffff1673ffffffffffffffffffffffffffffffffffffffff16638811a0ae306000604051602001526040518263ffffffff167c0100000000000000000000000000000000000000000000000000000000028152600401808273ffffffffffffffffffffffffffffffffffffffff1673ffffffffffffffffffffffffffffffffffffffff168152602001915050602060405180830381600087803b15156107fe57600080fd5b6102c65a03f1151561080f57600080fd5b5050506040518051905098508b8910610828578b61082a565b885b97506001880393505b8c84101515610a2a57601360009054906101000a900473ffffffffffffffffffffffffffffffffffffffff1673ffffffffffffffffffffffffffffffffffffffff1663b85ed17d85306000604051602001526040518363ffffffff167c0100000000000000000000000000000000000000000000000000000000028152600401808381526020018273ffffffffffffffffffffffffffffffffffffffff1673ffffffffffffffffffffffffffffffffffffffff16815260200192505050602060405180830381600087803b151561090957600080fd5b6102c65a03f1151561091a57600080fd5b505050604051805190509250601360009054906101000a900473ffffffffffffffffffffffffffffffffffffffff1673ffffffffffffffffffffffffffffffffffffffff1663637dda3f85306000604051602001526040518363ffffffff167c0100000000000000000000000000000000000000000000000000000000028152600401808381526020018273ffffffffffffffffffffffffffffffffffffffff1673ffffffffffffffffffffffffffffffffffffffff16815260200192505050602060405180830381600087803b15156109f357600080fd5b6102c65a03f11515610a0457600080fd5b505050604051805190509150610a1c838360006118cb565b838060019003945050610833565b88881415610c8457600660009054906101000a900473ffffffffffffffffffffffffffffffffffffffff1673ffffffffffffffffffffffffffffffffffffffff1663a9059cbb600260009054906101000a900473ffffffffffffffffffffffffffffffffffffffff16600660009054906101000a900473ffffffffffffffffffffffffffffffffffffffff1673ffffffffffffffffffffffffffffffffffffffff166370a08231306000604051602001526040518263ffffffff167c0100000000000000000000000000000000000000000000000000000000028152600401808273ffffffffffffffffffffffffffffffffffffffff1673ffffffffffffffffffffffffffffffffffffffff168152602001915050602060405180830381600087803b1515610b5857600080fd5b6102c65a03f11515610b6957600080fd5b505050604051805190506000604051602001526040518363ffffffff167c0100000000000000000000000000000000000000000000000000000000028152600401808373ffffffffffffffffffffffffffffffffffffffff1673ffffffffffffffffffffffffffffffffffffffff16815260200182815260200192505050602060405180830381600087803b1515610c0057600080fd5b6102c65a03f11515610c1157600080fd5b50505060405180519050507fbc6c94b90850c7cd9f35740bb9b9cbce0e00c88e8ddeaace095f1d45bfd74010600b54600c54604051808381526020018281526020019250505060405180910390a16002600660146101000a81548160ff02191690836002811115610c7e57fe5b02179055505b5b899a505050505050505050505092915050565b600080600080600080600080600080601460009054906101000a900473ffffffffffffffffffffffffffffffffffffffff16601154600f60009054906101000a900473ffffffffffffffffffffffffffffffffffffffff16601060009054906101000a900473ffffffffffffffffffffffffffffffffffffffff166000809054906101000a900473ffffffffffffffffffffffffffffffffffffffff16600560009054906101000a900473ffffffffffffffffffffffffffffffffffffffff16600954600a54600754600854995099509950995099509950995099509950995090919293949596979899565b600260009054906101000a900473ffffffffffffffffffffffffffffffffffffffff1681565b6000600660149054906101000a900460ff166002811115610dc757fe5b816002811115610dd357fe5b141515610ddf57600080fd5b600460009054906101000a900473ffffffffffffffffffffffffffffffffffffffff1673ffffffffffffffffffffffffffffffffffffffff163373ffffffffffffffffffffffffffffffffffffffff161480610ee15750601460009054906101000a900473ffffffffffffffffffffffffffffffffffffffff1673ffffffffffffffffffffffffffffffffffffffff163373ffffffffffffffffffffffffffffffffffffffff16148015610ee05750600460009054906101000a900473ffffffffffffffffffffffffffffffffffffffff1673ffffffffffffffffffffffffffffffffffffffff168273ffffffffffffffffffffffffffffffffffffffff16145b5b1515610eec57600080fd5b600260009054906101000a900473ffffffffffffffffffffffffffffffffffffffff16600360006101000a81548173ffffffffffffffffffffffffffffffffffffffff021916908373ffffffffffffffffffffffffffffffffffffffff160217905550610f57611d3a565b610f83610f7262015180600a54611e9290919063ffffffff16565b600754611ec590919063ffffffff16565b6008819055506224ea0060075460085403101515610f9d57fe5b82601281905550600560009054906101000a900473ffffffffffffffffffffffffffffffffffffffff16600660006101000a81548173ffffffffffffffffffffffffffffffffffffffff021916908373ffffffffffffffffffffffffffffffffffffffff16021790555060028302600660009054906101000a900473ffffffffffffffffffffffffffffffffffffffff1673ffffffffffffffffffffffffffffffffffffffff166370a08231306000604051602001526040518263ffffffff167c0100000000000000000000000000000000000000000000000000000000028152600401808273ffffffffffffffffffffffffffffffffffffffff1673ffffffffffffffffffffffffffffffffffffffff168152602001915050602060405180830381600087803b15156110d057600080fd5b6102c65a03f115156110e157600080fd5b505050604051805190501415156110f457fe5b61111f600460009054906101000a900473ffffffffffffffffffffffffffffffffffffffff16611ee3565b7f4bd82ea3087db5766e0b0ac766426889c709d48bfa239b6e5de07f5f57f561df600560009054906101000a900473ffffffffffffffffffffffffffffffffffffffff16600754600854601254604051808573ffffffffffffffffffffffffffffffffffffffff1673ffffffffffffffffffffffffffffffffffffffff16815260200184815260200183815260200182815260200194505050505060405180910390a16001600660146101000a81548160ff021916908360028111156111e157fe5b0217905550505050565b60008060008060009054906101000a900473ffffffffffffffffffffffffffffffffffffffff16600160006101000a81548173ffffffffffffffffffffffffffffffffffffffff021916908373ffffffffffffffffffffffffffffffffffffffff160217905550620151804281151561126057fe5b0642039150600754821015801561127957506000600d54145b156114e657600090505b62015180600754830381151561129557fe5b0481101561143857600160009054906101000a900473ffffffffffffffffffffffffffffffffffffffff1673ffffffffffffffffffffffffffffffffffffffff1663aeb2ffc1620151808302600754016000604051602001526040518263ffffffff167c010000000000000000000000000000000000000000000000000000000002815260040180828152602001915050602060405180830381600087803b151561133f57600080fd5b6102c65a03f1151561135057600080fd5b505050604051805190501561142b57600160009054906101000a900473ffffffffffffffffffffffffffffffffffffffff1673ffffffffffffffffffffffffffffffffffffffff16635bee29b7620151808302600754016000604051602001526040518263ffffffff167c010000000000000000000000000000000000000000000000000000000002815260040180828152602001915050602060405180830381600087803b151561140157600080fd5b6102c65a03f1151561141257600080fd5b50505060405180519050600d819055506001925061176c565b8080600101915050611283565b6000600d5414156114e557600160009054906101000a900473ffffffffffffffffffffffffffffffffffffffff1673ffffffffffffffffffffffffffffffffffffffff1663c692c0496040518163ffffffff167c0100000000000000000000000000000000000000000000000000000000028152600401600060405180830381600087803b15156114c857600080fd5b6102c65a03f115156114d957600080fd5b5050506000925061176c565b5b60085482101580156114fa57506000600e54145b1561176757600090505b62015180600854830381151561151657fe5b048110156116b957600160009054906101000a900473ffffffffffffffffffffffffffffffffffffffff1673ffffffffffffffffffffffffffffffffffffffff1663aeb2ffc1620151808302600854016000604051602001526040518263ffffffff167c010000000000000000000000000000000000000000000000000000000002815260040180828152602001915050602060405180830381600087803b15156115c057600080fd5b6102c65a03f115156115d157600080fd5b50505060405180519050156116ac57600160009054906101000a900473ffffffffffffffffffffffffffffffffffffffff1673ffffffffffffffffffffffffffffffffffffffff16635bee29b7620151808302600854016000604051602001526040518263ffffffff167c010000000000000000000000000000000000000000000000000000000002815260040180828152602001915050602060405180830381600087803b151561168257600080fd5b6102c65a03f1151561169357600080fd5b50505060405180519050600e819055506001925061176c565b8080600101915050611504565b6000600e54141561176657600160009054906101000a900473ffffffffffffffffffffffffffffffffffffffff1673ffffffffffffffffffffffffffffffffffffffff1663c692c0496040518163ffffffff167c0100000000000000000000000000000000000000000000000000000000028152600401600060405180830381600087803b151561174957600080fd5b6102c65a03f1151561175a57600080fd5b5050506000925061176c565b5b600192505b505090565b600061179e6103e86117906103e3601254611e9290919063ffffffff16565b61209d90919063ffffffff16565b6012819055506000600d541180156117b857506000600e54115b156117f0576117e9600d546117db620186a0600e54611e9290919063ffffffff16565b61209d90919063ffffffff16565b9050611825565b6000600e5411156118085764174876e8009050611824565b6000600d54111561181c5760009050611823565b620186a090505b5b5b61183262030d40826120b8565b9050611872620186a061186460115461185660125486611e9290919063ffffffff16565b61209d90919063ffffffff16565b61209d90919063ffffffff16565b600b819055506118c2620186a06118b46011546118a660125461189862030d40886120d1565b611e9290919063ffffffff16565b61209d90919063ffffffff16565b61209d90919063ffffffff16565b600c8190555050565b8015611b05576000600b541115611b0057600660009054906101000a900473ffffffffffffffffffffffffffffffffffffffff1673ffffffffffffffffffffffffffffffffffffffff1663a9059cbb84611930600b5486611e9290919063ffffffff16565b6000604051602001526040518363ffffffff167c0100000000000000000000000000000000000000000000000000000000028152600401808373ffffffffffffffffffffffffffffffffffffffff1673ffffffffffffffffffffffffffffffffffffffff16815260200182815260200192505050602060405180830381600087803b15156119bd57600080fd5b6102c65a03f115156119ce57600080fd5b5050506040518051905050600360009054906101000a900473ffffffffffffffffffffffffffffffffffffffff1673ffffffffffffffffffffffffffffffffffffffff1663ecb1451984600f60009054906101000a900473ffffffffffffffffffffffffffffffffffffffff166040518363ffffffff167c0100000000000000000000000000000000000000000000000000000000028152600401808373ffffffffffffffffffffffffffffffffffffffff1673ffffffffffffffffffffffffffffffffffffffff1681526020018273ffffffffffffffffffffffffffffffffffffffff1673ffffffffffffffffffffffffffffffffffffffff16815260200192505050600060405180830381600087803b1515611aeb57600080fd5b6102c65a03f11515611afc57600080fd5b5050505b611d35565b6000600c541115611d3457600660009054906101000a900473ffffffffffffffffffffffffffffffffffffffff1673ffffffffffffffffffffffffffffffffffffffff1663a9059cbb84611b64600c5486611e9290919063ffffffff16565b6000604051602001526040518363ffffffff167c0100000000000000000000000000000000000000000000000000000000028152600401808373ffffffffffffffffffffffffffffffffffffffff1673ffffffffffffffffffffffffffffffffffffffff16815260200182815260200192505050602060405180830381600087803b1515611bf157600080fd5b6102c65a03f11515611c0257600080fd5b5050506040518051905050600360009054906101000a900473ffffffffffffffffffffffffffffffffffffffff1673ffffffffffffffffffffffffffffffffffffffff1663ecb1451984601060009054906101000a900473ffffffffffffffffffffffffffffffffffffffff166040518363ffffffff167c0100000000000000000000000000000000000000000000000000000000028152600401808373ffffffffffffffffffffffffffffffffffffffff1673ffffffffffffffffffffffffffffffffffffffff1681526020018273ffffffffffffffffffffffffffffffffffffffff1673ffffffffffffffffffffffffffffffffffffffff16815260200192505050600060405180830381600087803b1515611d1f57600080fd5b6102c65a03f11515611d3057600080fd5b5050505b5b505050565b600360009054906101000a900473ffffffffffffffffffffffffffffffffffffffff1673ffffffffffffffffffffffffffffffffffffffff166394aef0226000604051608001526040518163ffffffff167c0100000000000000000000000000000000000000000000000000000000028152600401608060405180830381600087803b1515611dc857600080fd5b6102c65a03f11515611dd957600080fd5b50505060405180519060200180519060200180519060200180519050600080600a600060096000600560008891906101000a81548173ffffffffffffffffffffffffffffffffffffffff021916908373ffffffffffffffffffffffffffffffffffffffff160217905550879190505586919050558591906101000a81548173ffffffffffffffffffffffffffffffffffffffff021916908373ffffffffffffffffffffffffffffffffffffffff16021790555050505050565b60008082840290506000841480611eb35750828482811515611eb057fe5b04145b1515611ebb57fe5b8091505092915050565b6000808284019050838110151515611ed957fe5b8091505092915050565b600060019050600360009054906101000a900473ffffffffffffffffffffffffffffffffffffffff1673ffffffffffffffffffffffffffffffffffffffff16632a7292d0601254846007546000604051606001526040518463ffffffff167c0100000000000000000000000000000000000000000000000000000000028152600401808481526020018373ffffffffffffffffffffffffffffffffffffffff1673ffffffffffffffffffffffffffffffffffffffff1681526020018281526020019350505050606060405180830381600087803b1515611fc257600080fd5b6102c65a03f11515611fd357600080fd5b50505060405180519060200180519060200180519050600f6000601060008497508591906101000a81548173ffffffffffffffffffffffffffffffffffffffff021916908373ffffffffffffffffffffffffffffffffffffffff1602179055508491906101000a81548173ffffffffffffffffffffffffffffffffffffffff021916908373ffffffffffffffffffffffffffffffffffffffff16021790555050505061208a8160125461209d90919063ffffffff16565b6011819055506120986111eb565b505050565b60008082848115156120ab57fe5b0490508091505092915050565b60008183106120c757816120c9565b825b905092915050565b60008282111515156120df57fe5b8183039050929150505600a165627a7a72305820e984b8888e1edcdb8c593ae3be3beead3f3bcb63a7dd14859f884a6e5642a1b00029a165627a7a7230582079a3da87d8c46de1e4487ee157fe087d59a0d4dd6ce829e534de4855fbd3dd150029",
  "source": "pragma solidity ^0.4.17;\r\n\r\nimport \"./TokenToTokenSwap.sol\";\r\n\r\n/**Swap Deployer Contract - purpose is to save gas for deployment of Factory contract.\r\n*It also ensures only the factory can create new contracts.\r\n*/\r\ncontract Deployer {\r\n    /*Variables*/\r\n    address owner;\r\n    address factory;\r\n    \r\n    /*Functions*/\r\n    /**\r\n     *@dev Deploys the factory contract \r\n     *@param _factory is the address of the factory contract\r\n    */    \r\n    function Deployer(address _factory) public {\r\n        factory = _factory;\r\n        owner = msg.sender;\r\n    }\r\n\r\n    /**\r\n    *@notice The function creates a new contract\r\n    *@dev It ensures the new contract can only be created by the factory\r\n    *@param _party\r\n    *@param user_contract global variable? \r\n    *@param _start_date contract start date?\r\n    *@return returns the address for the new contract\r\n    */\r\n    function newContract(address _party, address user_contract, uint _start_date) public returns (address) {\r\n        require(msg.sender == factory);\r\n        address new_contract = new TokenToTokenSwap(factory, _party, user_contract, _start_date);\r\n        return new_contract;\r\n    }\r\n\r\n    /**\r\n     *@dev Set variables if the owner is the factory contract\r\n     *@param _factory\r\n     *@param _owner\r\n    */\r\n    function setVars(address _factory, address _owner) public {\r\n        require (msg.sender == owner);\r\n        factory = _factory;\r\n        owner = _owner;\r\n    }\r\n}\r\n",
  "sourcePath": "C:\\company\\code\\drct_standard\\contracts\\Deployer.sol",
  "compiler": {
    "name": "solc",
    "version": "0.4.19+commit.c4cbbb05.Emscripten.clang"
  },
  "schemaVersion": "1.0.1",
  "updatedAt": "2018-04-18T00:42:26.633Z"
}