{
  "contractName": "Deployer",
  "abi": [
    {
      "inputs": [
        {
          "name": "_factory",
          "type": "address"
        }
      ],
      "payable": false,
      "stateMutability": "nonpayable",
      "type": "constructor"
    },
    {
      "constant": false,
      "inputs": [
        {
          "name": "_party",
          "type": "address"
        },
        {
          "name": "user_contract",
          "type": "address"
        },
        {
          "name": "_start_date",
          "type": "uint256"
        }
      ],
      "name": "newContract",
      "outputs": [
        {
          "name": "",
          "type": "address"
        }
      ],
      "payable": false,
      "stateMutability": "nonpayable",
      "type": "function"
    },
    {
      "constant": false,
      "inputs": [
        {
          "name": "_factory",
          "type": "address"
        },
        {
          "name": "_owner",
          "type": "address"
        }
      ],
      "name": "setVars",
      "outputs": [],
      "payable": false,
      "stateMutability": "nonpayable",
      "type": "function"
    }
  ],
  "bytecode": "0x6060604052341561000f57600080fd5b6040516020806126f48339810160405280805190602001909190505080600160006101000a81548173ffffffffffffffffffffffffffffffffffffffff021916908373ffffffffffffffffffffffffffffffffffffffff160217905550336000806101000a81548173ffffffffffffffffffffffffffffffffffffffff021916908373ffffffffffffffffffffffffffffffffffffffff16021790555050612638806100bc6000396000f30060606040526004361061004c576000357c0100000000000000000000000000000000000000000000000000000000900463ffffffff168063548dd51e14610051578063cea9f621146100f2575b600080fd5b341561005c57600080fd5b6100b0600480803573ffffffffffffffffffffffffffffffffffffffff1690602001909190803573ffffffffffffffffffffffffffffffffffffffff1690602001909190803590602001909190505061014a565b604051808273ffffffffffffffffffffffffffffffffffffffff1673ffffffffffffffffffffffffffffffffffffffff16815260200191505060405180910390f35b34156100fd57600080fd5b610148600480803573ffffffffffffffffffffffffffffffffffffffff1690602001909190803573ffffffffffffffffffffffffffffffffffffffff1690602001909190505061029d565b005b600080600160009054906101000a900473ffffffffffffffffffffffffffffffffffffffff1673ffffffffffffffffffffffffffffffffffffffff163373ffffffffffffffffffffffffffffffffffffffff161415156101a957600080fd5b600160009054906101000a900473ffffffffffffffffffffffffffffffffffffffff168585856101d761037d565b808573ffffffffffffffffffffffffffffffffffffffff1673ffffffffffffffffffffffffffffffffffffffff1681526020018473ffffffffffffffffffffffffffffffffffffffff1673ffffffffffffffffffffffffffffffffffffffff1681526020018373ffffffffffffffffffffffffffffffffffffffff1673ffffffffffffffffffffffffffffffffffffffff168152602001828152602001945050505050604051809103906000f080151561029057600080fd5b9050809150509392505050565b6000809054906101000a900473ffffffffffffffffffffffffffffffffffffffff1673ffffffffffffffffffffffffffffffffffffffff163373ffffffffffffffffffffffffffffffffffffffff161415156102f857600080fd5b81600160006101000a81548173ffffffffffffffffffffffffffffffffffffffff021916908373ffffffffffffffffffffffffffffffffffffffff160217905550806000806101000a81548173ffffffffffffffffffffffffffffffffffffffff021916908373ffffffffffffffffffffffffffffffffffffffff1602179055505050565b60405161227f8061038e8339019056006060604052341561000f57600080fd5b60405160808061227f8339810160405280805190602001909190805190602001909190805190602001909190805190602001909190505082600460006101000a81548173ffffffffffffffffffffffffffffffffffffffff021916908373ffffffffffffffffffffffffffffffffffffffff16021790555083600260006101000a81548173ffffffffffffffffffffffffffffffffffffffff021916908373ffffffffffffffffffffffffffffffffffffffff16021790555081601460006101000a81548173ffffffffffffffffffffffffffffffffffffffff021916908373ffffffffffffffffffffffffffffffffffffffff160217905550806007819055506000600660146101000a81548160ff0219169083600281111561012f57fe5b021790555050505050612138806101476000396000f300606060405260043610610078576000357c0100000000000000000000000000000000000000000000000000000000900463ffffffff16806354f6c0db1461007d5780635b04cbb5146100a657806370f9c021146100dd57806379eba0b614610121578063ba92d38214610265578063dec5472a146102ba575b600080fd5b341561008857600080fd5b6100906102fc565b6040518082815260200191505060405180910390f35b34156100b157600080fd5b6100b9610302565b604051808260028111156100c957fe5b60ff16815260200191505060405180910390f35b34156100e857600080fd5b6101076004808035906020019091908035906020019091905050610315565b604051808215151515815260200191505060405180910390f35b341561012c57600080fd5b610134610cba565b604051808b73ffffffffffffffffffffffffffffffffffffffff1673ffffffffffffffffffffffffffffffffffffffff1681526020018a81526020018973ffffffffffffffffffffffffffffffffffffffff1673ffffffffffffffffffffffffffffffffffffffff1681526020018873ffffffffffffffffffffffffffffffffffffffff1673ffffffffffffffffffffffffffffffffffffffff1681526020018773ffffffffffffffffffffffffffffffffffffffff1673ffffffffffffffffffffffffffffffffffffffff1681526020018673ffffffffffffffffffffffffffffffffffffffff1673ffffffffffffffffffffffffffffffffffffffff1681526020018581526020018481526020018381526020018281526020019a505050505050505050505060405180910390f35b341561027057600080fd5b610278610da6565b604051808273ffffffffffffffffffffffffffffffffffffffff1673ffffffffffffffffffffffffffffffffffffffff16815260200191505060405180910390f35b34156102c557600080fd5b6102fa600480803590602001909190803573ffffffffffffffffffffffffffffffffffffffff16906020019091905050610dcc565b005b60125481565b600660149054906101000a900460ff1681565b60008060008060008060008060008060006001600660149054906101000a900460ff16600281111561034357fe5b81600281111561034f57fe5b14151561035b57600080fd5b600854421015151561036c57600080fd5b61037461120d565b9a508a15610ca657610384611793565b600f60009054906101000a900473ffffffffffffffffffffffffffffffffffffffff16601360006101000a81548173ffffffffffffffffffffffffffffffffffffffff021916908373ffffffffffffffffffffffffffffffffffffffff160217905550601360009054906101000a900473ffffffffffffffffffffffffffffffffffffffff1673ffffffffffffffffffffffffffffffffffffffff16638811a0ae306000604051602001526040518263ffffffff167c0100000000000000000000000000000000000000000000000000000000028152600401808273ffffffffffffffffffffffffffffffffffffffff1673ffffffffffffffffffffffffffffffffffffffff168152602001915050602060405180830381600087803b15156104ac57600080fd5b6102c65a03f115156104bd57600080fd5b505050604051805190509950898e1115156106e2578c8a106104df578c6104e1565b895b98506001890397505b8d881015156106e157601360009054906101000a900473ffffffffffffffffffffffffffffffffffffffff1673ffffffffffffffffffffffffffffffffffffffff1663b85ed17d89306000604051602001526040518363ffffffff167c0100000000000000000000000000000000000000000000000000000000028152600401808381526020018273ffffffffffffffffffffffffffffffffffffffff1673ffffffffffffffffffffffffffffffffffffffff16815260200192505050602060405180830381600087803b15156105c057600080fd5b6102c65a03f115156105d157600080fd5b505050604051805190509650601360009054906101000a900473ffffffffffffffffffffffffffffffffffffffff1673ffffffffffffffffffffffffffffffffffffffff1663637dda3f89306000604051602001526040518363ffffffff167c0100000000000000000000000000000000000000000000000000000000028152600401808381526020018273ffffffffffffffffffffffffffffffffffffffff1673ffffffffffffffffffffffffffffffffffffffff16815260200192505050602060405180830381600087803b15156106aa57600080fd5b6102c65a03f115156106bb57600080fd5b5050506040518051905095506106d3878760016118ed565b8780600190039850506104ea565b5b601060009054906101000a900473ffffffffffffffffffffffffffffffffffffffff16601360006101000a81548173ffffffffffffffffffffffffffffffffffffffff021916908373ffffffffffffffffffffffffffffffffffffffff160217905550601360009054906101000a900473ffffffffffffffffffffffffffffffffffffffff1673ffffffffffffffffffffffffffffffffffffffff16638811a0ae306000604051602001526040518263ffffffff167c0100000000000000000000000000000000000000000000000000000000028152600401808273ffffffffffffffffffffffffffffffffffffffff1673ffffffffffffffffffffffffffffffffffffffff168152602001915050602060405180830381600087803b151561080a57600080fd5b6102c65a03f1151561081b57600080fd5b505050604051805190509450848e111515610a40578c851061083d578c61083f565b845b98506001890393505b8d84101515610a3f57601360009054906101000a900473ffffffffffffffffffffffffffffffffffffffff1673ffffffffffffffffffffffffffffffffffffffff1663b85ed17d85306000604051602001526040518363ffffffff167c0100000000000000000000000000000000000000000000000000000000028152600401808381526020018273ffffffffffffffffffffffffffffffffffffffff1673ffffffffffffffffffffffffffffffffffffffff16815260200192505050602060405180830381600087803b151561091e57600080fd5b6102c65a03f1151561092f57600080fd5b505050604051805190509250601360009054906101000a900473ffffffffffffffffffffffffffffffffffffffff1673ffffffffffffffffffffffffffffffffffffffff1663637dda3f85306000604051602001526040518363ffffffff167c0100000000000000000000000000000000000000000000000000000000028152600401808381526020018273ffffffffffffffffffffffffffffffffffffffff1673ffffffffffffffffffffffffffffffffffffffff16815260200192505050602060405180830381600087803b1515610a0857600080fd5b6102c65a03f11515610a1957600080fd5b505050604051805190509150610a31838360006118ed565b838060019003945050610848565b5b898d118015610a4e5750848d115b15610ca557600660009054906101000a900473ffffffffffffffffffffffffffffffffffffffff1673ffffffffffffffffffffffffffffffffffffffff1663a9059cbb600260009054906101000a900473ffffffffffffffffffffffffffffffffffffffff16600660009054906101000a900473ffffffffffffffffffffffffffffffffffffffff1673ffffffffffffffffffffffffffffffffffffffff166370a08231306000604051602001526040518263ffffffff167c0100000000000000000000000000000000000000000000000000000000028152600401808273ffffffffffffffffffffffffffffffffffffffff1673ffffffffffffffffffffffffffffffffffffffff168152602001915050602060405180830381600087803b1515610b7957600080fd5b6102c65a03f11515610b8a57600080fd5b505050604051805190506000604051602001526040518363ffffffff167c0100000000000000000000000000000000000000000000000000000000028152600401808373ffffffffffffffffffffffffffffffffffffffff1673ffffffffffffffffffffffffffffffffffffffff16815260200182815260200192505050602060405180830381600087803b1515610c2157600080fd5b6102c65a03f11515610c3257600080fd5b50505060405180519050507fbc6c94b90850c7cd9f35740bb9b9cbce0e00c88e8ddeaace095f1d45bfd74010600b54600c54604051808381526020018281526020019250505060405180910390a16002600660146101000a81548160ff02191690836002811115610c9f57fe5b02179055505b5b8a9b50505050505050505050505092915050565b600080600080600080600080600080601460009054906101000a900473ffffffffffffffffffffffffffffffffffffffff16601154600f60009054906101000a900473ffffffffffffffffffffffffffffffffffffffff16601060009054906101000a900473ffffffffffffffffffffffffffffffffffffffff166000809054906101000a900473ffffffffffffffffffffffffffffffffffffffff16600560009054906101000a900473ffffffffffffffffffffffffffffffffffffffff16600954600a54600754600854995099509950995099509950995099509950995090919293949596979899565b600260009054906101000a900473ffffffffffffffffffffffffffffffffffffffff1681565b6000600660149054906101000a900460ff166002811115610de957fe5b816002811115610df557fe5b141515610e0157600080fd5b600460009054906101000a900473ffffffffffffffffffffffffffffffffffffffff1673ffffffffffffffffffffffffffffffffffffffff163373ffffffffffffffffffffffffffffffffffffffff161480610f035750601460009054906101000a900473ffffffffffffffffffffffffffffffffffffffff1673ffffffffffffffffffffffffffffffffffffffff163373ffffffffffffffffffffffffffffffffffffffff16148015610f025750600460009054906101000a900473ffffffffffffffffffffffffffffffffffffffff1673ffffffffffffffffffffffffffffffffffffffff168273ffffffffffffffffffffffffffffffffffffffff16145b5b1515610f0e57600080fd5b600260009054906101000a900473ffffffffffffffffffffffffffffffffffffffff16600360006101000a81548173ffffffffffffffffffffffffffffffffffffffff021916908373ffffffffffffffffffffffffffffffffffffffff160217905550610f79611d5c565b610fa5610f9462015180600a54611eb490919063ffffffff16565b600754611ee790919063ffffffff16565b6008819055506224ea0060075460085403101515610fbf57fe5b82601281905550600560009054906101000a900473ffffffffffffffffffffffffffffffffffffffff16600660006101000a81548173ffffffffffffffffffffffffffffffffffffffff021916908373ffffffffffffffffffffffffffffffffffffffff16021790555060028302600660009054906101000a900473ffffffffffffffffffffffffffffffffffffffff1673ffffffffffffffffffffffffffffffffffffffff166370a08231306000604051602001526040518263ffffffff167c0100000000000000000000000000000000000000000000000000000000028152600401808273ffffffffffffffffffffffffffffffffffffffff1673ffffffffffffffffffffffffffffffffffffffff168152602001915050602060405180830381600087803b15156110f257600080fd5b6102c65a03f1151561110357600080fd5b5050506040518051905014151561111657fe5b611141600460009054906101000a900473ffffffffffffffffffffffffffffffffffffffff16611f05565b7f4bd82ea3087db5766e0b0ac766426889c709d48bfa239b6e5de07f5f57f561df600560009054906101000a900473ffffffffffffffffffffffffffffffffffffffff16600754600854601254604051808573ffffffffffffffffffffffffffffffffffffffff1673ffffffffffffffffffffffffffffffffffffffff16815260200184815260200183815260200182815260200194505050505060405180910390a16001600660146101000a81548160ff0219169083600281111561120357fe5b0217905550505050565b60008060008060009054906101000a900473ffffffffffffffffffffffffffffffffffffffff16600160006101000a81548173ffffffffffffffffffffffffffffffffffffffff021916908373ffffffffffffffffffffffffffffffffffffffff160217905550620151804281151561128257fe5b0642039150600754821015801561129b57506000600d54145b1561150857600090505b6201518060075483038115156112b757fe5b0481101561145a57600160009054906101000a900473ffffffffffffffffffffffffffffffffffffffff1673ffffffffffffffffffffffffffffffffffffffff1663aeb2ffc1620151808302600754016000604051602001526040518263ffffffff167c010000000000000000000000000000000000000000000000000000000002815260040180828152602001915050602060405180830381600087803b151561136157600080fd5b6102c65a03f1151561137257600080fd5b505050604051805190501561144d57600160009054906101000a900473ffffffffffffffffffffffffffffffffffffffff1673ffffffffffffffffffffffffffffffffffffffff16635bed1772620151808302600754016000604051602001526040518263ffffffff167c010000000000000000000000000000000000000000000000000000000002815260040180828152602001915050602060405180830381600087803b151561142357600080fd5b6102c65a03f1151561143457600080fd5b50505060405180519050600d819055506001925061178e565b80806001019150506112a5565b6000600d54141561150757600160009054906101000a900473ffffffffffffffffffffffffffffffffffffffff1673ffffffffffffffffffffffffffffffffffffffff1663c692c0496040518163ffffffff167c0100000000000000000000000000000000000000000000000000000000028152600401600060405180830381600087803b15156114ea57600080fd5b6102c65a03f115156114fb57600080fd5b5050506000925061178e565b5b600854821015801561151c57506000600e54145b1561178957600090505b62015180600854830381151561153857fe5b048110156116db57600160009054906101000a900473ffffffffffffffffffffffffffffffffffffffff1673ffffffffffffffffffffffffffffffffffffffff1663aeb2ffc1620151808302600854016000604051602001526040518263ffffffff167c010000000000000000000000000000000000000000000000000000000002815260040180828152602001915050602060405180830381600087803b15156115e257600080fd5b6102c65a03f115156115f357600080fd5b50505060405180519050156116ce57600160009054906101000a900473ffffffffffffffffffffffffffffffffffffffff1673ffffffffffffffffffffffffffffffffffffffff16635bed1772620151808302600854016000604051602001526040518263ffffffff167c010000000000000000000000000000000000000000000000000000000002815260040180828152602001915050602060405180830381600087803b15156116a457600080fd5b6102c65a03f115156116b557600080fd5b50505060405180519050600e819055506001925061178e565b8080600101915050611526565b6000600e54141561178857600160009054906101000a900473ffffffffffffffffffffffffffffffffffffffff1673ffffffffffffffffffffffffffffffffffffffff1663c692c0496040518163ffffffff167c0100000000000000000000000000000000000000000000000000000000028152600401600060405180830381600087803b151561176b57600080fd5b6102c65a03f1151561177c57600080fd5b5050506000925061178e565b5b600192505b505090565b60006117c06103e86117b26103e3601254611eb490919063ffffffff16565b6120bf90919063ffffffff16565b6012819055506000600d541180156117da57506000600e54115b156118125761180b600d546117fd620186a0600e54611eb490919063ffffffff16565b6120bf90919063ffffffff16565b9050611847565b6000600e54111561182a5764174876e8009050611846565b6000600d54111561183e5760009050611845565b620186a090505b5b5b61185462030d40826120da565b9050611894620186a061188660115461187860125486611eb490919063ffffffff16565b6120bf90919063ffffffff16565b6120bf90919063ffffffff16565b600b819055506118e4620186a06118d66011546118c86012546118ba62030d40886120f3565b611eb490919063ffffffff16565b6120bf90919063ffffffff16565b6120bf90919063ffffffff16565b600c8190555050565b8015611b27576000600b541115611b2257600660009054906101000a900473ffffffffffffffffffffffffffffffffffffffff1673ffffffffffffffffffffffffffffffffffffffff1663a9059cbb84611952600b5486611eb490919063ffffffff16565b6000604051602001526040518363ffffffff167c0100000000000000000000000000000000000000000000000000000000028152600401808373ffffffffffffffffffffffffffffffffffffffff1673ffffffffffffffffffffffffffffffffffffffff16815260200182815260200192505050602060405180830381600087803b15156119df57600080fd5b6102c65a03f115156119f057600080fd5b5050506040518051905050600360009054906101000a900473ffffffffffffffffffffffffffffffffffffffff1673ffffffffffffffffffffffffffffffffffffffff1663ecb1451984600f60009054906101000a900473ffffffffffffffffffffffffffffffffffffffff166040518363ffffffff167c0100000000000000000000000000000000000000000000000000000000028152600401808373ffffffffffffffffffffffffffffffffffffffff1673ffffffffffffffffffffffffffffffffffffffff1681526020018273ffffffffffffffffffffffffffffffffffffffff1673ffffffffffffffffffffffffffffffffffffffff16815260200192505050600060405180830381600087803b1515611b0d57600080fd5b6102c65a03f11515611b1e57600080fd5b5050505b611d57565b6000600c541115611d5657600660009054906101000a900473ffffffffffffffffffffffffffffffffffffffff1673ffffffffffffffffffffffffffffffffffffffff1663a9059cbb84611b86600c5486611eb490919063ffffffff16565b6000604051602001526040518363ffffffff167c0100000000000000000000000000000000000000000000000000000000028152600401808373ffffffffffffffffffffffffffffffffffffffff1673ffffffffffffffffffffffffffffffffffffffff16815260200182815260200192505050602060405180830381600087803b1515611c1357600080fd5b6102c65a03f11515611c2457600080fd5b5050506040518051905050600360009054906101000a900473ffffffffffffffffffffffffffffffffffffffff1673ffffffffffffffffffffffffffffffffffffffff1663ecb1451984601060009054906101000a900473ffffffffffffffffffffffffffffffffffffffff166040518363ffffffff167c0100000000000000000000000000000000000000000000000000000000028152600401808373ffffffffffffffffffffffffffffffffffffffff1673ffffffffffffffffffffffffffffffffffffffff1681526020018273ffffffffffffffffffffffffffffffffffffffff1673ffffffffffffffffffffffffffffffffffffffff16815260200192505050600060405180830381600087803b1515611d4157600080fd5b6102c65a03f11515611d5257600080fd5b5050505b5b505050565b600360009054906101000a900473ffffffffffffffffffffffffffffffffffffffff1673ffffffffffffffffffffffffffffffffffffffff166394aef0226000604051608001526040518163ffffffff167c0100000000000000000000000000000000000000000000000000000000028152600401608060405180830381600087803b1515611dea57600080fd5b6102c65a03f11515611dfb57600080fd5b50505060405180519060200180519060200180519060200180519050600080600a600060096000600560008891906101000a81548173ffffffffffffffffffffffffffffffffffffffff021916908373ffffffffffffffffffffffffffffffffffffffff160217905550879190505586919050558591906101000a81548173ffffffffffffffffffffffffffffffffffffffff021916908373ffffffffffffffffffffffffffffffffffffffff16021790555050505050565b60008082840290506000841480611ed55750828482811515611ed257fe5b04145b1515611edd57fe5b8091505092915050565b6000808284019050838110151515611efb57fe5b8091505092915050565b600060019050600360009054906101000a900473ffffffffffffffffffffffffffffffffffffffff1673ffffffffffffffffffffffffffffffffffffffff16632a7292d0601254846007546000604051606001526040518463ffffffff167c0100000000000000000000000000000000000000000000000000000000028152600401808481526020018373ffffffffffffffffffffffffffffffffffffffff1673ffffffffffffffffffffffffffffffffffffffff1681526020018281526020019350505050606060405180830381600087803b1515611fe457600080fd5b6102c65a03f11515611ff557600080fd5b50505060405180519060200180519060200180519050600f6000601060008497508591906101000a81548173ffffffffffffffffffffffffffffffffffffffff021916908373ffffffffffffffffffffffffffffffffffffffff1602179055508491906101000a81548173ffffffffffffffffffffffffffffffffffffffff021916908373ffffffffffffffffffffffffffffffffffffffff1602179055505050506120ac816012546120bf90919063ffffffff16565b6011819055506120ba61120d565b505050565b60008082848115156120cd57fe5b0490508091505092915050565b60008183106120e957816120eb565b825b905092915050565b600082821115151561210157fe5b8183039050929150505600a165627a7a723058209914e4d5ed718c317c0bf946c68e0a1418f119461ee3464eb9698613ff7f09500029a165627a7a72305820c35c10bd48bc44e14a9327ca84c3f1a5961d98246f982b282db20541cce7a91a0029",
  "source": "pragma solidity ^0.4.17;\r\n\r\nimport \"./TokenToTokenSwap.sol\";\r\n\r\n//Swap Deployer Contract-- purpose is to save gas for deployment of Factory contract\r\ncontract Deployer {\r\n  address owner;\r\n  address factory;\r\n\r\n  function Deployer(address _factory) public {\r\n    factory = _factory;\r\n    owner = msg.sender;\r\n  }\r\n\r\n  function newContract(address _party, address user_contract, uint _start_date) public returns (address) {\r\n    require(msg.sender == factory);\r\n    address new_contract = new TokenToTokenSwap(factory, _party, user_contract, _start_date);\r\n    return new_contract;\r\n  }\r\n\r\n   function setVars(address _factory, address _owner) public {\r\n    require (msg.sender == owner);\r\n    factory = _factory;\r\n    owner = _owner;\r\n  }\r\n}\r\n",
  "sourcePath": "C:\\company\\code\\drct_standard\\contracts\\Deployer.sol",
  "compiler": {
    "name": "solc",
    "version": "0.4.19+commit.c4cbbb05.Emscripten.clang"
  },
  "schemaVersion": "1.0.1",
  "updatedAt": "2018-04-11T17:41:55.082Z"
}