{
  "contractName": "DRCT_Token",
  "abi": [
    {
      "constant": true,
      "inputs": [],
      "name": "master_contract",
      "outputs": [
        {
          "name": "",
          "type": "address"
        }
      ],
      "payable": false,
      "stateMutability": "view",
      "type": "function"
    },
    {
      "constant": true,
      "inputs": [],
      "name": "total_supply",
      "outputs": [
        {
          "name": "",
          "type": "uint256"
        }
      ],
      "payable": false,
      "stateMutability": "view",
      "type": "function"
    },
    {
      "inputs": [
        {
          "name": "_factory",
          "type": "address"
        }
      ],
      "payable": false,
      "stateMutability": "nonpayable",
      "type": "constructor"
    },
    {
      "anonymous": false,
      "inputs": [
        {
          "indexed": true,
          "name": "_from",
          "type": "address"
        },
        {
          "indexed": true,
          "name": "_to",
          "type": "address"
        },
        {
          "indexed": false,
          "name": "_value",
          "type": "uint256"
        }
      ],
      "name": "Transfer",
      "type": "event"
    },
    {
      "anonymous": false,
      "inputs": [
        {
          "indexed": true,
          "name": "_owner",
          "type": "address"
        },
        {
          "indexed": true,
          "name": "_spender",
          "type": "address"
        },
        {
          "indexed": false,
          "name": "_value",
          "type": "uint256"
        }
      ],
      "name": "Approval",
      "type": "event"
    },
    {
      "anonymous": false,
      "inputs": [
        {
          "indexed": false,
          "name": "_from",
          "type": "address"
        },
        {
          "indexed": false,
          "name": "_value",
          "type": "uint256"
        }
      ],
      "name": "CreateToken",
      "type": "event"
    },
    {
      "constant": false,
      "inputs": [
        {
          "name": "_supply",
          "type": "uint256"
        },
        {
          "name": "_owner",
          "type": "address"
        },
        {
          "name": "_swap",
          "type": "address"
        }
      ],
      "name": "createToken",
      "outputs": [],
      "payable": false,
      "stateMutability": "nonpayable",
      "type": "function"
    },
    {
      "constant": false,
      "inputs": [
        {
          "name": "_party",
          "type": "address"
        },
        {
          "name": "_swap",
          "type": "address"
        }
      ],
      "name": "pay",
      "outputs": [],
      "payable": false,
      "stateMutability": "nonpayable",
      "type": "function"
    },
    {
      "constant": true,
      "inputs": [
        {
          "name": "_owner",
          "type": "address"
        }
      ],
      "name": "balanceOf",
      "outputs": [
        {
          "name": "balance",
          "type": "uint256"
        }
      ],
      "payable": false,
      "stateMutability": "view",
      "type": "function"
    },
    {
      "constant": true,
      "inputs": [],
      "name": "totalSupply",
      "outputs": [
        {
          "name": "_total_supply",
          "type": "uint256"
        }
      ],
      "payable": false,
      "stateMutability": "view",
      "type": "function"
    },
    {
      "constant": false,
      "inputs": [
        {
          "name": "_to",
          "type": "address"
        },
        {
          "name": "_amount",
          "type": "uint256"
        }
      ],
      "name": "transfer",
      "outputs": [
        {
          "name": "",
          "type": "bool"
        }
      ],
      "payable": false,
      "stateMutability": "nonpayable",
      "type": "function"
    },
    {
      "constant": false,
      "inputs": [
        {
          "name": "_from",
          "type": "address"
        },
        {
          "name": "_to",
          "type": "address"
        },
        {
          "name": "_amount",
          "type": "uint256"
        }
      ],
      "name": "transferFrom",
      "outputs": [
        {
          "name": "",
          "type": "bool"
        }
      ],
      "payable": false,
      "stateMutability": "nonpayable",
      "type": "function"
    },
    {
      "constant": false,
      "inputs": [
        {
          "name": "_spender",
          "type": "address"
        },
        {
          "name": "_amount",
          "type": "uint256"
        }
      ],
      "name": "approve",
      "outputs": [
        {
          "name": "",
          "type": "bool"
        }
      ],
      "payable": false,
      "stateMutability": "nonpayable",
      "type": "function"
    },
    {
      "constant": true,
      "inputs": [
        {
          "name": "_swap",
          "type": "address"
        }
      ],
      "name": "addressCount",
      "outputs": [
        {
          "name": "",
          "type": "uint256"
        }
      ],
      "payable": false,
      "stateMutability": "view",
      "type": "function"
    },
    {
      "constant": true,
      "inputs": [
        {
          "name": "_ind",
          "type": "uint256"
        },
        {
          "name": "_swap",
          "type": "address"
        }
      ],
      "name": "getHolderByIndex",
      "outputs": [
        {
          "name": "",
          "type": "address"
        }
      ],
      "payable": false,
      "stateMutability": "view",
      "type": "function"
    },
    {
      "constant": true,
      "inputs": [
        {
          "name": "_ind",
          "type": "uint256"
        },
        {
          "name": "_swap",
          "type": "address"
        }
      ],
      "name": "getBalanceByIndex",
      "outputs": [
        {
          "name": "",
          "type": "uint256"
        }
      ],
      "payable": false,
      "stateMutability": "view",
      "type": "function"
    },
    {
      "constant": true,
      "inputs": [
        {
          "name": "_owner",
          "type": "address"
        },
        {
          "name": "_swap",
          "type": "address"
        }
      ],
      "name": "getIndexByAddress",
      "outputs": [
        {
          "name": "",
          "type": "uint256"
        }
      ],
      "payable": false,
      "stateMutability": "view",
      "type": "function"
    },
    {
      "constant": true,
      "inputs": [
        {
          "name": "_owner",
          "type": "address"
        },
        {
          "name": "_spender",
          "type": "address"
        }
      ],
      "name": "allowance",
      "outputs": [
        {
          "name": "",
          "type": "uint256"
        }
      ],
      "payable": false,
      "stateMutability": "view",
      "type": "function"
    }
  ],
  "bytecode": "0x6060604052341561000f57600080fd5b6040516020806131ec83398101604052808051906020019091905050806000806101000a81548173ffffffffffffffffffffffffffffffffffffffff021916908373ffffffffffffffffffffffffffffffffffffffff160217905550506131718061007b6000396000f3006060604052600436106100d0576000357c0100000000000000000000000000000000000000000000000000000000900463ffffffff168063095ea7b3146100d5578063149eead51461012f57806318160ddd1461018457806323b872dd146101ad5780633940e9ee14610226578063637dda3f1461024f57806370a08231146102a55780638811a0ae146102f25780638dfda5ae1461033f578063a9059cbb146103ab578063b85ed17d14610405578063bd0af85d14610487578063dd62ed3e146104df578063e6ed51b71461054b575b600080fd5b34156100e057600080fd5b610115600480803573ffffffffffffffffffffffffffffffffffffffff169060200190919080359060200190919050506105ac565b604051808215151515815260200191505060405180910390f35b341561013a57600080fd5b61014261069e565b604051808273ffffffffffffffffffffffffffffffffffffffff1673ffffffffffffffffffffffffffffffffffffffff16815260200191505060405180910390f35b341561018f57600080fd5b6101976106c3565b6040518082815260200191505060405180910390f35b34156101b857600080fd5b61020c600480803573ffffffffffffffffffffffffffffffffffffffff1690602001909190803573ffffffffffffffffffffffffffffffffffffffff169060200190919080359060200190919050506106cd565b604051808215151515815260200191505060405180910390f35b341561023157600080fd5b610239610add565b6040518082815260200191505060405180910390f35b341561025a57600080fd5b61028f600480803590602001909190803573ffffffffffffffffffffffffffffffffffffffff16906020019091905050610ae3565b6040518082815260200191505060405180910390f35b34156102b057600080fd5b6102dc600480803573ffffffffffffffffffffffffffffffffffffffff16906020019091905050610b4b565b6040518082815260200191505060405180910390f35b34156102fd57600080fd5b610329600480803573ffffffffffffffffffffffffffffffffffffffff16906020019091905050610b94565b6040518082815260200191505060405180910390f35b341561034a57600080fd5b610395600480803573ffffffffffffffffffffffffffffffffffffffff1690602001909190803573ffffffffffffffffffffffffffffffffffffffff16906020019091905050610be0565b6040518082815260200191505060405180910390f35b34156103b657600080fd5b6103eb600480803573ffffffffffffffffffffffffffffffffffffffff16906020019091908035906020019091905050610c67565b604051808215151515815260200191505060405180910390f35b341561041057600080fd5b610445600480803590602001909190803573ffffffffffffffffffffffffffffffffffffffff16906020019091905050610edb565b604051808273ffffffffffffffffffffffffffffffffffffffff1673ffffffffffffffffffffffffffffffffffffffff16815260200191505060405180910390f35b341561049257600080fd5b6104dd600480803573ffffffffffffffffffffffffffffffffffffffff1690602001909190803573ffffffffffffffffffffffffffffffffffffffff16906020019091905050610f63565b005b34156104ea57600080fd5b610535600480803573ffffffffffffffffffffffffffffffffffffffff1690602001909190803573ffffffffffffffffffffffffffffffffffffffff169060200190919050506111b9565b6040518082815260200191505060405180910390f35b341561055657600080fd5b6105aa600480803590602001909190803573ffffffffffffffffffffffffffffffffffffffff1690602001909190803573ffffffffffffffffffffffffffffffffffffffff16906020019091905050611240565b005b600081600760003373ffffffffffffffffffffffffffffffffffffffff1673ffffffffffffffffffffffffffffffffffffffff16815260200190815260200160002060008573ffffffffffffffffffffffffffffffffffffffff1673ffffffffffffffffffffffffffffffffffffffff168152602001908152602001600020819055508273ffffffffffffffffffffffffffffffffffffffff163373ffffffffffffffffffffffffffffffffffffffff167f8c5be1e5ebec7d5bd14f71427d1e84f3dd0314c0f7b2291e5b200ac8c7c3b925846040518082815260200191505060405180910390a36001905092915050565b6000809054906101000a900473ffffffffffffffffffffffffffffffffffffffff1681565b6000600154905090565b6000806000600660008773ffffffffffffffffffffffffffffffffffffffff1673ffffffffffffffffffffffffffffffffffffffff168152602001908152602001600020549150600760008773ffffffffffffffffffffffffffffffffffffffff1673ffffffffffffffffffffffffffffffffffffffff16815260200190815260200160002060003373ffffffffffffffffffffffffffffffffffffffff1673ffffffffffffffffffffffffffffffffffffffff1681526020019081526020016000205490508573ffffffffffffffffffffffffffffffffffffffff168573ffffffffffffffffffffffffffffffffffffffff1614806107f95750600073ffffffffffffffffffffffffffffffffffffffff168573ffffffffffffffffffffffffffffffffffffffff16145b806108045750600084145b8061080e57508382105b8061081857508381105b156108265760009250610ad4565b610831868686611858565b61088384600660008973ffffffffffffffffffffffffffffffffffffffff1673ffffffffffffffffffffffffffffffffffffffff16815260200190815260200160002054612b3890919063ffffffff16565b600660008873ffffffffffffffffffffffffffffffffffffffff1673ffffffffffffffffffffffffffffffffffffffff1681526020019081526020016000208190555061091884600660008873ffffffffffffffffffffffffffffffffffffffff1673ffffffffffffffffffffffffffffffffffffffff16815260200190815260200160002054612b5190919063ffffffff16565b600660008773ffffffffffffffffffffffffffffffffffffffff1673ffffffffffffffffffffffffffffffffffffffff168152602001908152602001600020819055506109ea84600760008973ffffffffffffffffffffffffffffffffffffffff1673ffffffffffffffffffffffffffffffffffffffff16815260200190815260200160002060003373ffffffffffffffffffffffffffffffffffffffff1673ffffffffffffffffffffffffffffffffffffffff16815260200190815260200160002054612b3890919063ffffffff16565b600760008873ffffffffffffffffffffffffffffffffffffffff1673ffffffffffffffffffffffffffffffffffffffff16815260200190815260200160002060003373ffffffffffffffffffffffffffffffffffffffff1673ffffffffffffffffffffffffffffffffffffffff168152602001908152602001600020819055508473ffffffffffffffffffffffffffffffffffffffff168673ffffffffffffffffffffffffffffffffffffffff167fddf252ad1be2c89b69c2b068fc378daa952ba7f163c4a11628f55a4df523b3ef866040518082815260200191505060405180910390a3600192505b50509392505050565b60015481565b6000600260008373ffffffffffffffffffffffffffffffffffffffff1673ffffffffffffffffffffffffffffffffffffffff16815260200190815260200160002083815481101515610b3157fe5b906000526020600020906002020160010154905092915050565b6000600660008373ffffffffffffffffffffffffffffffffffffffff1673ffffffffffffffffffffffffffffffffffffffff168152602001908152602001600020549050919050565b6000600260008373ffffffffffffffffffffffffffffffffffffffff1673ffffffffffffffffffffffffffffffffffffffff168152602001908152602001600020805490509050919050565b6000600360008373ffffffffffffffffffffffffffffffffffffffff1673ffffffffffffffffffffffffffffffffffffffff16815260200190815260200160002060008473ffffffffffffffffffffffffffffffffffffffff1673ffffffffffffffffffffffffffffffffffffffff16815260200190815260200160002054905092915050565b600080600660003373ffffffffffffffffffffffffffffffffffffffff1673ffffffffffffffffffffffffffffffffffffffff1681526020019081526020016000205490503373ffffffffffffffffffffffffffffffffffffffff168473ffffffffffffffffffffffffffffffffffffffff161480610d125750600073ffffffffffffffffffffffffffffffffffffffff168473ffffffffffffffffffffffffffffffffffffffff16145b80610d1d5750600083145b80610d2757508281105b15610d355760009150610ed4565b610d40338585611858565b610d9283600660003373ffffffffffffffffffffffffffffffffffffffff1673ffffffffffffffffffffffffffffffffffffffff16815260200190815260200160002054612b3890919063ffffffff16565b600660003373ffffffffffffffffffffffffffffffffffffffff1673ffffffffffffffffffffffffffffffffffffffff16815260200190815260200160002081905550610e2783600660008773ffffffffffffffffffffffffffffffffffffffff1673ffffffffffffffffffffffffffffffffffffffff16815260200190815260200160002054612b5190919063ffffffff16565b600660008673ffffffffffffffffffffffffffffffffffffffff1673ffffffffffffffffffffffffffffffffffffffff168152602001908152602001600020819055508373ffffffffffffffffffffffffffffffffffffffff163373ffffffffffffffffffffffffffffffffffffffff167fddf252ad1be2c89b69c2b068fc378daa952ba7f163c4a11628f55a4df523b3ef856040518082815260200191505060405180910390a3600191505b5092915050565b6000600260008373ffffffffffffffffffffffffffffffffffffffff1673ffffffffffffffffffffffffffffffffffffffff16815260200190815260200160002083815481101515610f2957fe5b906000526020600020906002020160000160009054906101000a900473ffffffffffffffffffffffffffffffffffffffff16905092915050565b6000806000809054906101000a900473ffffffffffffffffffffffffffffffffffffffff1673ffffffffffffffffffffffffffffffffffffffff163373ffffffffffffffffffffffffffffffffffffffff16141515610fc157600080fd5b600360008473ffffffffffffffffffffffffffffffffffffffff1673ffffffffffffffffffffffffffffffffffffffff16815260200190815260200160002060008573ffffffffffffffffffffffffffffffffffffffff1673ffffffffffffffffffffffffffffffffffffffff168152602001908152602001600020549150600260008473ffffffffffffffffffffffffffffffffffffffff1673ffffffffffffffffffffffffffffffffffffffff1681526020019081526020016000208281548110151561108c57fe5b90600052602060002090600202016001015490506110f281600660008773ffffffffffffffffffffffffffffffffffffffff1673ffffffffffffffffffffffffffffffffffffffff16815260200190815260200160002054612b3890919063ffffffff16565b600660008673ffffffffffffffffffffffffffffffffffffffff1673ffffffffffffffffffffffffffffffffffffffff1681526020019081526020016000208190555061114a81600154612b3890919063ffffffff16565b6001819055506000600260008573ffffffffffffffffffffffffffffffffffffffff1673ffffffffffffffffffffffffffffffffffffffff1681526020019081526020016000208381548110151561119e57fe5b90600052602060002090600202016001018190555050505050565b6000600760008473ffffffffffffffffffffffffffffffffffffffff1673ffffffffffffffffffffffffffffffffffffffff16815260200190815260200160002060008373ffffffffffffffffffffffffffffffffffffffff1673ffffffffffffffffffffffffffffffffffffffff16815260200190815260200160002054905092915050565b6000809054906101000a900473ffffffffffffffffffffffffffffffffffffffff1673ffffffffffffffffffffffffffffffffffffffff163373ffffffffffffffffffffffffffffffffffffffff1614151561129b57600080fd5b6112b083600154612b5190919063ffffffff16565b60018190555061130883600660008573ffffffffffffffffffffffffffffffffffffffff1673ffffffffffffffffffffffffffffffffffffffff16815260200190815260200160002054612b5190919063ffffffff16565b600660008473ffffffffffffffffffffffffffffffffffffffff1673ffffffffffffffffffffffffffffffffffffffff168152602001908152602001600020819055506000600460008473ffffffffffffffffffffffffffffffffffffffff1673ffffffffffffffffffffffffffffffffffffffff16815260200190815260200160002080549050141561143757600460008373ffffffffffffffffffffffffffffffffffffffff1673ffffffffffffffffffffffffffffffffffffffff16815260200190815260200160002080548060010182816113e79190612fd2565b9160005260206000209001600080909190916101000a81548173ffffffffffffffffffffffffffffffffffffffff021916908373ffffffffffffffffffffffffffffffffffffffff160217905550505b600460008373ffffffffffffffffffffffffffffffffffffffff1673ffffffffffffffffffffffffffffffffffffffff16815260200190815260200160002080549050600560008473ffffffffffffffffffffffffffffffffffffffff1673ffffffffffffffffffffffffffffffffffffffff16815260200190815260200160002060008373ffffffffffffffffffffffffffffffffffffffff1673ffffffffffffffffffffffffffffffffffffffff16815260200190815260200160002081905550600460008373ffffffffffffffffffffffffffffffffffffffff1673ffffffffffffffffffffffffffffffffffffffff168152602001908152602001600020805480600101828161154b9190612fd2565b9160005260206000209001600083909190916101000a81548173ffffffffffffffffffffffffffffffffffffffff021916908373ffffffffffffffffffffffffffffffffffffffff16021790555050600260008273ffffffffffffffffffffffffffffffffffffffff1673ffffffffffffffffffffffffffffffffffffffff16815260200190815260200160002080548060010182816115eb9190612ffe565b916000526020600020906002020160006040805190810160405280600073ffffffffffffffffffffffffffffffffffffffff1681526020016000815250909190915060008201518160000160006101000a81548173ffffffffffffffffffffffffffffffffffffffff021916908373ffffffffffffffffffffffffffffffffffffffff160217905550602082015181600101555050506001600360008373ffffffffffffffffffffffffffffffffffffffff1673ffffffffffffffffffffffffffffffffffffffff16815260200190815260200160002060008473ffffffffffffffffffffffffffffffffffffffff1673ffffffffffffffffffffffffffffffffffffffff16815260200190815260200160002081905550600260008273ffffffffffffffffffffffffffffffffffffffff1673ffffffffffffffffffffffffffffffffffffffff16815260200190815260200160002080548060010182816117549190612ffe565b9160005260206000209060020201600060408051908101604052808673ffffffffffffffffffffffffffffffffffffffff16815260200187815250909190915060008201518160000160006101000a81548173ffffffffffffffffffffffffffffffffffffffff021916908373ffffffffffffffffffffffffffffffffffffffff160217905550602082015181600101555050507fb378e89b40ac5bbe0e2241b596fbe1adc3cf1fb7c982aa1b4560165cf264ee938284604051808373ffffffffffffffffffffffffffffffffffffffff1673ffffffffffffffffffffffffffffffffffffffff1681526020018281526020019250505060405180910390a1505050565b611860613030565b60008061186b613044565b600080600460008a73ffffffffffffffffffffffffffffffffffffffff1673ffffffffffffffffffffffffffffffffffffffff16815260200190815260200160002080548060200260200160405190810160405280929190818152602001828054801561192d57602002820191906000526020600020905b8160009054906101000a900473ffffffffffffffffffffffffffffffffffffffff1673ffffffffffffffffffffffffffffffffffffffff16815260200190600101908083116118e3575b5050505050955061194960018751612b3890919063ffffffff16565b94505b6000851115612b2d5760036000878781518110151561196757fe5b9060200190602002015173ffffffffffffffffffffffffffffffffffffffff1673ffffffffffffffffffffffffffffffffffffffff16815260200190815260200160002060008a73ffffffffffffffffffffffffffffffffffffffff1673ffffffffffffffffffffffffffffffffffffffff1681526020019081526020016000205493506002600087878151811015156119fd57fe5b9060200190602002015173ffffffffffffffffffffffffffffffffffffffff1673ffffffffffffffffffffffffffffffffffffffff16815260200190815260200160002084815481101515611a4e57fe5b90600052602060002090600202016040805190810160405290816000820160009054906101000a900473ffffffffffffffffffffffffffffffffffffffff1673ffffffffffffffffffffffffffffffffffffffff1673ffffffffffffffffffffffffffffffffffffffff168152602001600182015481525050925082602001518710151561237957826020015187039650611b356001600460008c73ffffffffffffffffffffffffffffffffffffffff1673ffffffffffffffffffffffffffffffffffffffff16815260200190815260200160002080549050612b3890919063ffffffff16565b600460008b73ffffffffffffffffffffffffffffffffffffffff1673ffffffffffffffffffffffffffffffffffffffff16815260200190815260200160002081611b7f9190613074565b50600560008a73ffffffffffffffffffffffffffffffffffffffff1673ffffffffffffffffffffffffffffffffffffffff16815260200190815260200160002060008787815181101515611bcf57fe5b9060200190602002015173ffffffffffffffffffffffffffffffffffffffff1673ffffffffffffffffffffffffffffffffffffffff168152602001908152602001600020600090556000600560008a73ffffffffffffffffffffffffffffffffffffffff1673ffffffffffffffffffffffffffffffffffffffff16815260200190815260200160002060008888815181101515611c6857fe5b9060200190602002015173ffffffffffffffffffffffffffffffffffffffff1673ffffffffffffffffffffffffffffffffffffffff16815260200190815260200160002054141515611e7357600360008787815181101515611cc657fe5b9060200190602002015173ffffffffffffffffffffffffffffffffffffffff1673ffffffffffffffffffffffffffffffffffffffff16815260200190815260200160002060008973ffffffffffffffffffffffffffffffffffffffff1673ffffffffffffffffffffffffffffffffffffffff168152602001908152602001600020549150611dd58360200151600260008989815181101515611d6457fe5b9060200190602002015173ffffffffffffffffffffffffffffffffffffffff1673ffffffffffffffffffffffffffffffffffffffff16815260200190815260200160002084815481101515611db557fe5b906000526020600020906002020160010154612b5190919063ffffffff16565b600260008888815181101515611de757fe5b9060200190602002015173ffffffffffffffffffffffffffffffffffffffff1673ffffffffffffffffffffffffffffffffffffffff16815260200190815260200160002083815481101515611e3857fe5b906000526020600020906002020160010181905550611e6e898787815181101515611e5f57fe5b90602001906020020151612b6f565b612366565b6000600460008a73ffffffffffffffffffffffffffffffffffffffff1673ffffffffffffffffffffffffffffffffffffffff168152602001908152602001600020805490501415611f5f57600460008973ffffffffffffffffffffffffffffffffffffffff1673ffffffffffffffffffffffffffffffffffffffff1681526020019081526020016000208054806001018281611f0f9190612fd2565b9160005260206000209001600080909190916101000a81548173ffffffffffffffffffffffffffffffffffffffff021916908373ffffffffffffffffffffffffffffffffffffffff160217905550505b600460008973ffffffffffffffffffffffffffffffffffffffff1673ffffffffffffffffffffffffffffffffffffffff16815260200190815260200160002080549050600560008a73ffffffffffffffffffffffffffffffffffffffff1673ffffffffffffffffffffffffffffffffffffffff16815260200190815260200160002060008888815181101515611ff157fe5b9060200190602002015173ffffffffffffffffffffffffffffffffffffffff1673ffffffffffffffffffffffffffffffffffffffff16815260200190815260200160002081905550600460008973ffffffffffffffffffffffffffffffffffffffff1673ffffffffffffffffffffffffffffffffffffffff168152602001908152602001600020805480600101828161208a9190612fd2565b9160005260206000209001600088888151811015156120a557fe5b90602001906020020151909190916101000a81548173ffffffffffffffffffffffffffffffffffffffff021916908373ffffffffffffffffffffffffffffffffffffffff160217905550508760026000888881518110151561210357fe5b9060200190602002015173ffffffffffffffffffffffffffffffffffffffff1673ffffffffffffffffffffffffffffffffffffffff1681526020019081526020016000208581548110151561215457fe5b906000526020600020906002020160000160006101000a81548173ffffffffffffffffffffffffffffffffffffffff021916908373ffffffffffffffffffffffffffffffffffffffff1602179055506003600087878151811015156121b557fe5b9060200190602002015173ffffffffffffffffffffffffffffffffffffffff1673ffffffffffffffffffffffffffffffffffffffff16815260200190815260200160002060008a73ffffffffffffffffffffffffffffffffffffffff1673ffffffffffffffffffffffffffffffffffffffff1681526020019081526020016000205460036000888881518110151561224957fe5b9060200190602002015173ffffffffffffffffffffffffffffffffffffffff1673ffffffffffffffffffffffffffffffffffffffff16815260200190815260200160002060008a73ffffffffffffffffffffffffffffffffffffffff1673ffffffffffffffffffffffffffffffffffffffff168152602001908152602001600020819055506003600087878151811015156122e057fe5b9060200190602002015173ffffffffffffffffffffffffffffffffffffffff1673ffffffffffffffffffffffffffffffffffffffff16815260200190815260200160002060008a73ffffffffffffffffffffffffffffffffffffffff1673ffffffffffffffffffffffffffffffffffffffff168152602001908152602001600020600090555b600087141561237457612b2d565b612b1f565b60036000878781518110151561238b57fe5b9060200190602002015173ffffffffffffffffffffffffffffffffffffffff1673ffffffffffffffffffffffffffffffffffffffff16815260200190815260200160002060008973ffffffffffffffffffffffffffffffffffffffff1673ffffffffffffffffffffffffffffffffffffffff1681526020019081526020016000205490506000600560008a73ffffffffffffffffffffffffffffffffffffffff1673ffffffffffffffffffffffffffffffffffffffff1681526020019081526020016000206000888881518110151561246057fe5b9060200190602002015173ffffffffffffffffffffffffffffffffffffffff1673ffffffffffffffffffffffffffffffffffffffff168152602001908152602001600020541415156125b057612533876002600089898151811015156124c257fe5b9060200190602002015173ffffffffffffffffffffffffffffffffffffffff1673ffffffffffffffffffffffffffffffffffffffff1681526020019081526020016000208381548110151561251357fe5b906000526020600020906002020160010154612b5190919063ffffffff16565b60026000888881518110151561254557fe5b9060200190602002015173ffffffffffffffffffffffffffffffffffffffff1673ffffffffffffffffffffffffffffffffffffffff1681526020019081526020016000208281548110151561259657fe5b906000526020600020906002020160010181905550612a1b565b6000600460008a73ffffffffffffffffffffffffffffffffffffffff1673ffffffffffffffffffffffffffffffffffffffff16815260200190815260200160002080549050141561269c57600460008973ffffffffffffffffffffffffffffffffffffffff1673ffffffffffffffffffffffffffffffffffffffff168152602001908152602001600020805480600101828161264c9190612fd2565b9160005260206000209001600080909190916101000a81548173ffffffffffffffffffffffffffffffffffffffff021916908373ffffffffffffffffffffffffffffffffffffffff160217905550505b600460008973ffffffffffffffffffffffffffffffffffffffff1673ffffffffffffffffffffffffffffffffffffffff16815260200190815260200160002080549050600560008a73ffffffffffffffffffffffffffffffffffffffff1673ffffffffffffffffffffffffffffffffffffffff1681526020019081526020016000206000888881518110151561272e57fe5b9060200190602002015173ffffffffffffffffffffffffffffffffffffffff1673ffffffffffffffffffffffffffffffffffffffff16815260200190815260200160002081905550600460008973ffffffffffffffffffffffffffffffffffffffff1673ffffffffffffffffffffffffffffffffffffffff16815260200190815260200160002080548060010182816127c79190612fd2565b9160005260206000209001600088888151811015156127e257fe5b90602001906020020151909190916101000a81548173ffffffffffffffffffffffffffffffffffffffff021916908373ffffffffffffffffffffffffffffffffffffffff1602179055505060026000878781518110151561283f57fe5b9060200190602002015173ffffffffffffffffffffffffffffffffffffffff1673ffffffffffffffffffffffffffffffffffffffff1681526020019081526020016000208054905060036000888881518110151561289957fe5b9060200190602002015173ffffffffffffffffffffffffffffffffffffffff1673ffffffffffffffffffffffffffffffffffffffff16815260200190815260200160002060008a73ffffffffffffffffffffffffffffffffffffffff1673ffffffffffffffffffffffffffffffffffffffff1681526020019081526020016000208190555060026000878781518110151561293057fe5b9060200190602002015173ffffffffffffffffffffffffffffffffffffffff1673ffffffffffffffffffffffffffffffffffffffff16815260200190815260200160002080548060010182816129869190612ffe565b9160005260206000209060020201600060408051908101604052808c73ffffffffffffffffffffffffffffffffffffffff1681526020018b815250909190915060008201518160000160006101000a81548173ffffffffffffffffffffffffffffffffffffffff021916908373ffffffffffffffffffffffffffffffffffffffff160217905550602082015181600101555050505b612aa287600260008989815181101515612a3157fe5b9060200190602002015173ffffffffffffffffffffffffffffffffffffffff1673ffffffffffffffffffffffffffffffffffffffff16815260200190815260200160002086815481101515612a8257fe5b906000526020600020906002020160010154612b3890919063ffffffff16565b600260008888815181101515612ab457fe5b9060200190602002015173ffffffffffffffffffffffffffffffffffffffff1673ffffffffffffffffffffffffffffffffffffffff16815260200190815260200160002085815481101515612b0557fe5b906000526020600020906002020160010181905550612b2d565b84806001900395505061194c565b505050505050505050565b6000828211151515612b4657fe5b818303905092915050565b6000808284019050838110151515612b6557fe5b8091505092915050565b6000806000612bca6001600260008773ffffffffffffffffffffffffffffffffffffffff1673ffffffffffffffffffffffffffffffffffffffff16815260200190815260200160002080549050612b3890919063ffffffff16565b9250600260008573ffffffffffffffffffffffffffffffffffffffff1673ffffffffffffffffffffffffffffffffffffffff16815260200190815260200160002083815481101515612c1857fe5b906000526020600020906002020160000160009054906101000a900473ffffffffffffffffffffffffffffffffffffffff1691508473ffffffffffffffffffffffffffffffffffffffff168273ffffffffffffffffffffffffffffffffffffffff16141515612eaa57600360008573ffffffffffffffffffffffffffffffffffffffff1673ffffffffffffffffffffffffffffffffffffffff16815260200190815260200160002060008673ffffffffffffffffffffffffffffffffffffffff1673ffffffffffffffffffffffffffffffffffffffff16815260200190815260200160002054905080600360008673ffffffffffffffffffffffffffffffffffffffff1673ffffffffffffffffffffffffffffffffffffffff16815260200190815260200160002060008473ffffffffffffffffffffffffffffffffffffffff1673ffffffffffffffffffffffffffffffffffffffff16815260200190815260200160002081905550600260008573ffffffffffffffffffffffffffffffffffffffff1673ffffffffffffffffffffffffffffffffffffffff16815260200190815260200160002083815481101515612dcd57fe5b9060005260206000209060020201600260008673ffffffffffffffffffffffffffffffffffffffff1673ffffffffffffffffffffffffffffffffffffffff16815260200190815260200160002082815481101515612e2757fe5b90600052602060002090600202016000820160009054906101000a900473ffffffffffffffffffffffffffffffffffffffff168160000160006101000a81548173ffffffffffffffffffffffffffffffffffffffff021916908373ffffffffffffffffffffffffffffffffffffffff160217905550600182015481600101559050505b600360008573ffffffffffffffffffffffffffffffffffffffff1673ffffffffffffffffffffffffffffffffffffffff16815260200190815260200160002060008673ffffffffffffffffffffffffffffffffffffffff1673ffffffffffffffffffffffffffffffffffffffff16815260200190815260200160002060009055612f806001600260008773ffffffffffffffffffffffffffffffffffffffff1673ffffffffffffffffffffffffffffffffffffffff16815260200190815260200160002080549050612b3890919063ffffffff16565b600260008673ffffffffffffffffffffffffffffffffffffffff1673ffffffffffffffffffffffffffffffffffffffff16815260200190815260200160002081612fca91906130a0565b505050505050565b815481835581811511612ff957818360005260206000209182019101612ff891906130d2565b5b505050565b81548183558181151161302b5760020281600202836000526020600020918201910161302a91906130f7565b5b505050565b602060405190810160405280600081525090565b6040805190810160405280600073ffffffffffffffffffffffffffffffffffffffff168152602001600081525090565b81548183558181151161309b5781836000526020600020918201910161309a91906130d2565b5b505050565b8154818355818115116130cd576002028160020283600052602060002091820191016130cc91906130f7565b5b505050565b6130f491905b808211156130f05760008160009055506001016130d8565b5090565b90565b61314291905b8082111561313e57600080820160006101000a81549073ffffffffffffffffffffffffffffffffffffffff02191690556001820160009055506002016130fd565b5090565b905600a165627a7a72305820aa831b024a35809c27513d6cb7249c32cb65c149ec4adde675f5ba41c774ba700029",
  "source": "pragma solidity ^0.4.17;\r\n\r\nimport \"./libraries/SafeMath.sol\";\r\n\r\n\r\n//The DRCT_Token is an ERC20 compliant token representing the payout of the swap contract specified in the Factory contract\r\n//Each Factory contract is specified one DRCT Token and the token address can contain many different swap contracts that are standardized at the Factory level\r\ncontract DRCT_Token {\r\n\r\n  using SafeMath for uint256;\r\n\r\n  /*Structs */\r\n  //Keeps track of balance amounts in the balances array\r\n  struct Balance {\r\n    address owner;\r\n    uint amount;\r\n  }\r\n\r\n  //This is the factory contract that the token is standardized at\r\n  address public master_contract;\r\n  //Total supply of outstanding tokens in the contract\r\n  uint public total_supply;\r\n\r\n  //Mapping from: swap address -> user balance struct (index for a particular user's balance can be found in swap_balances_index)\r\n  mapping(address => Balance[]) swap_balances;\r\n  //Mapping from: swap address -> user -> swap_balances index\r\n  mapping(address => mapping(address => uint)) swap_balances_index;\r\n  //Mapping from: user -> dynamic array of swap addresses (index for a particular swap can be found in user_swaps_index)\r\n  mapping(address => address[]) user_swaps;\r\n  //Mapping from: user -> swap address -> user_swaps index\r\n  mapping(address => mapping(address => uint)) user_swaps_index;\r\n\r\n  //Mapping from: user -> total balance accross all entered swaps\r\n  mapping(address => uint) user_total_balances;\r\n  //Mapping from: owner -> spender -> amount allowed\r\n  mapping(address => mapping(address => uint)) allowed;\r\n\r\n  //events for transfer and approvals\r\n  event Transfer(address indexed _from, address indexed _to, uint _value);\r\n  event Approval(address indexed _owner, address indexed _spender, uint _value);\r\n  event CreateToken(address _from, uint _value);\r\n\r\n  modifier onlyMaster() {\r\n    require(msg.sender == master_contract);\r\n    _;\r\n  }\r\n\r\n  /*Functions*/\r\n  //Constructor\r\n  function DRCT_Token(address _factory) public {\r\n    //Sets values for token name and token supply, as well as the master_contract, the swap.\r\n    master_contract = _factory;\r\n  }\r\n  //Token Creator - This function is called by the factory contract and creates new tokens for the user\r\n  function createToken(uint _supply, address _owner, address _swap) public onlyMaster() {\r\n    //Update total supply of DRCT Tokens\r\n    total_supply = total_supply.add(_supply);\r\n    //Update the total balance of the owner\r\n    user_total_balances[_owner] = user_total_balances[_owner].add(_supply);\r\n    //If the user has not entered any swaps already, push a zeroed address to their user_swaps mapping to prevent default value conflicts in user_swaps_index\r\n    if (user_swaps[_owner].length == 0)\r\n      user_swaps[_owner].push(address(0x0));\r\n    //Add a new swap index for the owner\r\n    user_swaps_index[_owner][_swap] = user_swaps[_owner].length;\r\n    //Push a new swap address to the owner's swaps\r\n    user_swaps[_owner].push(_swap);\r\n    //Push a zeroed Balance struct to the swap balances mapping to prevent default value conflicts in swap_balances_index\r\n    swap_balances[_swap].push(Balance({\r\n      owner: 0,\r\n      amount: 0\r\n    }));\r\n    //Add a new owner balance index for the swap\r\n    swap_balances_index[_swap][_owner] = 1;\r\n    //Push the owner's balance to the swap\r\n    swap_balances[_swap].push(Balance({\r\n      owner: _owner,\r\n      amount: _supply\r\n    }));\r\n    CreateToken(_owner,_supply);\r\n  }\r\n\r\n  //Called by the factory contract, and pays out to a _party\r\n  function pay(address _party, address _swap) public onlyMaster() {\r\n    uint party_balance_index = swap_balances_index[_swap][_party];\r\n    uint party_swap_balance = swap_balances[_swap][party_balance_index].amount;\r\n    //reduces the users totals balance by the amount in that swap\r\n    user_total_balances[_party] = user_total_balances[_party].sub(party_swap_balance);\r\n    //reduces the total supply by the amount of that users in that swap\r\n    total_supply = total_supply.sub(party_swap_balance);\r\n    //sets the partys balance to zero for that specific swaps party balances\r\n    swap_balances[_swap][party_balance_index].amount = 0;\r\n  }\r\n\r\n  //Returns the users total balance (sum of tokens in all swaps the user has tokens in)\r\n  function balanceOf(address _owner) public constant returns (uint balance) { return user_total_balances[_owner]; }\r\n\r\n  //Getter for the total_supply of tokens in the contract\r\n  function totalSupply() public constant returns (uint _total_supply) { return total_supply; }\r\n\r\n\r\n\r\n  //Removes the address from the swap balances for a swap, and moves the last address in the swap into their place\r\n  function removeFromSwapBalances(address _remove, address _swap) internal {\r\n    uint last_address_index = swap_balances[_swap].length.sub(1);\r\n    address last_address = swap_balances[_swap][last_address_index].owner;\r\n    //If the address we want to remove is the final address in the swap\r\n    if (last_address != _remove) {\r\n      uint remove_index = swap_balances_index[_swap][_remove];\r\n      //Update the swap's balance index of the last address to that of the removed address index\r\n      swap_balances_index[_swap][last_address] = remove_index;\r\n      //Set the swap's Balance struct at the removed index to the Balance struct of the last address\r\n      swap_balances[_swap][remove_index] = swap_balances[_swap][last_address_index];\r\n    }\r\n    //Remove the swap_balances index for this address\r\n    delete swap_balances_index[_swap][_remove];\r\n    //Finally, decrement the swap balances length\r\n    swap_balances[_swap].length = swap_balances[_swap].length.sub(1);\r\n  }\r\n\r\n  // This is the main function to update the mappings when a transfer happens\r\n  function transferHelper(address _from, address _to, uint _amount) internal {\r\n    //Get memory copies of the swap arrays for the sender and reciever\r\n    address[] memory from_swaps = user_swaps[_from];\r\n\r\n    //Iterate over sender's swaps in reverse order until enough tokens have been transferred\r\n    for (uint i = from_swaps.length.sub(1); i > 0; i--) {\r\n      //Get the index of the sender's balance for the current swap\r\n      uint from_swap_user_index = swap_balances_index[from_swaps[i]][_from];\r\n      Balance memory from_user_bal = swap_balances[from_swaps[i]][from_swap_user_index];\r\n      //If the current swap will be entirely depleted - we remove all references to it for the sender\r\n      if (_amount >= from_user_bal.amount) {\r\n        _amount -= from_user_bal.amount;\r\n        //If this swap is to be removed, we know it is the (current) last swap in the user's user_swaps list, so we can simply decrement the length to remove it\r\n        user_swaps[_from].length = user_swaps[_from].length.sub(1);\r\n        //Remove the user swap index for this swap\r\n        delete user_swaps_index[_from][from_swaps[i]];\r\n\r\n        //If the _to address already holds tokens from this swap\r\n        if (user_swaps_index[_to][from_swaps[i]] != 0) {\r\n          //Get the index of the _to balance in this swap\r\n          uint to_balance_index = swap_balances_index[from_swaps[i]][_to];\r\n          //Add the _from tokens to _to\r\n          swap_balances[from_swaps[i]][to_balance_index].amount = swap_balances[from_swaps[i]][to_balance_index].amount.add(from_user_bal.amount);\r\n          //Remove the _from address from this swap's balance array\r\n          removeFromSwapBalances(_from, from_swaps[i]);\r\n        } \r\n        else {\r\n          //Prepare to add a new swap by assigning the swap an index for _to\r\n          if (user_swaps[_to].length == 0){\r\n            user_swaps[_to].push(address(0x0));\r\n          }\r\n\r\n          user_swaps_index[_to][from_swaps[i]] = user_swaps[_to].length;\r\n          //Add the new swap to _to\r\n          user_swaps[_to].push(from_swaps[i]);\r\n          //Give the reciever the sender's balance for this swap\r\n          swap_balances[from_swaps[i]][from_swap_user_index].owner = _to;\r\n          //Give the reciever the sender's swap balance index for this swap\r\n          swap_balances_index[from_swaps[i]][_to] = swap_balances_index[from_swaps[i]][_from];\r\n          //Remove the swap balance index from the sending party\r\n          delete swap_balances_index[from_swaps[i]][_from];\r\n        }\r\n        //If there is no more remaining to be removed, we break out of the loop\r\n        if (_amount == 0)\r\n          break;\r\n      } \r\n      else {\r\n        //The amount in this swap is more than the amount we still need to transfer\r\n        uint to_swap_balance_index = swap_balances_index[from_swaps[i]][_to];\r\n        //If the _to address already holds tokens from this swap\r\n        if (user_swaps_index[_to][from_swaps[i]] != 0) {\r\n          //Because both addresses are in this swap, and neither will be removed, we simply update both swap balances\r\n          swap_balances[from_swaps[i]][to_swap_balance_index].amount = swap_balances[from_swaps[i]][to_swap_balance_index].amount.add(_amount);\r\n        } else {\r\n          //Prepare to add a new swap by assigning the swap an index for _to\r\n          if (user_swaps[_to].length == 0){\r\n            user_swaps[_to].push(address(0x0));\r\n          }\r\n          \r\n          user_swaps_index[_to][from_swaps[i]] = user_swaps[_to].length;\r\n          //And push the new swap\r\n          user_swaps[_to].push(from_swaps[i]);\r\n          //_to is not in this swap, so we give this swap a new balance index for _to\r\n          swap_balances_index[from_swaps[i]][_to] = swap_balances[from_swaps[i]].length;\r\n          //And push a new balance for _to\r\n          swap_balances[from_swaps[i]].push(Balance({\r\n            owner: _to,\r\n            amount: _amount\r\n          }));\r\n        }\r\n        //Finally, update the _from user's swap balance\r\n        swap_balances[from_swaps[i]][from_swap_user_index].amount = swap_balances[from_swaps[i]][from_swap_user_index].amount.sub(_amount);\r\n        //Because we have transferred the last of the amount to the reciever, we break;\r\n        break;\r\n      }\r\n    }\r\n  }\r\n\r\n  /*\r\n    ERC20 compliant transfer function\r\n    @param - _to: Address to send funds to\r\n    @param - _amount: Amount of token to send\r\n    returns true for successful\r\n  */\r\n  function transfer(address _to, uint _amount) public returns (bool) {\r\n    uint balance_owner = user_total_balances[msg.sender];\r\n\r\n    if (\r\n      _to == msg.sender ||\r\n      _to == address(0) ||\r\n      _amount == 0 ||\r\n      balance_owner < _amount\r\n    ) return false;\r\n\r\n    transferHelper(msg.sender, _to, _amount);\r\n    user_total_balances[msg.sender] = user_total_balances[msg.sender].sub(_amount);\r\n    user_total_balances[_to] = user_total_balances[_to].add(_amount);\r\n    Transfer(msg.sender, _to, _amount);\r\n    return true;\r\n  }\r\n\r\n  /*\r\n    ERC20 compliant transferFrom function\r\n    @param - _from: Address to send funds from (must be allowed, see approve function)\r\n    @param - _to: Address to send funds to\r\n    @param - _amount: Amount of token to send\r\n    returns true for successful\r\n  */\r\n  function transferFrom(address _from, address _to, uint _amount) public returns (bool) {\r\n    uint balance_owner = user_total_balances[_from];\r\n    uint sender_allowed = allowed[_from][msg.sender];\r\n\r\n    if (\r\n      _to == _from ||\r\n      _to == address(0) ||\r\n      _amount == 0 ||\r\n      balance_owner < _amount ||\r\n      sender_allowed < _amount\r\n    ) return false;\r\n\r\n    transferHelper(_from, _to, _amount);\r\n    user_total_balances[_from] = user_total_balances[_from].sub(_amount);\r\n    user_total_balances[_to] = user_total_balances[_to].add(_amount);\r\n    allowed[_from][msg.sender] = allowed[_from][msg.sender].sub(_amount);\r\n    Transfer(_from, _to, _amount);\r\n    return true;\r\n  }\r\n\r\n  /*\r\n    ERC20 compliant approve function\r\n    @param - _spender: Party that msg.sender approves for transferring funds\r\n    @param - _amount: Amount of token to approve for sending\r\n    returns true for successful\r\n  */\r\n  function approve(address _spender, uint _amount) public returns (bool) {\r\n    allowed[msg.sender][_spender] = _amount;\r\n    Approval(msg.sender, _spender, _amount);\r\n    return true;\r\n  }\r\n\r\n  //Returns the length of the balances array for a swap\r\n  function addressCount(address _swap) public constant returns (uint) { return swap_balances[_swap].length; }\r\n\r\n  //Returns the address associated with a particular index in a particular swap\r\n  function getHolderByIndex(uint _ind, address _swap) public constant returns (address) { return swap_balances[_swap][_ind].owner; }\r\n\r\n  //Returns the balance associated with a particular index in a particular swap\r\n  function getBalanceByIndex(uint _ind, address _swap) public constant returns (uint) { return swap_balances[_swap][_ind].amount; }\r\n\r\n  //Returns the index associated with the _owner address in a particular swap\r\n  function getIndexByAddress(address _owner, address _swap) public constant returns (uint) { return swap_balances_index[_swap][_owner]; }\r\n\r\n  //Returns the allowed amount _spender can spend of _owner's balance\r\n  function allowance(address _owner, address _spender) public constant returns (uint) { return allowed[_owner][_spender]; }\r\n}\r\n",
  "sourcePath": "C:\\company\\code\\drct_standard\\contracts\\DRCT_Token.sol",
  "compiler": {
    "name": "solc",
    "version": "0.4.19+commit.c4cbbb05.Emscripten.clang"
  },
  "schemaVersion": "1.0.1",
  "updatedAt": "2018-04-03T18:51:52.959Z"
}