{
  "contractName": "Exchange",
  "abi": [
    {
      "constant": true,
      "inputs": [
        {
          "name": "",
          "type": "uint256"
        }
      ],
      "name": "openBooks",
      "outputs": [
        {
          "name": "",
          "type": "address"
        }
      ],
      "payable": false,
      "stateMutability": "view",
      "type": "function"
    },
    {
      "constant": true,
      "inputs": [],
      "name": "owner",
      "outputs": [
        {
          "name": "",
          "type": "address"
        }
      ],
      "payable": false,
      "stateMutability": "view",
      "type": "function"
    },
    {
      "constant": true,
      "inputs": [
        {
          "name": "",
          "type": "uint256"
        }
      ],
      "name": "orders",
      "outputs": [
        {
          "name": "maker",
          "type": "address"
        },
        {
          "name": "price",
          "type": "uint256"
        },
        {
          "name": "amount",
          "type": "uint256"
        },
        {
          "name": "asset",
          "type": "address"
        }
      ],
      "payable": false,
      "stateMutability": "view",
      "type": "function"
    },
    {
      "constant": true,
      "inputs": [
        {
          "name": "",
          "type": "address"
        },
        {
          "name": "",
          "type": "uint256"
        }
      ],
      "name": "forSale",
      "outputs": [
        {
          "name": "",
          "type": "uint256"
        }
      ],
      "payable": false,
      "stateMutability": "view",
      "type": "function"
    },
    {
      "inputs": [],
      "payable": false,
      "stateMutability": "nonpayable",
      "type": "constructor"
    },
    {
      "anonymous": false,
      "inputs": [
        {
          "indexed": false,
          "name": "_token",
          "type": "address"
        },
        {
          "indexed": false,
          "name": "_amount",
          "type": "uint256"
        },
        {
          "indexed": false,
          "name": "_price",
          "type": "uint256"
        }
      ],
      "name": "OrderPlaced",
      "type": "event"
    },
    {
      "anonymous": false,
      "inputs": [
        {
          "indexed": false,
          "name": "_token",
          "type": "address"
        },
        {
          "indexed": false,
          "name": "_amount",
          "type": "uint256"
        },
        {
          "indexed": false,
          "name": "_price",
          "type": "uint256"
        }
      ],
      "name": "Sale",
      "type": "event"
    },
    {
      "anonymous": false,
      "inputs": [
        {
          "indexed": false,
          "name": "_token",
          "type": "address"
        },
        {
          "indexed": false,
          "name": "_amount",
          "type": "uint256"
        },
        {
          "indexed": false,
          "name": "_price",
          "type": "uint256"
        }
      ],
      "name": "OrderRemoved",
      "type": "event"
    },
    {
      "constant": false,
      "inputs": [
        {
          "name": "_tokenadd",
          "type": "address"
        },
        {
          "name": "_amount",
          "type": "uint256"
        },
        {
          "name": "_price",
          "type": "uint256"
        }
      ],
      "name": "list",
      "outputs": [],
      "payable": false,
      "stateMutability": "nonpayable",
      "type": "function"
    },
    {
      "constant": false,
      "inputs": [
        {
          "name": "_orderId",
          "type": "uint256"
        }
      ],
      "name": "unlist",
      "outputs": [],
      "payable": false,
      "stateMutability": "nonpayable",
      "type": "function"
    },
    {
      "constant": false,
      "inputs": [
        {
          "name": "_orderId",
          "type": "uint256"
        }
      ],
      "name": "buy",
      "outputs": [],
      "payable": true,
      "stateMutability": "payable",
      "type": "function"
    },
    {
      "constant": true,
      "inputs": [
        {
          "name": "_orderId",
          "type": "uint256"
        }
      ],
      "name": "getOrder",
      "outputs": [
        {
          "name": "",
          "type": "address"
        },
        {
          "name": "",
          "type": "uint256"
        },
        {
          "name": "",
          "type": "uint256"
        }
      ],
      "payable": false,
      "stateMutability": "view",
      "type": "function"
    },
    {
      "constant": false,
      "inputs": [
        {
          "name": "_owner",
          "type": "address"
        }
      ],
      "name": "setOwner",
      "outputs": [],
      "payable": false,
      "stateMutability": "nonpayable",
      "type": "function"
    },
    {
      "constant": false,
      "inputs": [
        {
          "name": "_address",
          "type": "address"
        },
        {
          "name": "_motion",
          "type": "bool"
        }
      ],
      "name": "blacklistParty",
      "outputs": [],
      "payable": false,
      "stateMutability": "nonpayable",
      "type": "function"
    },
    {
      "constant": true,
      "inputs": [
        {
          "name": "_address",
          "type": "address"
        }
      ],
      "name": "isBlacklist",
      "outputs": [
        {
          "name": "",
          "type": "bool"
        }
      ],
      "payable": false,
      "stateMutability": "view",
      "type": "function"
    },
    {
      "constant": true,
      "inputs": [
        {
          "name": "_token",
          "type": "address"
        }
      ],
      "name": "getOrderCount",
      "outputs": [
        {
          "name": "",
          "type": "uint256"
        }
      ],
      "payable": false,
      "stateMutability": "view",
      "type": "function"
    },
    {
      "constant": true,
      "inputs": [],
      "name": "getBookCount",
      "outputs": [
        {
          "name": "",
          "type": "uint256"
        }
      ],
      "payable": false,
      "stateMutability": "view",
      "type": "function"
    },
    {
      "constant": true,
      "inputs": [
        {
          "name": "_token",
          "type": "address"
        }
      ],
      "name": "getOrders",
      "outputs": [
        {
          "name": "",
          "type": "uint256[]"
        }
      ],
      "payable": false,
      "stateMutability": "view",
      "type": "function"
    },
    {
      "constant": false,
      "inputs": [],
      "name": "withdraw",
      "outputs": [],
      "payable": false,
      "stateMutability": "nonpayable",
      "type": "function"
    }
  ],
  "bytecode": "0x606060405234156200001057600080fd5b336000806101000a81548173ffffffffffffffffffffffffffffffffffffffff021916908373ffffffffffffffffffffffffffffffffffffffff16021790555060048054806001018281620000669190620000c3565b9160005260206000209001600080909190916101000a81548173ffffffffffffffffffffffffffffffffffffffff021916908373ffffffffffffffffffffffffffffffffffffffff1602179055505060006009819055506200011a565b815481835581811511620000ed57818360005260206000209182019101620000ec9190620000f2565b5b505050565b6200011791905b8082111562000113576000816000905550600101620000f9565b5090565b90565b611fc8806200012a6000396000f3006060604052600436106100db576000357c0100000000000000000000000000000000000000000000000000000000900463ffffffff168063093376fe146100e057806313af40351461016e578063333e99db146101a75780633ccfd60b146101f85780634c3b67601461020d5780635ac5ba71146102705780638da5cb5b146102b4578063a85c38ef14610309578063bf5a4dd3146103ad578063d09ef241146103d0578063d73e0c8914610441578063d8b867531461046a578063d96a094a146104b7578063dda342bb146104cf578063eb3056e01461051a575b600080fd5b34156100eb57600080fd5b610117600480803573ffffffffffffffffffffffffffffffffffffffff16906020019091905050610570565b6040518080602001828103825283818151815260200191508051906020019060200280838360005b8381101561015a57808201518184015260208101905061013f565b505050509050019250505060405180910390f35b341561017957600080fd5b6101a5600480803573ffffffffffffffffffffffffffffffffffffffff1690602001909190505061060d565b005b34156101b257600080fd5b6101de600480803573ffffffffffffffffffffffffffffffffffffffff169060200190919050506106ab565b604051808215151515815260200191505060405180910390f35b341561020357600080fd5b61020b610701565b005b341561021857600080fd5b61022e60048080359060200190919050506107d6565b604051808273ffffffffffffffffffffffffffffffffffffffff1673ffffffffffffffffffffffffffffffffffffffff16815260200191505060405180910390f35b341561027b57600080fd5b6102b2600480803573ffffffffffffffffffffffffffffffffffffffff169060200190919080351515906020019091905050610815565b005b34156102bf57600080fd5b6102c76108cb565b604051808273ffffffffffffffffffffffffffffffffffffffff1673ffffffffffffffffffffffffffffffffffffffff16815260200191505060405180910390f35b341561031457600080fd5b61032a60048080359060200190919050506108f0565b604051808573ffffffffffffffffffffffffffffffffffffffff1673ffffffffffffffffffffffffffffffffffffffff1681526020018481526020018381526020018273ffffffffffffffffffffffffffffffffffffffff1673ffffffffffffffffffffffffffffffffffffffff16815260200194505050505060405180910390f35b34156103b857600080fd5b6103ce6004808035906020019091905050610960565b005b34156103db57600080fd5b6103f16004808035906020019091905050610c94565b604051808473ffffffffffffffffffffffffffffffffffffffff1673ffffffffffffffffffffffffffffffffffffffff168152602001838152602001828152602001935050505060405180910390f35b341561044c57600080fd5b610454610cec565b6040518082815260200191505060405180910390f35b341561047557600080fd5b6104a1600480803573ffffffffffffffffffffffffffffffffffffffff16906020019091905050610cf9565b6040518082815260200191505060405180910390f35b6104cd6004808035906020019091905050610d45565b005b34156104da57600080fd5b610518600480803573ffffffffffffffffffffffffffffffffffffffff16906020019091908035906020019091908035906020019091905050611081565b005b341561052557600080fd5b61055a600480803573ffffffffffffffffffffffffffffffffffffffff169060200190919080359060200190919050506116b9565b6040518082815260200191505060405180910390f35b610578611e5e565b600260008373ffffffffffffffffffffffffffffffffffffffff1673ffffffffffffffffffffffffffffffffffffffff16815260200190815260200160002080548060200260200160405190810160405280929190818152602001828054801561060157602002820191906000526020600020905b8154815260200190600101908083116105ed575b50505050509050919050565b6000809054906101000a900473ffffffffffffffffffffffffffffffffffffffff1673ffffffffffffffffffffffffffffffffffffffff163373ffffffffffffffffffffffffffffffffffffffff1614151561066857600080fd5b806000806101000a81548173ffffffffffffffffffffffffffffffffffffffff021916908373ffffffffffffffffffffffffffffffffffffffff16021790555050565b6000600860008373ffffffffffffffffffffffffffffffffffffffff1673ffffffffffffffffffffffffffffffffffffffff16815260200190815260200160002060009054906101000a900460ff169050919050565b6000809054906101000a900473ffffffffffffffffffffffffffffffffffffffff1673ffffffffffffffffffffffffffffffffffffffff163373ffffffffffffffffffffffffffffffffffffffff1614151561075c57600080fd5b6000809054906101000a900473ffffffffffffffffffffffffffffffffffffffff1673ffffffffffffffffffffffffffffffffffffffff166108fc3073ffffffffffffffffffffffffffffffffffffffff16319081150290604051600060405180830381858888f1935050505015156107d457600080fd5b565b6004818154811015156107e557fe5b90600052602060002090016000915054906101000a900473ffffffffffffffffffffffffffffffffffffffff1681565b6000809054906101000a900473ffffffffffffffffffffffffffffffffffffffff1673ffffffffffffffffffffffffffffffffffffffff163373ffffffffffffffffffffffffffffffffffffffff1614151561087057600080fd5b80600860008473ffffffffffffffffffffffffffffffffffffffff1673ffffffffffffffffffffffffffffffffffffffff16815260200190815260200160002060006101000a81548160ff0219169083151502179055505050565b6000809054906101000a900473ffffffffffffffffffffffffffffffffffffffff1681565b60016020528060005260406000206000915090508060000160009054906101000a900473ffffffffffffffffffffffffffffffffffffffff16908060010154908060020154908060030160009054906101000a900473ffffffffffffffffffffffffffffffffffffffff16905084565b610968611e72565b600080600360008581526020019081526020016000205411151561098b57600080fd5b60016000848152602001908152602001600020608060405190810160405290816000820160009054906101000a900473ffffffffffffffffffffffffffffffffffffffff1673ffffffffffffffffffffffffffffffffffffffff1673ffffffffffffffffffffffffffffffffffffffff16815260200160018201548152602001600282015481526020016003820160009054906101000a900473ffffffffffffffffffffffffffffffffffffffff1673ffffffffffffffffffffffffffffffffffffffff1673ffffffffffffffffffffffffffffffffffffffff16815250509150816000015173ffffffffffffffffffffffffffffffffffffffff163373ffffffffffffffffffffffffffffffffffffffff161480610af657506000809054906101000a900473ffffffffffffffffffffffffffffffffffffffff1673ffffffffffffffffffffffffffffffffffffffff163373ffffffffffffffffffffffffffffffffffffffff16145b1515610b0157600080fd5b610b0a836116ea565b816060015190508073ffffffffffffffffffffffffffffffffffffffff166323b872dd303385604001516000604051602001526040518463ffffffff167c0100000000000000000000000000000000000000000000000000000000028152600401808473ffffffffffffffffffffffffffffffffffffffff1673ffffffffffffffffffffffffffffffffffffffff1681526020018373ffffffffffffffffffffffffffffffffffffffff1673ffffffffffffffffffffffffffffffffffffffff1681526020018281526020019350505050602060405180830381600087803b1515610bf457600080fd5b6102c65a03f11515610c0557600080fd5b50505060405180519050507fd6a299bc1e8bed34430b109db9f16b0f9d75b8c9a36393225f6cd2b3aab54b79826060015183604001518460200151604051808473ffffffffffffffffffffffffffffffffffffffff1673ffffffffffffffffffffffffffffffffffffffff168152602001838152602001828152602001935050505060405180910390a1505050565b6000806000806001600086815260200190815260200160002090508060000160009054906101000a900473ffffffffffffffffffffffffffffffffffffffff1681600101548260020154935093509350509193909250565b6000600480549050905090565b6000600260008373ffffffffffffffffffffffffffffffffffffffff1673ffffffffffffffffffffffffffffffffffffffff168152602001908152602001600020805490509050919050565b610d4d611e72565b60008060016000858152602001908152602001600020608060405190810160405290816000820160009054906101000a900473ffffffffffffffffffffffffffffffffffffffff1673ffffffffffffffffffffffffffffffffffffffff1673ffffffffffffffffffffffffffffffffffffffff16815260200160018201548152602001600282015481526020016003820160009054906101000a900473ffffffffffffffffffffffffffffffffffffffff1673ffffffffffffffffffffffffffffffffffffffff1673ffffffffffffffffffffffffffffffffffffffff16815250509250826020015134141515610e4357600080fd5b60001515600860003373ffffffffffffffffffffffffffffffffffffffff1673ffffffffffffffffffffffffffffffffffffffff16815260200190815260200160002060009054906101000a900460ff161515141515610ea257600080fd5b82600001519150826060015190508073ffffffffffffffffffffffffffffffffffffffff166323b872dd303386604001516000604051602001526040518463ffffffff167c0100000000000000000000000000000000000000000000000000000000028152600401808473ffffffffffffffffffffffffffffffffffffffff1673ffffffffffffffffffffffffffffffffffffffff1681526020018373ffffffffffffffffffffffffffffffffffffffff1673ffffffffffffffffffffffffffffffffffffffff1681526020018281526020019350505050602060405180830381600087803b1515610f9357600080fd5b6102c65a03f11515610fa457600080fd5b5050506040518051905050610fb8846116ea565b8173ffffffffffffffffffffffffffffffffffffffff166108fc84602001519081150290604051600060405180830381858888f193505050501515610ffc57600080fd5b7f0f4a9c70987615d71a1085cae3c6fb0c2855f81a5ec62cb7ee3136d5407e357c836060015184604001518560200151604051808473ffffffffffffffffffffffffffffffffffffffff1673ffffffffffffffffffffffffffffffffffffffff168152602001838152602001828152602001935050505060405180910390a150505050565b6000801515600860003373ffffffffffffffffffffffffffffffffffffffff1673ffffffffffffffffffffffffffffffffffffffff16815260200190815260200160002060009054906101000a900460ff1615151415156110e157600080fd5b6000821115156110f057600080fd5b8390508073ffffffffffffffffffffffffffffffffffffffff166323b872dd3330866000604051602001526040518463ffffffff167c0100000000000000000000000000000000000000000000000000000000028152600401808473ffffffffffffffffffffffffffffffffffffffff1673ffffffffffffffffffffffffffffffffffffffff1681526020018373ffffffffffffffffffffffffffffffffffffffff1673ffffffffffffffffffffffffffffffffffffffff1681526020018281526020019350505050602060405180830381600087803b15156111d257600080fd5b6102c65a03f115156111e357600080fd5b5050506040518051905015156111f857600080fd5b6000600260008673ffffffffffffffffffffffffffffffffffffffff1673ffffffffffffffffffffffffffffffffffffffff1681526020019081526020016000208054905014156112aa57600260008573ffffffffffffffffffffffffffffffffffffffff1673ffffffffffffffffffffffffffffffffffffffff16815260200190815260200160002080548060010182816112949190611ec7565b9160005260206000209001600080909190915055505b600260008573ffffffffffffffffffffffffffffffffffffffff1673ffffffffffffffffffffffffffffffffffffffff1681526020019081526020016000208054905060036000600954815260200190815260200160002081905550600260008573ffffffffffffffffffffffffffffffffffffffff1673ffffffffffffffffffffffffffffffffffffffff16815260200190815260200160002080548060010182816113579190611ec7565b91600052602060002090016000600954909190915055506080604051908101604052803373ffffffffffffffffffffffffffffffffffffffff1681526020018381526020018481526020018573ffffffffffffffffffffffffffffffffffffffff1681525060016000600954815260200190815260200160002060008201518160000160006101000a81548173ffffffffffffffffffffffffffffffffffffffff021916908373ffffffffffffffffffffffffffffffffffffffff160217905550602082015181600101556040820151816002015560608201518160030160006101000a81548173ffffffffffffffffffffffffffffffffffffffff021916908373ffffffffffffffffffffffffffffffffffffffff1602179055509050507f03f23a9b67af957c8605376a4f515b53f102d4ad7f4da099bd1aff8e3ee13fec848484604051808473ffffffffffffffffffffffffffffffffffffffff1673ffffffffffffffffffffffffffffffffffffffff168152602001838152602001828152602001935050505060405180910390a16000600560008673ffffffffffffffffffffffffffffffffffffffff1673ffffffffffffffffffffffffffffffffffffffff1681526020019081526020016000205414156115de57600480549050600560008673ffffffffffffffffffffffffffffffffffffffff1673ffffffffffffffffffffffffffffffffffffffff168152602001908152602001600020819055506004805480600101828161158e9190611ef3565b9160005260206000209001600086909190916101000a81548173ffffffffffffffffffffffffffffffffffffffff021916908373ffffffffffffffffffffffffffffffffffffffff160217905550505b600660003373ffffffffffffffffffffffffffffffffffffffff1673ffffffffffffffffffffffffffffffffffffffff1681526020019081526020016000208054905060076000600954815260200190815260200160002081905550600660003373ffffffffffffffffffffffffffffffffffffffff1673ffffffffffffffffffffffffffffffffffffffff168152602001908152602001600020805480600101828161168b9190611ec7565b9160005260206000209001600060095490919091505550600160096000828254019250508190555050505050565b6002602052816000526040600020818154811015156116d457fe5b9060005260206000209001600091509150505481565b6116f2611e72565b60008060008060016000878152602001908152602001600020608060405190810160405290816000820160009054906101000a900473ffffffffffffffffffffffffffffffffffffffff1673ffffffffffffffffffffffffffffffffffffffff1673ffffffffffffffffffffffffffffffffffffffff16815260200160018201548152602001600282015481526020016003820160009054906101000a900473ffffffffffffffffffffffffffffffffffffffff1673ffffffffffffffffffffffffffffffffffffffff1673ffffffffffffffffffffffffffffffffffffffff1681525050945060036000878152602001908152602001600020549350611849600160026000886060015173ffffffffffffffffffffffffffffffffffffffff1673ffffffffffffffffffffffffffffffffffffffff16815260200190815260200160002080549050611e4590919063ffffffff16565b925060026000866060015173ffffffffffffffffffffffffffffffffffffffff1673ffffffffffffffffffffffffffffffffffffffff1681526020019081526020016000208381548110151561189b57fe5b90600052602060002090015491508160026000876060015173ffffffffffffffffffffffffffffffffffffffff1673ffffffffffffffffffffffffffffffffffffffff168152602001908152602001600020858154811015156118fa57fe5b90600052602060002090018190555083600360008481526020019081526020016000208190555060026000866060015173ffffffffffffffffffffffffffffffffffffffff1673ffffffffffffffffffffffffffffffffffffffff1681526020019081526020016000208054809190600190036119779190611f1f565b5060006003600088815260200190815260200160002081905550608060405190810160405280600073ffffffffffffffffffffffffffffffffffffffff1681526020016000815260200160008152602001600073ffffffffffffffffffffffffffffffffffffffff168152506001600088815260200190815260200160002060008201518160000160006101000a81548173ffffffffffffffffffffffffffffffffffffffff021916908373ffffffffffffffffffffffffffffffffffffffff160217905550602082015181600101556040820151816002015560608201518160030160006101000a81548173ffffffffffffffffffffffffffffffffffffffff021916908373ffffffffffffffffffffffffffffffffffffffff160217905550905050600160026000876060015173ffffffffffffffffffffffffffffffffffffffff1673ffffffffffffffffffffffffffffffffffffffff168152602001908152602001600020805490501415611c855760056000866060015173ffffffffffffffffffffffffffffffffffffffff1673ffffffffffffffffffffffffffffffffffffffff168152602001908152602001600020549350611b496001600480549050611e4590919063ffffffff16565b9250600483815481101515611b5a57fe5b906000526020600020900160009054906101000a900473ffffffffffffffffffffffffffffffffffffffff16905080600485815481101515611b9857fe5b906000526020600020900160006101000a81548173ffffffffffffffffffffffffffffffffffffffff021916908373ffffffffffffffffffffffffffffffffffffffff16021790555083600560008373ffffffffffffffffffffffffffffffffffffffff1673ffffffffffffffffffffffffffffffffffffffff168152602001908152602001600020819055506004805480919060019003611c3a9190611f4b565b50600060056000876060015173ffffffffffffffffffffffffffffffffffffffff1673ffffffffffffffffffffffffffffffffffffffff168152602001908152602001600020819055505b60076000878152602001908152602001600020549350611cf5600160066000886000015173ffffffffffffffffffffffffffffffffffffffff1673ffffffffffffffffffffffffffffffffffffffff16815260200190815260200160002080549050611e4590919063ffffffff16565b925060066000866000015173ffffffffffffffffffffffffffffffffffffffff1673ffffffffffffffffffffffffffffffffffffffff16815260200190815260200160002083815481101515611d4757fe5b90600052602060002090015491508160066000876000015173ffffffffffffffffffffffffffffffffffffffff1673ffffffffffffffffffffffffffffffffffffffff16815260200190815260200160002085815481101515611da657fe5b90600052602060002090018190555083600760008481526020019081526020016000208190555060066000866000015173ffffffffffffffffffffffffffffffffffffffff1673ffffffffffffffffffffffffffffffffffffffff168152602001908152602001600020805480919060019003611e239190611f1f565b5060006007600088815260200190815260200160002081905550505050505050565b6000828211151515611e5357fe5b818303905092915050565b602060405190810160405280600081525090565b608060405190810160405280600073ffffffffffffffffffffffffffffffffffffffff1681526020016000815260200160008152602001600073ffffffffffffffffffffffffffffffffffffffff1681525090565b815481835581811511611eee57818360005260206000209182019101611eed9190611f77565b5b505050565b815481835581811511611f1a57818360005260206000209182019101611f199190611f77565b5b505050565b815481835581811511611f4657818360005260206000209182019101611f459190611f77565b5b505050565b815481835581811511611f7257818360005260206000209182019101611f719190611f77565b5b505050565b611f9991905b80821115611f95576000816000905550600101611f7d565b5090565b905600a165627a7a723058208b52323f3839df9ccfc507337b3e41361d96c70b525f6adb86f372e961a180850029",
  "source": "pragma solidity ^0.4.18;\r\n\r\n import \"./libraries/SafeMath.sol\";\r\n import \"./interfaces/ERC20_Interface.sol\";\r\n\r\n/**\r\n*@To do:\r\nAllow partial fills\r\n*/\r\ncontract Exchange{\r\n    using SafeMath for uint256;\r\n\r\n    /***VARIABLES***/\r\n    address public owner; //The owner of the market contract\r\n    \r\n    /***DATA***/\r\n    //This is the base data structure for an order (the maker of the order and the price)\r\n    struct Order {\r\n        address maker;// the placer of the order\r\n        uint price;// The price in wei\r\n        uint amount;\r\n        address asset;\r\n    }\r\n\r\n    //Maps an OrderID to the list of orders\r\n    mapping(uint256 => Order) public orders;\r\n    //An mapping of a token address to the orderID's\r\n    mapping(address =>  uint256[]) public forSale;\r\n    //Index telling where a specific tokenId is in the forSale array\r\n    mapping(uint256 => uint256) forSaleIndex;\r\n    //Index telling where a specific tokenId is in the forSale array\r\n    address[] public openBooks;\r\n    //mapping of address to position in openBooks\r\n    mapping (address => uint) openBookIndex;\r\n    //mapping of user to their orders\r\n    mapping(address => uint[]) userOrders;\r\n    //mapping from orderId to userOrder position\r\n    mapping(uint => uint) userOrderIndex;\r\n    //A list of the blacklisted addresses\r\n    mapping(address => bool) blacklist;\r\n    //order_nonce;\r\n    uint order_nonce;\r\n\r\n    /***MODIFIERS***/\r\n    /// @dev Access modifier for Owner functionality\r\n    modifier onlyOwner() {\r\n        require(msg.sender == owner);\r\n        _;\r\n    }\r\n\r\n\r\n    /***EVENTS***/\r\n    event OrderPlaced(address _token, uint256 _amount, uint256 _price);\r\n    event Sale(address _token, uint256 _amount, uint256 _price);\r\n    event OrderRemoved(address _token, uint256 _amount, uint256 _price);\r\n\r\n    /***FUNCTIONS***/\r\n    /*\r\n    *@dev the constructor argument to set the owner and initialize the array.\r\n    */\r\n    function Exchange() public{\r\n        owner = msg.sender;\r\n        openBooks.push(address(0));\r\n        order_nonce = 0;\r\n    }\r\n\r\n    /*\r\n    *@dev list allows a party to place a photo on the orderbook\r\n    *@param _tokenId uint256 ID of photo\r\n    *@param _price uint256 price of photo in wei\r\n    */\r\n    function list(address _tokenadd, uint256 _amount, uint256 _price) external {\r\n        require(blacklist[msg.sender] == false);\r\n        require(_price > 0);\r\n        ERC20_Interface token = ERC20_Interface(_tokenadd);\r\n        require(token.transferFrom(msg.sender,address(this),_amount));\r\n        if(forSale[_tokenadd].length == 0){\r\n            forSale[_tokenadd].push(0);\r\n            }\r\n        forSaleIndex[order_nonce] = forSale[_tokenadd].length;\r\n        forSale[_tokenadd].push(order_nonce);\r\n        orders[order_nonce] = Order({\r\n            maker: msg.sender,\r\n            price: _price,\r\n            amount:_amount,\r\n            asset: _tokenadd\r\n        });\r\n        OrderPlaced(_tokenadd,_amount,_price);\r\n        if(openBookIndex[_tokenadd] == 0 ){    \r\n            openBookIndex[_tokenadd] = openBooks.length;\r\n            openBooks.push(_tokenadd);\r\n        }\r\n        userOrderIndex[order_nonce] = userOrders[msg.sender].length;\r\n        userOrders[msg.sender].push(order_nonce);\r\n        order_nonce += 1;\r\n    }\r\n    /**\r\n    *@dev unlist allows a party to remove their order from the orderbook\r\n    *@param _tokenId uint256 ID of order\r\n    */\r\n    function unlist(uint256 _orderId) external{\r\n        require(forSaleIndex[_orderId] > 0);\r\n        Order memory _order = orders[_orderId];\r\n        require(msg.sender== _order.maker || msg.sender == owner);\r\n        unLister(_orderId);\r\n        ERC20_Interface token = ERC20_Interface(_order.asset);\r\n        token.transferFrom(address(this),msg.sender,_order.amount);\r\n        OrderRemoved(_order.asset,_order.amount,_order.price);\r\n    }\r\n\r\n    /**\r\n    *@dev buy allows a party to fill an order\r\n    *@param _tokenId uint256 ID of order\r\n    */\r\n    function buy(uint256 _orderId) external payable {\r\n        Order memory _order = orders[_orderId];\r\n        require(msg.value == _order.price);\r\n        require(blacklist[msg.sender] == false);\r\n        address maker = _order.maker;\r\n        ERC20_Interface token = ERC20_Interface(_order.asset);\r\n        token.transferFrom(address(this),msg.sender, _order.amount);\r\n        unLister(_orderId);\r\n        maker.transfer(_order.price);\r\n        Sale(_order.asset,_order.amount,_order.price);\r\n    }\r\n\r\n    /*\r\n    *@dev getOrder lists the price,amount, and maker of a specific token for a sale\r\n    *@param _tokenId uint256 ID of order\r\n    *@return address of the party selling\r\n    *@return uint of the price of the sale (in wei)\r\n    */\r\n    function getOrder(uint256 _orderId) external view returns(address,uint,uint){\r\n        Order storage _order = orders[_orderId];\r\n        return (_order.maker,_order.price,_order.amount);\r\n    }\r\n\r\n    /*\r\n    *@dev allows the owner to change who the owner is\r\n    *@param _owner is the address of the new owner\r\n    */\r\n    function setOwner(address _owner) public onlyOwner() {\r\n        owner = _owner;\r\n    }\r\n\r\n    /*\r\n    *@dev Allows the owner to blacklist addresses from using this exchange\r\n    *@param _address the address of the party to blacklist\r\n    *@param _motion true or false depending on if blacklisting or not\r\n    *@Note - This allows the owner to stop a malicious party from spamming the orderbook\r\n    */\r\n    function blacklistParty(address _address, bool _motion) public onlyOwner() {\r\n        blacklist[_address] = _motion;\r\n    }\r\n\r\n    /*\r\n    *@dev Allows parties to see if one is blacklisted\r\n    *@param _address the address of the party to blacklist\r\n    *@return bool, true for is blacklisted\r\n    */\r\n    function isBlacklist(address _address) public view returns(bool) {\r\n        return blacklist[_address];\r\n    }\r\n\r\n    /*\r\n    *@dev getOrderCount allows parties to query how many orders are on the book\r\n    *@return _uint of the number of orders in the orderbook\r\n    */\r\n    function getOrderCount(address _token) public constant returns(uint) {\r\n        return forSale[_token].length;\r\n    }\r\n\r\n\r\n    /*\r\n    *@dev Gets number of open orderbooks\r\n    *@return _uint of the number of tokens with open orders\r\n    */\r\n    function getBookCount() public constant returns(uint) {\r\n        return openBooks.length;\r\n    }\r\n\r\n        /*\r\n    *@dev getOrderCount allows parties to query how many orders are on the book\r\n    *@return _uint of the number of orders in the orderbook\r\n    */\r\n    function getOrders(address _token) public constant returns(uint[]) {\r\n        return forSale[_token];\r\n    }\r\n\r\n\r\n    /*\r\n    *@dev allows owner to withdraw funds\r\n    */\r\n    function withdraw() public onlyOwner(){\r\n        owner.transfer(this.balance);\r\n    }\r\n\r\n\r\n    /***INTERNAL FUNCTIONS***/\r\n    /*\r\n    *@dev An internal function to update mappings when an order is removed from the book\r\n    *@param _tokenId uint256 ID of order\r\n    */\r\n    function unLister(uint256 _orderId) internal{\r\n        Order memory _order = orders[_orderId];\r\n\r\n        uint256 tokenIndex = forSaleIndex[_orderId];\r\n        uint256 lastTokenIndex = forSale[_order.asset].length.sub(1);\r\n        uint256 lastToken = forSale[_order.asset][lastTokenIndex];\r\n        forSale[_order.asset][tokenIndex] = lastToken;\r\n        forSaleIndex[lastToken] = tokenIndex;\r\n        forSale[_order.asset].length--;\r\n        forSaleIndex[_orderId] = 0;\r\n        orders[_orderId] = Order({\r\n            maker: address(0),\r\n            price: 0,\r\n            amount:0,\r\n            asset: address(0)\r\n        });\r\n        if(forSale[_order.asset].length == 1){\r\n            tokenIndex = openBookIndex[_order.asset];\r\n            lastTokenIndex = openBooks.length.sub(1);\r\n            address lastAdd = openBooks[lastTokenIndex];\r\n            openBooks[tokenIndex] = lastAdd;\r\n            openBookIndex[lastAdd] = tokenIndex;\r\n            openBooks.length--;\r\n            openBookIndex[_order.asset] = 0;\r\n        }\r\n        tokenIndex = userOrderIndex[_orderId];\r\n        lastTokenIndex = userOrders[_order.maker].length.sub(1);\r\n        lastToken = userOrders[_order.maker][lastTokenIndex];\r\n        userOrders[_order.maker][tokenIndex] = lastToken;\r\n        userOrderIndex[lastToken] = tokenIndex;\r\n        userOrders[_order.maker].length--;\r\n        userOrderIndex[_orderId] = 0;\r\n    }\r\n}",
  "sourcePath": "C:\\company\\code\\drct_standard\\contracts\\Exchange.sol",
  "compiler": {
    "name": "solc",
    "version": "0.4.19+commit.c4cbbb05.Emscripten.clang"
  },
  "schemaVersion": "1.0.1",
  "updatedAt": "2018-04-18T00:42:26.896Z"
}