{
  "contractName": "Exchange",
  "abi": [
    {
      "constant": true,
      "inputs": [
        {
          "name": "",
          "type": "uint256"
        }
      ],
      "name": "openBooks",
      "outputs": [
        {
          "name": "",
          "type": "address"
        }
      ],
      "payable": false,
      "stateMutability": "view",
      "type": "function"
    },
    {
      "constant": true,
      "inputs": [],
      "name": "owner",
      "outputs": [
        {
          "name": "",
          "type": "address"
        }
      ],
      "payable": false,
      "stateMutability": "view",
      "type": "function"
    },
    {
      "constant": true,
      "inputs": [
        {
          "name": "",
          "type": "uint256"
        }
      ],
      "name": "orders",
      "outputs": [
        {
          "name": "maker",
          "type": "address"
        },
        {
          "name": "price",
          "type": "uint256"
        },
        {
          "name": "amount",
          "type": "uint256"
        },
        {
          "name": "asset",
          "type": "address"
        }
      ],
      "payable": false,
      "stateMutability": "view",
      "type": "function"
    },
    {
      "constant": true,
      "inputs": [
        {
          "name": "",
          "type": "address"
        },
        {
          "name": "",
          "type": "uint256"
        }
      ],
      "name": "forSale",
      "outputs": [
        {
          "name": "",
          "type": "uint256"
        }
      ],
      "payable": false,
      "stateMutability": "view",
      "type": "function"
    },
    {
      "inputs": [],
      "payable": false,
      "stateMutability": "nonpayable",
      "type": "constructor"
    },
    {
      "payable": true,
      "stateMutability": "payable",
      "type": "fallback"
    },
    {
      "anonymous": false,
      "inputs": [
        {
          "indexed": false,
          "name": "_token",
          "type": "address"
        },
        {
          "indexed": false,
          "name": "_amount",
          "type": "uint256"
        },
        {
          "indexed": false,
          "name": "_price",
          "type": "uint256"
        }
      ],
      "name": "OrderPlaced",
      "type": "event"
    },
    {
      "anonymous": false,
      "inputs": [
        {
          "indexed": false,
          "name": "_token",
          "type": "address"
        },
        {
          "indexed": false,
          "name": "_amount",
          "type": "uint256"
        },
        {
          "indexed": false,
          "name": "_price",
          "type": "uint256"
        }
      ],
      "name": "Sale",
      "type": "event"
    },
    {
      "anonymous": false,
      "inputs": [
        {
          "indexed": false,
          "name": "_token",
          "type": "address"
        },
        {
          "indexed": false,
          "name": "_amount",
          "type": "uint256"
        },
        {
          "indexed": false,
          "name": "_price",
          "type": "uint256"
        }
      ],
      "name": "OrderRemoved",
      "type": "event"
    },
    {
      "constant": false,
      "inputs": [
        {
          "name": "_tokenadd",
          "type": "address"
        },
        {
          "name": "_amount",
          "type": "uint256"
        },
        {
          "name": "_price",
          "type": "uint256"
        }
      ],
      "name": "list",
      "outputs": [],
      "payable": false,
      "stateMutability": "nonpayable",
      "type": "function"
    },
    {
      "constant": false,
      "inputs": [
        {
          "name": "_orderId",
          "type": "uint256"
        }
      ],
      "name": "unlist",
      "outputs": [],
      "payable": false,
      "stateMutability": "nonpayable",
      "type": "function"
    },
    {
      "constant": false,
      "inputs": [
        {
          "name": "_orderId",
          "type": "uint256"
        }
      ],
      "name": "buy",
      "outputs": [],
      "payable": true,
      "stateMutability": "payable",
      "type": "function"
    },
    {
      "constant": true,
      "inputs": [
        {
          "name": "_orderId",
          "type": "uint256"
        }
      ],
      "name": "getOrder",
      "outputs": [
        {
          "name": "",
          "type": "address"
        },
        {
          "name": "",
          "type": "uint256"
        }
      ],
      "payable": false,
      "stateMutability": "view",
      "type": "function"
    },
    {
      "constant": false,
      "inputs": [
        {
          "name": "_owner",
          "type": "address"
        }
      ],
      "name": "setOwner",
      "outputs": [],
      "payable": false,
      "stateMutability": "nonpayable",
      "type": "function"
    },
    {
      "constant": false,
      "inputs": [
        {
          "name": "_address",
          "type": "address"
        },
        {
          "name": "_motion",
          "type": "bool"
        }
      ],
      "name": "blacklistParty",
      "outputs": [],
      "payable": false,
      "stateMutability": "nonpayable",
      "type": "function"
    },
    {
      "constant": true,
      "inputs": [
        {
          "name": "_address",
          "type": "address"
        }
      ],
      "name": "isBlacklist",
      "outputs": [
        {
          "name": "",
          "type": "bool"
        }
      ],
      "payable": false,
      "stateMutability": "view",
      "type": "function"
    },
    {
      "constant": true,
      "inputs": [
        {
          "name": "_token",
          "type": "address"
        }
      ],
      "name": "getOrderCount",
      "outputs": [
        {
          "name": "",
          "type": "uint256"
        }
      ],
      "payable": false,
      "stateMutability": "view",
      "type": "function"
    },
    {
      "constant": false,
      "inputs": [],
      "name": "withdraw",
      "outputs": [],
      "payable": false,
      "stateMutability": "nonpayable",
      "type": "function"
    }
  ],
  "bytecode": "0x606060405234156200001057600080fd5b336000806101000a81548173ffffffffffffffffffffffffffffffffffffffff021916908373ffffffffffffffffffffffffffffffffffffffff16021790555060048054806001018281620000669190620000bb565b9160005260206000209001600080909190916101000a81548173ffffffffffffffffffffffffffffffffffffffff021916908373ffffffffffffffffffffffffffffffffffffffff1602179055505062000112565b815481835581811511620000e557818360005260206000209182019101620000e49190620000ea565b5b505050565b6200010f91905b808211156200010b576000816000905550600101620000f1565b5090565b90565b611e3a80620001226000396000f3006060604052600436106100c5576000357c0100000000000000000000000000000000000000000000000000000000900463ffffffff16806313af4035146100d6578063333e99db1461010f5780633ccfd60b146101605780634c3b6760146101755780635ac5ba71146101d85780638da5cb5b1461021c578063a85c38ef14610271578063bf5a4dd314610315578063d09ef24114610338578063d8b86753146103a2578063d96a094a146103ef578063dda342bb14610407578063eb3056e014610452575b6000341415156100d457600080fd5b005b34156100e157600080fd5b61010d600480803573ffffffffffffffffffffffffffffffffffffffff169060200190919050506104a8565b005b341561011a57600080fd5b610146600480803573ffffffffffffffffffffffffffffffffffffffff16906020019091905050610546565b604051808215151515815260200191505060405180910390f35b341561016b57600080fd5b61017361059c565b005b341561018057600080fd5b6101966004808035906020019091905050610671565b604051808273ffffffffffffffffffffffffffffffffffffffff1673ffffffffffffffffffffffffffffffffffffffff16815260200191505060405180910390f35b34156101e357600080fd5b61021a600480803573ffffffffffffffffffffffffffffffffffffffff1690602001909190803515159060200190919050506106b0565b005b341561022757600080fd5b61022f610766565b604051808273ffffffffffffffffffffffffffffffffffffffff1673ffffffffffffffffffffffffffffffffffffffff16815260200191505060405180910390f35b341561027c57600080fd5b610292600480803590602001909190505061078b565b604051808573ffffffffffffffffffffffffffffffffffffffff1673ffffffffffffffffffffffffffffffffffffffff1681526020018481526020018381526020018273ffffffffffffffffffffffffffffffffffffffff1673ffffffffffffffffffffffffffffffffffffffff16815260200194505050505060405180910390f35b341561032057600080fd5b61033660048080359060200190919050506107fb565b005b341561034357600080fd5b6103596004808035906020019091905050610b2f565b604051808373ffffffffffffffffffffffffffffffffffffffff1673ffffffffffffffffffffffffffffffffffffffff1681526020018281526020019250505060405180910390f35b34156103ad57600080fd5b6103d9600480803573ffffffffffffffffffffffffffffffffffffffff16906020019091905050610b7d565b6040518082815260200191505060405180910390f35b6104056004808035906020019091905050610bc9565b005b341561041257600080fd5b610450600480803573ffffffffffffffffffffffffffffffffffffffff16906020019091908035906020019091908035906020019091905050610f05565b005b341561045d57600080fd5b610492600480803573ffffffffffffffffffffffffffffffffffffffff1690602001909190803590602001909190505061153f565b6040518082815260200191505060405180910390f35b6000809054906101000a900473ffffffffffffffffffffffffffffffffffffffff1673ffffffffffffffffffffffffffffffffffffffff163373ffffffffffffffffffffffffffffffffffffffff1614151561050357600080fd5b806000806101000a81548173ffffffffffffffffffffffffffffffffffffffff021916908373ffffffffffffffffffffffffffffffffffffffff16021790555050565b6000600860008373ffffffffffffffffffffffffffffffffffffffff1673ffffffffffffffffffffffffffffffffffffffff16815260200190815260200160002060009054906101000a900460ff169050919050565b6000809054906101000a900473ffffffffffffffffffffffffffffffffffffffff1673ffffffffffffffffffffffffffffffffffffffff163373ffffffffffffffffffffffffffffffffffffffff161415156105f757600080fd5b6000809054906101000a900473ffffffffffffffffffffffffffffffffffffffff1673ffffffffffffffffffffffffffffffffffffffff166108fc3073ffffffffffffffffffffffffffffffffffffffff16319081150290604051600060405180830381858888f19350505050151561066f57600080fd5b565b60048181548110151561068057fe5b90600052602060002090016000915054906101000a900473ffffffffffffffffffffffffffffffffffffffff1681565b6000809054906101000a900473ffffffffffffffffffffffffffffffffffffffff1673ffffffffffffffffffffffffffffffffffffffff163373ffffffffffffffffffffffffffffffffffffffff1614151561070b57600080fd5b80600860008473ffffffffffffffffffffffffffffffffffffffff1673ffffffffffffffffffffffffffffffffffffffff16815260200190815260200160002060006101000a81548160ff0219169083151502179055505050565b6000809054906101000a900473ffffffffffffffffffffffffffffffffffffffff1681565b60016020528060005260406000206000915090508060000160009054906101000a900473ffffffffffffffffffffffffffffffffffffffff16908060010154908060020154908060030160009054906101000a900473ffffffffffffffffffffffffffffffffffffffff16905084565b610803611ce4565b600080600360008581526020019081526020016000205411151561082657600080fd5b60016000848152602001908152602001600020608060405190810160405290816000820160009054906101000a900473ffffffffffffffffffffffffffffffffffffffff1673ffffffffffffffffffffffffffffffffffffffff1673ffffffffffffffffffffffffffffffffffffffff16815260200160018201548152602001600282015481526020016003820160009054906101000a900473ffffffffffffffffffffffffffffffffffffffff1673ffffffffffffffffffffffffffffffffffffffff1673ffffffffffffffffffffffffffffffffffffffff16815250509150816000015173ffffffffffffffffffffffffffffffffffffffff163373ffffffffffffffffffffffffffffffffffffffff16148061099157506000809054906101000a900473ffffffffffffffffffffffffffffffffffffffff1673ffffffffffffffffffffffffffffffffffffffff163373ffffffffffffffffffffffffffffffffffffffff16145b151561099c57600080fd5b6109a583611570565b816060015190508073ffffffffffffffffffffffffffffffffffffffff166323b872dd303385604001516000604051602001526040518463ffffffff167c0100000000000000000000000000000000000000000000000000000000028152600401808473ffffffffffffffffffffffffffffffffffffffff1673ffffffffffffffffffffffffffffffffffffffff1681526020018373ffffffffffffffffffffffffffffffffffffffff1673ffffffffffffffffffffffffffffffffffffffff1681526020018281526020019350505050602060405180830381600087803b1515610a8f57600080fd5b6102c65a03f11515610aa057600080fd5b50505060405180519050507fd6a299bc1e8bed34430b109db9f16b0f9d75b8c9a36393225f6cd2b3aab54b79826060015183604001518460200151604051808473ffffffffffffffffffffffffffffffffffffffff1673ffffffffffffffffffffffffffffffffffffffff168152602001838152602001828152602001935050505060405180910390a1505050565b60008060006001600085815260200190815260200160002090508060000160009054906101000a900473ffffffffffffffffffffffffffffffffffffffff1681600101549250925050915091565b6000600260008373ffffffffffffffffffffffffffffffffffffffff1673ffffffffffffffffffffffffffffffffffffffff168152602001908152602001600020805490509050919050565b610bd1611ce4565b60008060016000858152602001908152602001600020608060405190810160405290816000820160009054906101000a900473ffffffffffffffffffffffffffffffffffffffff1673ffffffffffffffffffffffffffffffffffffffff1673ffffffffffffffffffffffffffffffffffffffff16815260200160018201548152602001600282015481526020016003820160009054906101000a900473ffffffffffffffffffffffffffffffffffffffff1673ffffffffffffffffffffffffffffffffffffffff1673ffffffffffffffffffffffffffffffffffffffff16815250509250826020015134141515610cc757600080fd5b60001515600860003373ffffffffffffffffffffffffffffffffffffffff1673ffffffffffffffffffffffffffffffffffffffff16815260200190815260200160002060009054906101000a900460ff161515141515610d2657600080fd5b82600001519150826060015190508073ffffffffffffffffffffffffffffffffffffffff166323b872dd303386604001516000604051602001526040518463ffffffff167c0100000000000000000000000000000000000000000000000000000000028152600401808473ffffffffffffffffffffffffffffffffffffffff1673ffffffffffffffffffffffffffffffffffffffff1681526020018373ffffffffffffffffffffffffffffffffffffffff1673ffffffffffffffffffffffffffffffffffffffff1681526020018281526020019350505050602060405180830381600087803b1515610e1757600080fd5b6102c65a03f11515610e2857600080fd5b5050506040518051905050610e3c84611570565b8173ffffffffffffffffffffffffffffffffffffffff166108fc84602001519081150290604051600060405180830381858888f193505050501515610e8057600080fd5b7f0f4a9c70987615d71a1085cae3c6fb0c2855f81a5ec62cb7ee3136d5407e357c836060015184604001518560200151604051808473ffffffffffffffffffffffffffffffffffffffff1673ffffffffffffffffffffffffffffffffffffffff168152602001838152602001828152602001935050505060405180910390a150505050565b6000801515600860003373ffffffffffffffffffffffffffffffffffffffff1673ffffffffffffffffffffffffffffffffffffffff16815260200190815260200160002060009054906101000a900460ff161515141515610f6557600080fd5b600082111515610f7457600080fd5b8390508073ffffffffffffffffffffffffffffffffffffffff166323b872dd33306009546000604051602001526040518463ffffffff167c0100000000000000000000000000000000000000000000000000000000028152600401808473ffffffffffffffffffffffffffffffffffffffff1673ffffffffffffffffffffffffffffffffffffffff1681526020018373ffffffffffffffffffffffffffffffffffffffff1673ffffffffffffffffffffffffffffffffffffffff1681526020018281526020019350505050602060405180830381600087803b151561105857600080fd5b6102c65a03f1151561106957600080fd5b50505060405180519050151561107e57600080fd5b6000600260008673ffffffffffffffffffffffffffffffffffffffff1673ffffffffffffffffffffffffffffffffffffffff16815260200190815260200160002080549050141561113057600260008573ffffffffffffffffffffffffffffffffffffffff1673ffffffffffffffffffffffffffffffffffffffff168152602001908152602001600020805480600101828161111a9190611d39565b9160005260206000209001600080909190915055505b600260008573ffffffffffffffffffffffffffffffffffffffff1673ffffffffffffffffffffffffffffffffffffffff1681526020019081526020016000208054905060036000600954815260200190815260200160002081905550600260008573ffffffffffffffffffffffffffffffffffffffff1673ffffffffffffffffffffffffffffffffffffffff16815260200190815260200160002080548060010182816111dd9190611d39565b91600052602060002090016000600954909190915055506080604051908101604052803373ffffffffffffffffffffffffffffffffffffffff1681526020018381526020018481526020018573ffffffffffffffffffffffffffffffffffffffff1681525060016000600954815260200190815260200160002060008201518160000160006101000a81548173ffffffffffffffffffffffffffffffffffffffff021916908373ffffffffffffffffffffffffffffffffffffffff160217905550602082015181600101556040820151816002015560608201518160030160006101000a81548173ffffffffffffffffffffffffffffffffffffffff021916908373ffffffffffffffffffffffffffffffffffffffff1602179055509050507f03f23a9b67af957c8605376a4f515b53f102d4ad7f4da099bd1aff8e3ee13fec848484604051808473ffffffffffffffffffffffffffffffffffffffff1673ffffffffffffffffffffffffffffffffffffffff168152602001838152602001828152602001935050505060405180910390a16000600560008673ffffffffffffffffffffffffffffffffffffffff1673ffffffffffffffffffffffffffffffffffffffff16815260200190815260200160002054141561146457600480549050600560008673ffffffffffffffffffffffffffffffffffffffff1673ffffffffffffffffffffffffffffffffffffffff16815260200190815260200160002081905550600480548060010182816114149190611d65565b9160005260206000209001600086909190916101000a81548173ffffffffffffffffffffffffffffffffffffffff021916908373ffffffffffffffffffffffffffffffffffffffff160217905550505b600660003373ffffffffffffffffffffffffffffffffffffffff1673ffffffffffffffffffffffffffffffffffffffff1681526020019081526020016000208054905060076000600954815260200190815260200160002081905550600660003373ffffffffffffffffffffffffffffffffffffffff1673ffffffffffffffffffffffffffffffffffffffff16815260200190815260200160002080548060010182816115119190611d39565b9160005260206000209001600060095490919091505550600160096000828254019250508190555050505050565b60026020528160005260406000208181548110151561155a57fe5b9060005260206000209001600091509150505481565b611578611ce4565b60008060008060016000878152602001908152602001600020608060405190810160405290816000820160009054906101000a900473ffffffffffffffffffffffffffffffffffffffff1673ffffffffffffffffffffffffffffffffffffffff1673ffffffffffffffffffffffffffffffffffffffff16815260200160018201548152602001600282015481526020016003820160009054906101000a900473ffffffffffffffffffffffffffffffffffffffff1673ffffffffffffffffffffffffffffffffffffffff1673ffffffffffffffffffffffffffffffffffffffff16815250509450600360008781526020019081526020016000205493506116cf600160026000886060015173ffffffffffffffffffffffffffffffffffffffff1673ffffffffffffffffffffffffffffffffffffffff16815260200190815260200160002080549050611ccb90919063ffffffff16565b925060026000866060015173ffffffffffffffffffffffffffffffffffffffff1673ffffffffffffffffffffffffffffffffffffffff1681526020019081526020016000208381548110151561172157fe5b90600052602060002090015491508160026000876060015173ffffffffffffffffffffffffffffffffffffffff1673ffffffffffffffffffffffffffffffffffffffff1681526020019081526020016000208581548110151561178057fe5b90600052602060002090018190555083600360008481526020019081526020016000208190555060026000866060015173ffffffffffffffffffffffffffffffffffffffff1673ffffffffffffffffffffffffffffffffffffffff1681526020019081526020016000208054809190600190036117fd9190611d91565b5060006003600088815260200190815260200160002081905550608060405190810160405280600073ffffffffffffffffffffffffffffffffffffffff1681526020016000815260200160008152602001600073ffffffffffffffffffffffffffffffffffffffff168152506001600088815260200190815260200160002060008201518160000160006101000a81548173ffffffffffffffffffffffffffffffffffffffff021916908373ffffffffffffffffffffffffffffffffffffffff160217905550602082015181600101556040820151816002015560608201518160030160006101000a81548173ffffffffffffffffffffffffffffffffffffffff021916908373ffffffffffffffffffffffffffffffffffffffff160217905550905050600160026000876060015173ffffffffffffffffffffffffffffffffffffffff1673ffffffffffffffffffffffffffffffffffffffff168152602001908152602001600020805490501415611b0b5760056000866060015173ffffffffffffffffffffffffffffffffffffffff1673ffffffffffffffffffffffffffffffffffffffff1681526020019081526020016000205493506119cf6001600480549050611ccb90919063ffffffff16565b92506004838154811015156119e057fe5b906000526020600020900160009054906101000a900473ffffffffffffffffffffffffffffffffffffffff16905080600485815481101515611a1e57fe5b906000526020600020900160006101000a81548173ffffffffffffffffffffffffffffffffffffffff021916908373ffffffffffffffffffffffffffffffffffffffff16021790555083600560008373ffffffffffffffffffffffffffffffffffffffff1673ffffffffffffffffffffffffffffffffffffffff168152602001908152602001600020819055506004805480919060019003611ac09190611dbd565b50600060056000876060015173ffffffffffffffffffffffffffffffffffffffff1673ffffffffffffffffffffffffffffffffffffffff168152602001908152602001600020819055505b60076000878152602001908152602001600020549350611b7b600160066000886000015173ffffffffffffffffffffffffffffffffffffffff1673ffffffffffffffffffffffffffffffffffffffff16815260200190815260200160002080549050611ccb90919063ffffffff16565b925060066000866000015173ffffffffffffffffffffffffffffffffffffffff1673ffffffffffffffffffffffffffffffffffffffff16815260200190815260200160002083815481101515611bcd57fe5b90600052602060002090015491508160066000876000015173ffffffffffffffffffffffffffffffffffffffff1673ffffffffffffffffffffffffffffffffffffffff16815260200190815260200160002085815481101515611c2c57fe5b90600052602060002090018190555083600760008481526020019081526020016000208190555060066000866000015173ffffffffffffffffffffffffffffffffffffffff1673ffffffffffffffffffffffffffffffffffffffff168152602001908152602001600020805480919060019003611ca99190611d91565b5060006007600088815260200190815260200160002081905550505050505050565b6000828211151515611cd957fe5b818303905092915050565b608060405190810160405280600073ffffffffffffffffffffffffffffffffffffffff1681526020016000815260200160008152602001600073ffffffffffffffffffffffffffffffffffffffff1681525090565b815481835581811511611d6057818360005260206000209182019101611d5f9190611de9565b5b505050565b815481835581811511611d8c57818360005260206000209182019101611d8b9190611de9565b5b505050565b815481835581811511611db857818360005260206000209182019101611db79190611de9565b5b505050565b815481835581811511611de457818360005260206000209182019101611de39190611de9565b5b505050565b611e0b91905b80821115611e07576000816000905550600101611def565b5090565b905600a165627a7a72305820b9823396ea9ddb3e05bb77424051214df3343ca7d2eeee36114909c63574c88c0029",
  "source": "pragma solidity ^0.4.18;\r\n\r\n import \"./libraries/SafeMath.sol\";\r\n import \"./interfaces/ERC20_Interface.sol\";\r\n\r\n/**\r\n*@To do:\r\nAllow partial fills\r\n*/\r\ncontract Exchange{\r\n    using SafeMath for uint256;\r\n\r\n    /***VARIABLES***/\r\n    address public owner; //The owner of the market contract\r\n    \r\n    /***DATA***/\r\n    //This is the base data structure for an order (the maker of the order and the price)\r\n    struct Order {\r\n        address maker;// the placer of the order\r\n        uint price;// The price in wei\r\n        uint amount;\r\n        address asset;\r\n    }\r\n\r\n    //Maps an OrderID to the list of orders\r\n    mapping(uint256 => Order) public orders;\r\n    //An mapping of a token address to the orderID's\r\n    mapping(address =>  uint256[]) public forSale;\r\n    //Index telling where a specific tokenId is in the forSale array\r\n    mapping(uint256 => uint256) forSaleIndex;\r\n    //Index telling where a specific tokenId is in the forSale array\r\n    address[] public openBooks;\r\n    //mapping of address to position in openBooks\r\n    mapping (address => uint) openBookIndex;\r\n    //mapping of user to their orders\r\n    mapping(address => uint[]) userOrders;\r\n    //mapping from orderId to userOrder position\r\n    mapping(uint => uint) userOrderIndex;\r\n    //A list of the blacklisted addresses\r\n    mapping(address => bool) blacklist;\r\n    //order_nonce;\r\n    uint order_nonce;\r\n\r\n    /***MODIFIERS***/\r\n    /// @dev Access modifier for Owner functionality\r\n    modifier onlyOwner() {\r\n        require(msg.sender == owner);\r\n        _;\r\n    }\r\n\r\n\r\n    /***EVENTS***/\r\n    event OrderPlaced(address _token, uint256 _amount, uint256 _price);\r\n    event Sale(address _token, uint256 _amount, uint256 _price);\r\n    event OrderRemoved(address _token, uint256 _amount, uint256 _price);\r\n\r\n    /***FUNCTIONS***/\r\n    /*\r\n    *@dev the constructor argument to set the owner and initialize the array.\r\n    */\r\n    function Exchange() public{\r\n        owner = msg.sender;\r\n        openBooks.push(address(0));\r\n    }\r\n\r\n    /*\r\n    *@dev The fallback function to prevent money from being sent to the contract\r\n    */\r\n    function()  payable public{\r\n        require(msg.value == 0);\r\n    }\r\n\r\n    /*\r\n    *@dev listPhoto allows a party to place a photo on the orderbook\r\n    *@param _tokenId uint256 ID of photo\r\n    *@param _price uint256 price of photo in wei\r\n    */\r\n    function list(address _tokenadd, uint256 _amount, uint256 _price) external {\r\n        require(blacklist[msg.sender] == false);\r\n        require(_price > 0);\r\n        ERC20_Interface token = ERC20_Interface(_tokenadd);\r\n        require(token.transferFrom(msg.sender,address(this),order_nonce));\r\n        if(forSale[_tokenadd].length == 0){\r\n            forSale[_tokenadd].push(0);\r\n            }\r\n        forSaleIndex[order_nonce] = forSale[_tokenadd].length;\r\n        forSale[_tokenadd].push(order_nonce);\r\n        orders[order_nonce] = Order({\r\n            maker: msg.sender,\r\n            price: _price,\r\n            amount:_amount,\r\n            asset: _tokenadd\r\n        });\r\n        OrderPlaced(_tokenadd,_amount,_price);\r\n        if(openBookIndex[_tokenadd] == 0 ){    \r\n            openBookIndex[_tokenadd] = openBooks.length;\r\n            openBooks.push(_tokenadd);\r\n        }\r\n        userOrderIndex[order_nonce] = userOrders[msg.sender].length;\r\n        userOrders[msg.sender].push(order_nonce);\r\n        order_nonce += 1;\r\n    }\r\n    /**\r\n    *@dev unlistPhoto allows a party to remove their order from the orderbook\r\n    *@param _tokenId uint256 ID of photo\r\n    */\r\n    function unlist(uint256 _orderId) external{\r\n        require(forSaleIndex[_orderId] > 0);\r\n        Order memory _order = orders[_orderId];\r\n        require(msg.sender== _order.maker || msg.sender == owner);\r\n        unLister(_orderId);\r\n        ERC20_Interface token = ERC20_Interface(_order.asset);\r\n        token.transferFrom(address(this),msg.sender,_order.amount);\r\n        OrderRemoved(_order.asset,_order.amount,_order.price);\r\n    }\r\n\r\n    /**\r\n    *@dev buyPhoto allows a party to send Ether to buy a photo off of the orderbook\r\n    *@param _tokenId uint256 ID of photo\r\n    */\r\n    function buy(uint256 _orderId) external payable {\r\n        Order memory _order = orders[_orderId];\r\n        require(msg.value == _order.price);\r\n        require(blacklist[msg.sender] == false);\r\n        address maker = _order.maker;\r\n        ERC20_Interface token = ERC20_Interface(_order.asset);\r\n        token.transferFrom(address(this),msg.sender, _order.amount);\r\n        unLister(_orderId);\r\n        maker.transfer(_order.price);\r\n        Sale(_order.asset,_order.amount,_order.price);\r\n    }\r\n\r\n    /*\r\n    *@dev getOrder lists the price and maker of a specific token for a sale\r\n    *@param _tokenId uint256 ID of photo\r\n    *@return address of the party selling the rights to the photo\r\n    *@return uint of the price of the sale\r\n    */\r\n    function getOrder(uint256 _orderId) external view returns(address,uint){\r\n        Order storage _order = orders[_orderId];\r\n        return (_order.maker,_order.price);\r\n    }\r\n\r\n    /*\r\n    *@dev allows the owner to change who the owner is\r\n    *@param _owner is the address of the new owner\r\n    */\r\n    function setOwner(address _owner) public onlyOwner() {\r\n        owner = _owner;\r\n    }\r\n\r\n    /*\r\n    *@dev Allows the owner to blacklist addresses from using this exchange\r\n    *@param _address the address of the party to blacklist\r\n    *@param _motion true or false depending on if blacklisting or not\r\n    *@Note - This allows the owner to stop a malicious party from spamming the orderbook\r\n    */\r\n    function blacklistParty(address _address, bool _motion) public onlyOwner() {\r\n        blacklist[_address] = _motion;\r\n    }\r\n\r\n    /*\r\n    *@dev Allows parties to see if one is blacklisted\r\n    *@param _address the address of the party to blacklist\r\n    *@return bool, true for is blacklisted\r\n    */\r\n    function isBlacklist(address _address) public view returns(bool) {\r\n        return blacklist[_address];\r\n    }\r\n\r\n    /*\r\n    *@dev getOrderCount allows parties to query how many orders are on the book\r\n    *@return _uint of the number of orders in the orderbook\r\n    */\r\n    function getOrderCount(address _token) public constant returns(uint) {\r\n        return forSale[_token].length;\r\n    }\r\n\r\n    /*\r\n    *@dev allows owner to withdraw funds\r\n    */\r\n    function withdraw() public onlyOwner(){\r\n        owner.transfer(this.balance);\r\n    }\r\n\r\n\r\n    /***INTERNAL FUNCTIONS***/\r\n    /*\r\n    *@dev An internal function to update mappings when an order is removed from the book\r\n    *@param _tokenId uint256 ID of photo\r\n    */\r\n    function unLister(uint256 _orderId) internal{\r\n        Order memory _order = orders[_orderId];\r\n\r\n        uint256 tokenIndex = forSaleIndex[_orderId];\r\n        uint256 lastTokenIndex = forSale[_order.asset].length.sub(1);\r\n        uint256 lastToken = forSale[_order.asset][lastTokenIndex];\r\n        forSale[_order.asset][tokenIndex] = lastToken;\r\n        forSaleIndex[lastToken] = tokenIndex;\r\n        forSale[_order.asset].length--;\r\n        forSaleIndex[_orderId] = 0;\r\n        orders[_orderId] = Order({\r\n            maker: address(0),\r\n            price: 0,\r\n            amount:0,\r\n            asset: address(0)\r\n        });\r\n        if(forSale[_order.asset].length == 1){\r\n            tokenIndex = openBookIndex[_order.asset];\r\n            lastTokenIndex = openBooks.length.sub(1);\r\n            address lastAdd = openBooks[lastTokenIndex];\r\n            openBooks[tokenIndex] = lastAdd;\r\n            openBookIndex[lastAdd] = tokenIndex;\r\n            openBooks.length--;\r\n            openBookIndex[_order.asset] = 0;\r\n        }\r\n        tokenIndex = userOrderIndex[_orderId];\r\n        lastTokenIndex = userOrders[_order.maker].length.sub(1);\r\n        lastToken = userOrders[_order.maker][lastTokenIndex];\r\n        userOrders[_order.maker][tokenIndex] = lastToken;\r\n        userOrderIndex[lastToken] = tokenIndex;\r\n        userOrders[_order.maker].length--;\r\n        userOrderIndex[_orderId] = 0;\r\n    }\r\n}",
  "sourcePath": "C:\\company\\code\\drct_standard\\contracts\\Exchange.sol",
  "compiler": {
    "name": "solc",
    "version": "0.4.19+commit.c4cbbb05.Emscripten.clang"
  },
  "schemaVersion": "1.0.1",
  "updatedAt": "2018-04-04T16:56:21.922Z"
}