{
  "contractName": "Factory",
  "abi": [
    {
      "constant": true,
      "inputs": [],
      "name": "duration",
      "outputs": [
        {
          "name": "",
          "type": "uint256"
        }
      ],
      "payable": false,
      "stateMutability": "view",
      "type": "function"
    },
    {
      "constant": true,
      "inputs": [],
      "name": "multiplier",
      "outputs": [
        {
          "name": "",
          "type": "uint256"
        }
      ],
      "payable": false,
      "stateMutability": "view",
      "type": "function"
    },
    {
      "constant": true,
      "inputs": [
        {
          "name": "",
          "type": "uint256"
        }
      ],
      "name": "short_tokens",
      "outputs": [
        {
          "name": "",
          "type": "address"
        }
      ],
      "payable": false,
      "stateMutability": "view",
      "type": "function"
    },
    {
      "constant": true,
      "inputs": [
        {
          "name": "",
          "type": "uint256"
        }
      ],
      "name": "contracts",
      "outputs": [
        {
          "name": "",
          "type": "address"
        }
      ],
      "payable": false,
      "stateMutability": "view",
      "type": "function"
    },
    {
      "constant": true,
      "inputs": [
        {
          "name": "",
          "type": "address"
        }
      ],
      "name": "created_contracts",
      "outputs": [
        {
          "name": "",
          "type": "uint256"
        }
      ],
      "payable": false,
      "stateMutability": "view",
      "type": "function"
    },
    {
      "constant": true,
      "inputs": [],
      "name": "token_ratio",
      "outputs": [
        {
          "name": "",
          "type": "uint256"
        }
      ],
      "payable": false,
      "stateMutability": "view",
      "type": "function"
    },
    {
      "constant": true,
      "inputs": [],
      "name": "oracle_address",
      "outputs": [
        {
          "name": "",
          "type": "address"
        }
      ],
      "payable": false,
      "stateMutability": "view",
      "type": "function"
    },
    {
      "constant": true,
      "inputs": [],
      "name": "owner",
      "outputs": [
        {
          "name": "",
          "type": "address"
        }
      ],
      "payable": false,
      "stateMutability": "view",
      "type": "function"
    },
    {
      "constant": true,
      "inputs": [
        {
          "name": "",
          "type": "uint256"
        }
      ],
      "name": "startDates",
      "outputs": [
        {
          "name": "",
          "type": "uint256"
        }
      ],
      "payable": false,
      "stateMutability": "view",
      "type": "function"
    },
    {
      "constant": true,
      "inputs": [],
      "name": "user_contract",
      "outputs": [
        {
          "name": "",
          "type": "address"
        }
      ],
      "payable": false,
      "stateMutability": "view",
      "type": "function"
    },
    {
      "constant": true,
      "inputs": [
        {
          "name": "",
          "type": "uint256"
        }
      ],
      "name": "long_tokens",
      "outputs": [
        {
          "name": "",
          "type": "address"
        }
      ],
      "payable": false,
      "stateMutability": "view",
      "type": "function"
    },
    {
      "constant": true,
      "inputs": [],
      "name": "fee",
      "outputs": [
        {
          "name": "",
          "type": "uint256"
        }
      ],
      "payable": false,
      "stateMutability": "view",
      "type": "function"
    },
    {
      "constant": true,
      "inputs": [],
      "name": "token",
      "outputs": [
        {
          "name": "",
          "type": "address"
        }
      ],
      "payable": false,
      "stateMutability": "view",
      "type": "function"
    },
    {
      "inputs": [],
      "payable": false,
      "stateMutability": "nonpayable",
      "type": "constructor"
    },
    {
      "payable": true,
      "stateMutability": "payable",
      "type": "fallback"
    },
    {
      "anonymous": false,
      "inputs": [
        {
          "indexed": false,
          "name": "_sender",
          "type": "address"
        },
        {
          "indexed": false,
          "name": "_created",
          "type": "address"
        }
      ],
      "name": "ContractCreation",
      "type": "event"
    },
    {
      "constant": true,
      "inputs": [
        {
          "name": "_date",
          "type": "uint256"
        }
      ],
      "name": "getTokens",
      "outputs": [
        {
          "name": "",
          "type": "address"
        },
        {
          "name": "",
          "type": "address"
        }
      ],
      "payable": false,
      "stateMutability": "view",
      "type": "function"
    },
    {
      "constant": false,
      "inputs": [
        {
          "name": "_fee",
          "type": "uint256"
        }
      ],
      "name": "setFee",
      "outputs": [],
      "payable": false,
      "stateMutability": "nonpayable",
      "type": "function"
    },
    {
      "constant": false,
      "inputs": [
        {
          "name": "_deployer",
          "type": "address"
        }
      ],
      "name": "setDeployer",
      "outputs": [],
      "payable": false,
      "stateMutability": "nonpayable",
      "type": "function"
    },
    {
      "constant": false,
      "inputs": [
        {
          "name": "_tdeployer",
          "type": "address"
        }
      ],
      "name": "setTokenDeployer",
      "outputs": [],
      "payable": false,
      "stateMutability": "nonpayable",
      "type": "function"
    },
    {
      "constant": false,
      "inputs": [
        {
          "name": "_userContract",
          "type": "address"
        }
      ],
      "name": "setUserContract",
      "outputs": [],
      "payable": false,
      "stateMutability": "nonpayable",
      "type": "function"
    },
    {
      "constant": true,
      "inputs": [],
      "name": "getBase",
      "outputs": [
        {
          "name": "",
          "type": "address"
        }
      ],
      "payable": false,
      "stateMutability": "view",
      "type": "function"
    },
    {
      "constant": false,
      "inputs": [
        {
          "name": "_token_ratio",
          "type": "uint256"
        },
        {
          "name": "_duration",
          "type": "uint256"
        },
        {
          "name": "_multiplier",
          "type": "uint256"
        }
      ],
      "name": "setVariables",
      "outputs": [],
      "payable": false,
      "stateMutability": "nonpayable",
      "type": "function"
    },
    {
      "constant": false,
      "inputs": [
        {
          "name": "_token",
          "type": "address"
        }
      ],
      "name": "setBaseToken",
      "outputs": [],
      "payable": false,
      "stateMutability": "nonpayable",
      "type": "function"
    },
    {
      "constant": false,
      "inputs": [
        {
          "name": "_start_date",
          "type": "uint256"
        }
      ],
      "name": "deployContract",
      "outputs": [
        {
          "name": "",
          "type": "address"
        }
      ],
      "payable": true,
      "stateMutability": "payable",
      "type": "function"
    },
    {
      "constant": false,
      "inputs": [
        {
          "name": "_start_date",
          "type": "uint256"
        },
        {
          "name": "_long",
          "type": "bool"
        }
      ],
      "name": "deployTokenContract",
      "outputs": [
        {
          "name": "",
          "type": "address"
        }
      ],
      "payable": false,
      "stateMutability": "nonpayable",
      "type": "function"
    },
    {
      "constant": false,
      "inputs": [
        {
          "name": "_supply",
          "type": "uint256"
        },
        {
          "name": "_party",
          "type": "address"
        },
        {
          "name": "_start_date",
          "type": "uint256"
        }
      ],
      "name": "createToken",
      "outputs": [
        {
          "name": "",
          "type": "address"
        },
        {
          "name": "",
          "type": "address"
        },
        {
          "name": "",
          "type": "uint256"
        }
      ],
      "payable": false,
      "stateMutability": "nonpayable",
      "type": "function"
    },
    {
      "constant": false,
      "inputs": [
        {
          "name": "_new_oracle_address",
          "type": "address"
        }
      ],
      "name": "setOracleAddress",
      "outputs": [],
      "payable": false,
      "stateMutability": "nonpayable",
      "type": "function"
    },
    {
      "constant": false,
      "inputs": [
        {
          "name": "_new_owner",
          "type": "address"
        }
      ],
      "name": "setOwner",
      "outputs": [],
      "payable": false,
      "stateMutability": "nonpayable",
      "type": "function"
    },
    {
      "constant": false,
      "inputs": [],
      "name": "withdrawFees",
      "outputs": [],
      "payable": false,
      "stateMutability": "nonpayable",
      "type": "function"
    },
    {
      "constant": true,
      "inputs": [],
      "name": "getVariables",
      "outputs": [
        {
          "name": "",
          "type": "address"
        },
        {
          "name": "",
          "type": "uint256"
        },
        {
          "name": "",
          "type": "uint256"
        },
        {
          "name": "",
          "type": "address"
        }
      ],
      "payable": false,
      "stateMutability": "view",
      "type": "function"
    },
    {
      "constant": false,
      "inputs": [
        {
          "name": "_party",
          "type": "address"
        },
        {
          "name": "_token_add",
          "type": "address"
        }
      ],
      "name": "payToken",
      "outputs": [],
      "payable": false,
      "stateMutability": "nonpayable",
      "type": "function"
    },
    {
      "constant": true,
      "inputs": [],
      "name": "getCount",
      "outputs": [
        {
          "name": "",
          "type": "uint256"
        }
      ],
      "payable": false,
      "stateMutability": "view",
      "type": "function"
    },
    {
      "constant": true,
      "inputs": [],
      "name": "getDateCount",
      "outputs": [
        {
          "name": "",
          "type": "uint256"
        }
      ],
      "payable": false,
      "stateMutability": "view",
      "type": "function"
    }
  ],
  "bytecode": "0x6060604052341561000f57600080fd5b336000806101000a81548173ffffffffffffffffffffffffffffffffffffffff021916908373ffffffffffffffffffffffffffffffffffffffff16021790555061221b8061005e6000396000f30060606040526004361061018b576000357c0100000000000000000000000000000000000000000000000000000000900463ffffffff1680630fb5a6b41461018d57806313af4035146101b657806316bb6c13146101ef5780631b3ed722146102285780631cf41a81146102515780632a7292d0146102a957806331fa76db1461036e578063474da79a146103d1578063476343ee146104345780634c69c00f146104495780634efb04ff146104825780635c5991d4146104cf57806362628e66146104f857806369fe0e2d1461052d5780637e0c179214610550578063880183e9146105a55780638da5cb5b146105de57806394aef0221461063357806396214735146106c9578063a1206d4e14610702578063a55e93701461073b578063a87d942c14610764578063b266c6611461078d578063b7f545cc146107c4578063d104a13614610832578063d3749a1514610887578063d3c9cc26146108dc578063dc54d91914610972578063ddca3f43146109d5578063ecb14519146109fe578063fc0c546a14610a56575b005b341561019857600080fd5b6101a0610aab565b6040518082815260200191505060405180910390f35b34156101c157600080fd5b6101ed600480803573ffffffffffffffffffffffffffffffffffffffff16906020019091905050610ab1565b005b34156101fa57600080fd5b610226600480803573ffffffffffffffffffffffffffffffffffffffff16906020019091905050610b4f565b005b341561023357600080fd5b61023b610bee565b6040518082815260200191505060405180910390f35b6102676004808035906020019091905050610bf4565b604051808273ffffffffffffffffffffffffffffffffffffffff1673ffffffffffffffffffffffffffffffffffffffff16815260200191505060405180910390f35b34156102b457600080fd5b6102f2600480803590602001909190803573ffffffffffffffffffffffffffffffffffffffff16906020019091908035906020019091905050610e9f565b604051808473ffffffffffffffffffffffffffffffffffffffff1673ffffffffffffffffffffffffffffffffffffffff1681526020018373ffffffffffffffffffffffffffffffffffffffff1673ffffffffffffffffffffffffffffffffffffffff168152602001828152602001935050505060405180910390f35b341561037957600080fd5b61038f60048080359060200190919050506112a5565b604051808273ffffffffffffffffffffffffffffffffffffffff1673ffffffffffffffffffffffffffffffffffffffff16815260200191505060405180910390f35b34156103dc57600080fd5b6103f260048080359060200190919050506112d8565b604051808273ffffffffffffffffffffffffffffffffffffffff1673ffffffffffffffffffffffffffffffffffffffff16815260200191505060405180910390f35b341561043f57600080fd5b610447611317565b005b341561045457600080fd5b610480600480803573ffffffffffffffffffffffffffffffffffffffff169060200190919050506115d1565b005b341561048d57600080fd5b6104b9600480803573ffffffffffffffffffffffffffffffffffffffff16906020019091905050611670565b6040518082815260200191505060405180910390f35b34156104da57600080fd5b6104e2611688565b6040518082815260200191505060405180910390f35b341561050357600080fd5b61052b600480803590602001909190803590602001909190803590602001909190505061168e565b005b341561053857600080fd5b61054e6004808035906020019091905050611703565b005b341561055b57600080fd5b610563611768565b604051808273ffffffffffffffffffffffffffffffffffffffff1673ffffffffffffffffffffffffffffffffffffffff16815260200191505060405180910390f35b34156105b057600080fd5b6105dc600480803573ffffffffffffffffffffffffffffffffffffffff1690602001909190505061178e565b005b34156105e957600080fd5b6105f161186e565b604051808273ffffffffffffffffffffffffffffffffffffffff1673ffffffffffffffffffffffffffffffffffffffff16815260200191505060405180910390f35b341561063e57600080fd5b610646611893565b604051808573ffffffffffffffffffffffffffffffffffffffff1673ffffffffffffffffffffffffffffffffffffffff1681526020018481526020018381526020018273ffffffffffffffffffffffffffffffffffffffff1673ffffffffffffffffffffffffffffffffffffffff16815260200194505050505060405180910390f35b34156106d457600080fd5b610700600480803573ffffffffffffffffffffffffffffffffffffffff169060200190919050506118f3565b005b341561070d57600080fd5b610739600480803573ffffffffffffffffffffffffffffffffffffffff169060200190919050506119d3565b005b341561074657600080fd5b61074e611a72565b6040518082815260200191505060405180910390f35b341561076f57600080fd5b610777611a7f565b6040518082815260200191505060405180910390f35b341561079857600080fd5b6107ae6004808035906020019091905050611a8c565b6040518082815260200191505060405180910390f35b34156107cf57600080fd5b6107f060048080359060200190919080351515906020019091905050611ab0565b604051808273ffffffffffffffffffffffffffffffffffffffff1673ffffffffffffffffffffffffffffffffffffffff16815260200191505060405180910390f35b341561083d57600080fd5b610845611ea1565b604051808273ffffffffffffffffffffffffffffffffffffffff1673ffffffffffffffffffffffffffffffffffffffff16815260200191505060405180910390f35b341561089257600080fd5b61089a611ecb565b604051808273ffffffffffffffffffffffffffffffffffffffff1673ffffffffffffffffffffffffffffffffffffffff16815260200191505060405180910390f35b34156108e757600080fd5b6108fd6004808035906020019091905050611ef1565b604051808373ffffffffffffffffffffffffffffffffffffffff1673ffffffffffffffffffffffffffffffffffffffff1681526020018273ffffffffffffffffffffffffffffffffffffffff1673ffffffffffffffffffffffffffffffffffffffff1681526020019250505060405180910390f35b341561097d57600080fd5b6109936004808035906020019091905050611f65565b604051808273ffffffffffffffffffffffffffffffffffffffff1673ffffffffffffffffffffffffffffffffffffffff16815260200191505060405180910390f35b34156109e057600080fd5b6109e8611f98565b6040518082815260200191505060405180910390f35b3415610a0957600080fd5b610a54600480803573ffffffffffffffffffffffffffffffffffffffff1690602001909190803573ffffffffffffffffffffffffffffffffffffffff16906020019091905050611f9e565b005b3415610a6157600080fd5b610a69612131565b604051808273ffffffffffffffffffffffffffffffffffffffff1673ffffffffffffffffffffffffffffffffffffffff16815260200191505060405180910390f35b600b5481565b6000809054906101000a900473ffffffffffffffffffffffffffffffffffffffff1673ffffffffffffffffffffffffffffffffffffffff163373ffffffffffffffffffffffffffffffffffffffff16141515610b0c57600080fd5b806000806101000a81548173ffffffffffffffffffffffffffffffffffffffff021916908373ffffffffffffffffffffffffffffffffffffffff16021790555050565b6000809054906101000a900473ffffffffffffffffffffffffffffffffffffffff1673ffffffffffffffffffffffffffffffffffffffff163373ffffffffffffffffffffffffffffffffffffffff16141515610baa57600080fd5b80600960006101000a81548173ffffffffffffffffffffffffffffffffffffffff021916908373ffffffffffffffffffffffffffffffffffffffff16021790555050565b600c5481565b600080600a543410151515610c0857600080fd5b60006201518084811515610c1857fe5b06141515610c2557600080fd5b600660009054906101000a900473ffffffffffffffffffffffffffffffffffffffff1673ffffffffffffffffffffffffffffffffffffffff1663548dd51e33600260009054906101000a900473ffffffffffffffffffffffffffffffffffffffff16866040518463ffffffff167c0100000000000000000000000000000000000000000000000000000000028152600401808473ffffffffffffffffffffffffffffffffffffffff1673ffffffffffffffffffffffffffffffffffffffff1681526020018373ffffffffffffffffffffffffffffffffffffffff1673ffffffffffffffffffffffffffffffffffffffff1681526020018281526020019350505050602060405180830381600087803b1515610d3f57600080fd5b5af11515610d4c57600080fd5b505050604051805190509050600e8054806001018281610d6c9190612172565b9160005260206000209001600083909190916101000a81548173ffffffffffffffffffffffffffffffffffffffff021916908373ffffffffffffffffffffffffffffffffffffffff1602179055505082601060008373ffffffffffffffffffffffffffffffffffffffff1673ffffffffffffffffffffffffffffffffffffffff168152602001908152602001600020819055507fb6c9f70724e4ce6b9bca2eace320dd3164063f0a0b229f8c4705ef05be829c253382604051808373ffffffffffffffffffffffffffffffffffffffff1673ffffffffffffffffffffffffffffffffffffffff1681526020018273ffffffffffffffffffffffffffffffffffffffff1673ffffffffffffffffffffffffffffffffffffffff1681526020019250505060405180910390a180915050919050565b600080600080600085601060003373ffffffffffffffffffffffffffffffffffffffff1673ffffffffffffffffffffffffffffffffffffffff16815260200190815260200160002054141515610ef457600080fd5b6011600087815260200190815260200160002060009054906101000a900473ffffffffffffffffffffffffffffffffffffffff1691506012600087815260200190815260200160002060009054906101000a900473ffffffffffffffffffffffffffffffffffffffff169050600073ffffffffffffffffffffffffffffffffffffffff168273ffffffffffffffffffffffffffffffffffffffff1614158015610fca5750600073ffffffffffffffffffffffffffffffffffffffff168173ffffffffffffffffffffffffffffffffffffffff1614155b1515610fd557600080fd5b81600360006101000a81548173ffffffffffffffffffffffffffffffffffffffff021916908373ffffffffffffffffffffffffffffffffffffffff160217905550600360009054906101000a900473ffffffffffffffffffffffffffffffffffffffff1673ffffffffffffffffffffffffffffffffffffffff1663e6ed51b7611069600d548b61215790919063ffffffff16565b89336040518463ffffffff167c0100000000000000000000000000000000000000000000000000000000028152600401808481526020018373ffffffffffffffffffffffffffffffffffffffff1673ffffffffffffffffffffffffffffffffffffffff1681526020018273ffffffffffffffffffffffffffffffffffffffff1673ffffffffffffffffffffffffffffffffffffffff1681526020019350505050600060405180830381600087803b151561112257600080fd5b5af1151561112f57600080fd5b50505080600360006101000a81548173ffffffffffffffffffffffffffffffffffffffff021916908373ffffffffffffffffffffffffffffffffffffffff160217905550600360009054906101000a900473ffffffffffffffffffffffffffffffffffffffff1673ffffffffffffffffffffffffffffffffffffffff1663e6ed51b76111c6600d548b61215790919063ffffffff16565b89336040518463ffffffff167c0100000000000000000000000000000000000000000000000000000000028152600401808481526020018373ffffffffffffffffffffffffffffffffffffffff1673ffffffffffffffffffffffffffffffffffffffff1681526020018273ffffffffffffffffffffffffffffffffffffffff1673ffffffffffffffffffffffffffffffffffffffff1681526020019350505050600060405180830381600087803b151561127f57600080fd5b5af1151561128c57600080fd5b5050508181600d54945094509450505093509350939050565b60126020528060005260406000206000915054906101000a900473ffffffffffffffffffffffffffffffffffffffff1681565b600e818154811015156112e757fe5b90600052602060002090016000915054906101000a900473ffffffffffffffffffffffffffffffffffffffff1681565b60008060009054906101000a900473ffffffffffffffffffffffffffffffffffffffff1673ffffffffffffffffffffffffffffffffffffffff163373ffffffffffffffffffffffffffffffffffffffff1614151561137457600080fd5b600960009054906101000a900473ffffffffffffffffffffffffffffffffffffffff16600460006101000a81548173ffffffffffffffffffffffffffffffffffffffff021916908373ffffffffffffffffffffffffffffffffffffffff160217905550600460009054906101000a900473ffffffffffffffffffffffffffffffffffffffff1673ffffffffffffffffffffffffffffffffffffffff166370a08231306040518263ffffffff167c0100000000000000000000000000000000000000000000000000000000028152600401808273ffffffffffffffffffffffffffffffffffffffff1673ffffffffffffffffffffffffffffffffffffffff168152602001915050602060405180830381600087803b151561149357600080fd5b5af115156114a057600080fd5b505050604051805190509050600081111561155657600460009054906101000a900473ffffffffffffffffffffffffffffffffffffffff1673ffffffffffffffffffffffffffffffffffffffff16632e1a7d4d826040518263ffffffff167c010000000000000000000000000000000000000000000000000000000002815260040180828152602001915050600060405180830381600087803b151561154557600080fd5b5af1151561155257600080fd5b5050505b6000809054906101000a900473ffffffffffffffffffffffffffffffffffffffff1673ffffffffffffffffffffffffffffffffffffffff166108fc3073ffffffffffffffffffffffffffffffffffffffff16319081150290604051600060405180830381858888f1935050505015156115ce57600080fd5b50565b6000809054906101000a900473ffffffffffffffffffffffffffffffffffffffff1673ffffffffffffffffffffffffffffffffffffffff163373ffffffffffffffffffffffffffffffffffffffff1614151561162c57600080fd5b80600160006101000a81548173ffffffffffffffffffffffffffffffffffffffff021916908373ffffffffffffffffffffffffffffffffffffffff16021790555050565b60106020528060005260406000206000915090505481565b600d5481565b6000809054906101000a900473ffffffffffffffffffffffffffffffffffffffff1673ffffffffffffffffffffffffffffffffffffffff163373ffffffffffffffffffffffffffffffffffffffff161415156116e957600080fd5b82600d8190555081600b8190555080600c81905550505050565b6000809054906101000a900473ffffffffffffffffffffffffffffffffffffffff1673ffffffffffffffffffffffffffffffffffffffff163373ffffffffffffffffffffffffffffffffffffffff1614151561175e57600080fd5b80600a8190555050565b600160009054906101000a900473ffffffffffffffffffffffffffffffffffffffff1681565b6000809054906101000a900473ffffffffffffffffffffffffffffffffffffffff1673ffffffffffffffffffffffffffffffffffffffff163373ffffffffffffffffffffffffffffffffffffffff161415156117e957600080fd5b80600860006101000a81548173ffffffffffffffffffffffffffffffffffffffff021916908373ffffffffffffffffffffffffffffffffffffffff16021790555080600760006101000a81548173ffffffffffffffffffffffffffffffffffffffff021916908373ffffffffffffffffffffffffffffffffffffffff16021790555050565b6000809054906101000a900473ffffffffffffffffffffffffffffffffffffffff1681565b600080600080600160009054906101000a900473ffffffffffffffffffffffffffffffffffffffff16600b54600c54600960009054906101000a900473ffffffffffffffffffffffffffffffffffffffff16935093509350935090919293565b6000809054906101000a900473ffffffffffffffffffffffffffffffffffffffff1673ffffffffffffffffffffffffffffffffffffffff163373ffffffffffffffffffffffffffffffffffffffff1614151561194e57600080fd5b80600560006101000a81548173ffffffffffffffffffffffffffffffffffffffff021916908373ffffffffffffffffffffffffffffffffffffffff16021790555080600660006101000a81548173ffffffffffffffffffffffffffffffffffffffff021916908373ffffffffffffffffffffffffffffffffffffffff16021790555050565b6000809054906101000a900473ffffffffffffffffffffffffffffffffffffffff1673ffffffffffffffffffffffffffffffffffffffff163373ffffffffffffffffffffffffffffffffffffffff16141515611a2e57600080fd5b80600260006101000a81548173ffffffffffffffffffffffffffffffffffffffff021916908373ffffffffffffffffffffffffffffffffffffffff16021790555050565b6000600f80549050905090565b6000600e80549050905090565b600f81815481101515611a9b57fe5b90600052602060002090016000915090505481565b60008060006201518085811515611ac357fe5b06141515611ad057600080fd5b8215611c3957600073ffffffffffffffffffffffffffffffffffffffff166011600086815260200190815260200160002060009054906101000a900473ffffffffffffffffffffffffffffffffffffffff1673ffffffffffffffffffffffffffffffffffffffff16141515611b4457600080fd5b600760009054906101000a900473ffffffffffffffffffffffffffffffffffffffff1673ffffffffffffffffffffffffffffffffffffffff1663c42bd05a6040518163ffffffff167c0100000000000000000000000000000000000000000000000000000000028152600401602060405180830381600087803b1515611bc957600080fd5b5af11515611bd657600080fd5b505050604051805190509050806011600086815260200190815260200160002060006101000a81548173ffffffffffffffffffffffffffffffffffffffff021916908373ffffffffffffffffffffffffffffffffffffffff160217905550611d98565b600073ffffffffffffffffffffffffffffffffffffffff166012600086815260200190815260200160002060009054906101000a900473ffffffffffffffffffffffffffffffffffffffff1673ffffffffffffffffffffffffffffffffffffffff16141515611ca757600080fd5b600760009054906101000a900473ffffffffffffffffffffffffffffffffffffffff1673ffffffffffffffffffffffffffffffffffffffff1663c42bd05a6040518163ffffffff167c0100000000000000000000000000000000000000000000000000000000028152600401602060405180830381600087803b1515611d2c57600080fd5b5af11515611d3957600080fd5b505050604051805190509050806012600086815260200190815260200160002060006101000a81548173ffffffffffffffffffffffffffffffffffffffff021916908373ffffffffffffffffffffffffffffffffffffffff1602179055505b600073ffffffffffffffffffffffffffffffffffffffff166012600086815260200190815260200160002060009054906101000a900473ffffffffffffffffffffffffffffffffffffffff1673ffffffffffffffffffffffffffffffffffffffff1614158015611e685750600073ffffffffffffffffffffffffffffffffffffffff166011600086815260200190815260200160002060009054906101000a900473ffffffffffffffffffffffffffffffffffffffff1673ffffffffffffffffffffffffffffffffffffffff1614155b15611e9757600f8054806001018281611e81919061219e565b9160005260206000209001600086909190915055505b8091505092915050565b6000600960009054906101000a900473ffffffffffffffffffffffffffffffffffffffff16905090565b600260009054906101000a900473ffffffffffffffffffffffffffffffffffffffff1681565b6000806011600084815260200190815260200160002060009054906101000a900473ffffffffffffffffffffffffffffffffffffffff166012600085815260200190815260200160002060009054906101000a900473ffffffffffffffffffffffffffffffffffffffff1691509150915091565b60116020528060005260406000206000915054906101000a900473ffffffffffffffffffffffffffffffffffffffff1681565b600a5481565b6000601060003373ffffffffffffffffffffffffffffffffffffffff1673ffffffffffffffffffffffffffffffffffffffff16815260200190815260200160002054111515611fec57600080fd5b80600360006101000a81548173ffffffffffffffffffffffffffffffffffffffff021916908373ffffffffffffffffffffffffffffffffffffffff160217905550600360009054906101000a900473ffffffffffffffffffffffffffffffffffffffff1673ffffffffffffffffffffffffffffffffffffffff1663bd0af85d83336040518363ffffffff167c0100000000000000000000000000000000000000000000000000000000028152600401808373ffffffffffffffffffffffffffffffffffffffff1673ffffffffffffffffffffffffffffffffffffffff1681526020018273ffffffffffffffffffffffffffffffffffffffff1673ffffffffffffffffffffffffffffffffffffffff16815260200192505050600060405180830381600087803b151561211d57600080fd5b5af1151561212a57600080fd5b5050505050565b600960009054906101000a900473ffffffffffffffffffffffffffffffffffffffff1681565b600080828481151561216557fe5b0490508091505092915050565b8154818355818115116121995781836000526020600020918201910161219891906121ca565b5b505050565b8154818355818115116121c5578183600052602060002091820191016121c491906121ca565b5b505050565b6121ec91905b808211156121e85760008160009055506001016121d0565b5090565b905600a165627a7a72305820967bfc404de3d970582c135af9fb22715a5d18ae67ad25206f2592c7284917f10029",
  "source": "pragma solidity ^0.4.17;\r\n\r\nimport \"./interfaces/Deployer_Interface.sol\";\r\nimport \"./interfaces/DRCT_Token_Interface.sol\";\r\nimport \"./libraries/SafeMath.sol\";\r\nimport \"./interfaces/Wrapped_Ether_Interface.sol\";\r\n\r\n\r\n/**\r\n*The Factory contract sets the standardized variables and also deploys new contracts based on\r\n*these variables for the user.  \r\n*/\r\ncontract Factory {\r\n  using SafeMath for uint256;\r\n  \r\n  /*Variables*/\r\n  //Addresses of the Factory owner and oracle. For oracle information, \r\n  //check www.github.com/DecentralizedDerivatives/Oracles\r\n  address public owner;\r\n  address public oracle_address;\r\n\r\n  //Address of the user contract\r\n  address public user_contract;\r\n  DRCT_Token_Interface drct_interface;\r\n  Wrapped_Ether_Interface token_interface;\r\n\r\n  //Address of the deployer contract\r\n  address deployer_address;\r\n  Deployer_Interface deployer;\r\n  Deployer_Interface tokenDeployer;\r\n  address token_deployer_address;\r\n\r\n  address public token;\r\n\r\n  //A fee for creating a swap in wei.  Plan is for this to be zero, however can be raised to prevent spam\r\n  uint public fee;\r\n  //Duration of swap contract in days\r\n  uint public duration;\r\n  //Multiplier of reference rate.  2x refers to a 50% move generating a 100% move in the contract payout values\r\n  uint public multiplier;\r\n  //Token_ratio refers to the number of DRCT Tokens a party will get based on the number of base tokens.  As an example, 1e15 indicates that a party will get 1000 DRCT Tokens based upon 1 ether of wrapped wei. \r\n  uint public token_ratio;\r\n\r\n\r\n  //Array of deployed contracts\r\n  address[] public contracts;\r\n  uint[] public startDates;\r\n  mapping(address => uint) public created_contracts;\r\n  mapping(uint => address) public long_tokens;\r\n  mapping(uint => address) public short_tokens;\r\n\r\n  /*Events*/\r\n  //Emitted when a Swap is created\r\n  event ContractCreation(address _sender, address _created);\r\n\r\n  /*Modifiers*/\r\n  modifier onlyOwner() {\r\n    require(msg.sender == owner);\r\n    _;\r\n  }\r\n\r\n  /*Functions*/\r\n  /**\r\n    *@dev Constructor - Sets owner\r\n  */\r\n  function Factory() public {\r\n    owner = msg.sender;\r\n  }\r\n\r\n  /**\r\n    *@dev Gets long and short token addresses based on specified date\r\n    *@param uint_date\r\n    *@return short and long tokens' addresses\r\n  */\r\n  function getTokens(uint _date) public view returns(address, address){\r\n    return(long_tokens[_date],short_tokens[_date]);\r\n  }\r\n\r\n  /*\r\n  * Updates the fee amount\r\n  * @param \"_fee\": The new fee amount\r\n  */\r\n  function setFee(uint _fee) public onlyOwner() {\r\n    fee = _fee;\r\n  }\r\n\r\n  /*\r\n  * Sets the deployer address\r\n  * @param \"_deployer\": The new deployer address\r\n  */\r\n  function setDeployer(address _deployer) public onlyOwner() {\r\n    deployer_address = _deployer;\r\n    deployer = Deployer_Interface(_deployer);\r\n  }\r\n\r\n  /*\r\n  * Sets the token_deployer address\r\n  * @param \"_tdeployer\": The new token deployer address\r\n  */  \r\n  function setTokenDeployer(address _tdeployer) public onlyOwner() {\r\n    token_deployer_address = _tdeployer;\r\n    tokenDeployer = Deployer_Interface(_tdeployer);\r\n  }\r\n  /*\r\n  * Sets the user_contract address\r\n  * @param \"_userContract\": The new userContract address\r\n  */\r\n  function setUserContract(address _userContract) public onlyOwner() {\r\n    user_contract = _userContract;\r\n  }\r\n\r\n  /*\r\n    *@dev The base token is the token used as collateral in the contract\r\n    *@return Returns the base token address\r\n  */\r\n  function getBase() public view returns(address){\r\n    return (token);\r\n  }\r\n\r\n   /*\r\n    *@dev Sets token ratio, swap duration, and multiplier variables for a swap\r\n    *@param _token_ratio the ratio of the tokens\r\n    *@param _duration the duration of the swap, in seconds\r\n    *@param _multiplier the multiplier used for the swap\r\n   */\r\n  function setVariables(uint _token_ratio, uint _duration, uint _multiplier) public onlyOwner() {\r\n    token_ratio = _token_ratio;\r\n    duration = _duration;\r\n    multiplier = _multiplier;\r\n  }\r\n\r\n  /*\r\n    *@dev Sets the addresses of the tokens used for the swap\r\n    *@param _token The address of a token to be used  as collateral\r\n  */\r\n  function setBaseToken(address _token) public onlyOwner() {\r\n    token = _token;\r\n  }\r\n\r\n  /**\r\n    *@dev Allows a user to deploy a new swap contract, if they pay the fee\r\n    *@param _start_date the contract start date or date contract was created?\r\n    *@return returns the newly created swap address and calls event 'ContractCreation'\r\n  */\r\n  function deployContract(uint _start_date) public payable returns (address) {\r\n    require(msg.value >= fee);\r\n    require(_start_date % 86400 == 0);\r\n    address new_contract = deployer.newContract(msg.sender, user_contract, _start_date);\r\n    contracts.push(new_contract);\r\n    created_contracts[new_contract] = _start_date;\r\n    emit ContractCreation(msg.sender,new_contract);\r\n    return new_contract;\r\n  }\r\n\r\n\r\n    /**\r\n    *@dev Deploys DRCT tokens for given start date\r\n    *@param _start_date of contract\r\n    *@param long if true\r\n    *@return returns token address of deployed contract\r\n  */\r\n  function deployTokenContract(uint _start_date, bool _long) public returns(address) {\r\n    address _token;\r\n    require(_start_date % 86400 == 0);\r\n    if (_long){\r\n      require(long_tokens[_start_date] == address(0));\r\n      _token = tokenDeployer.newToken();\r\n      long_tokens[_start_date] = _token;\r\n    }\r\n    else{\r\n      require(short_tokens[_start_date] == address(0));\r\n      _token = tokenDeployer.newToken();\r\n      short_tokens[_start_date] = _token;\r\n    }\r\n    if(short_tokens[_start_date] != address(0) && long_tokens[_start_date] != address(0)){\r\n      startDates.push(_start_date);\r\n    }\r\n    return _token;\r\n  }\r\n\r\n\r\n\r\n\r\n  /*\r\n    *@dev Deploys new tokens on a DRCT_Token contract -- called from within a swap\r\n    *@param _supply The number of tokens to create\r\n    *@param _party the address to send the tokens to\r\n    *@param _start_date the start date of the contract?       \r\n    *@returns ltoken the address of the created DRCT long tokens?\r\n    *@returns stoken the address of the created DRCT short tokens?\r\n    *@returns token_ratio The ratio of the created DRCT token\r\n  */\r\n  function createToken(uint _supply, address _party, uint _start_date) public returns (address, address, uint) {\r\n    require(created_contracts[msg.sender] == _start_date);\r\n    address ltoken = long_tokens[_start_date];\r\n    address stoken = short_tokens[_start_date];\r\n    require(ltoken != address(0) && stoken != address(0));\r\n      drct_interface = DRCT_Token_Interface(ltoken);\r\n      drct_interface.createToken(_supply.div(token_ratio), _party,msg.sender);\r\n      drct_interface = DRCT_Token_Interface(stoken);\r\n      drct_interface.createToken(_supply.div(token_ratio), _party,msg.sender);\r\n    return (ltoken, stoken, token_ratio);\r\n  }\r\n\r\n  \r\n    /**\r\n    *@dev Allows the owner to set a new oracle address\r\n    *@param _new_oracle_address \r\n    */\r\n    function setOracleAddress(address _new_oracle_address) public onlyOwner() {\r\n        oracle_address = _new_oracle_address; \r\n    }\r\n\r\n  /**\r\n    *@dev Allows the owner to set a new owner address\r\n    *@param _new_owner the new owner address\r\n  */\r\n  function setOwner(address _new_owner) public onlyOwner() { owner = _new_owner; }\r\n\r\n  /**\r\n    *@dev Allows the owner to pull contract creation fees\r\n    *@return the withdrawal fee _val and the balance where is the return function?\r\n  */\r\n  function withdrawFees() public onlyOwner(){\r\n   token_interface = Wrapped_Ether_Interface(token);\r\n   uint _val = token_interface.balanceOf(address(this));\r\n   if(_val > 0){\r\n      token_interface.withdraw(_val);\r\n    }\r\n          owner.transfer(this.balance);\r\n   }\r\n\r\n  /**\r\n    *@dev fallback function\r\n  */ \r\n  function() public payable {\r\n   }\r\n\r\n  /*\r\n    *@dev Returns a tuple of many private variables\r\n    *@returns oracle_adress\": The address of the oracle\r\n    *@returns duration The duration of the swap\r\n    *@returns multiplier The multiplier for the swap\r\n    *@returns token The address of token \r\n  */\r\n  function getVariables() public view returns (address, uint, uint, address){\r\n    return (oracle_address,duration, multiplier, token);\r\n  }\r\n\r\n  /*\r\n  * Pays out to a DRCT token\r\n  * @param \"_party\": The address being paid\r\n  * @param \"_long\": Whether the _party is long or not\r\n  */\r\n  function payToken(address _party, address _token_add) public {\r\n    require(created_contracts[msg.sender] > 0);\r\n    drct_interface = DRCT_Token_Interface(_token_add);\r\n    drct_interface.pay(_party, msg.sender);\r\n  }\r\n\r\n  /**\r\n    *@dev Counts number of contacts created by this factory\r\n    *@return the number of contracts\r\n  */\r\n  function getCount() public constant returns(uint) {\r\n      return contracts.length;\r\n  }\r\n\r\n\r\n  /**\r\n    *@dev Counts number of start dates in this factory\r\n    *@return the number of active start dates\r\n  */\r\n  function getDateCount() public constant returns(uint) {\r\n      return startDates.length;\r\n  }\r\n}\r\n",
  "sourcePath": "C:\\company\\code\\drct_standard\\contracts\\Factory.sol",
  "compiler": {
    "name": "solc",
    "version": "0.4.21+commit.dfe3193c.Emscripten.clang"
  },
  "schemaVersion": "2.0.0",
  "updatedAt": "2018-04-23T18:04:23.930Z"
}