{
  "contractName": "Factory",
  "abi": [
    {
      "constant": true,
      "inputs": [],
      "name": "duration",
      "outputs": [
        {
          "name": "",
          "type": "uint256"
        }
      ],
      "payable": false,
      "stateMutability": "view",
      "type": "function"
    },
    {
      "constant": true,
      "inputs": [],
      "name": "multiplier",
      "outputs": [
        {
          "name": "",
          "type": "uint256"
        }
      ],
      "payable": false,
      "stateMutability": "view",
      "type": "function"
    },
    {
      "constant": true,
      "inputs": [
        {
          "name": "",
          "type": "uint256"
        }
      ],
      "name": "short_tokens",
      "outputs": [
        {
          "name": "",
          "type": "address"
        }
      ],
      "payable": false,
      "stateMutability": "view",
      "type": "function"
    },
    {
      "constant": true,
      "inputs": [
        {
          "name": "",
          "type": "uint256"
        }
      ],
      "name": "contracts",
      "outputs": [
        {
          "name": "",
          "type": "address"
        }
      ],
      "payable": false,
      "stateMutability": "view",
      "type": "function"
    },
    {
      "constant": true,
      "inputs": [
        {
          "name": "",
          "type": "address"
        }
      ],
      "name": "created_contracts",
      "outputs": [
        {
          "name": "",
          "type": "uint256"
        }
      ],
      "payable": false,
      "stateMutability": "view",
      "type": "function"
    },
    {
      "constant": true,
      "inputs": [],
      "name": "token_ratio",
      "outputs": [
        {
          "name": "",
          "type": "uint256"
        }
      ],
      "payable": false,
      "stateMutability": "view",
      "type": "function"
    },
    {
      "constant": true,
      "inputs": [],
      "name": "oracle_address",
      "outputs": [
        {
          "name": "",
          "type": "address"
        }
      ],
      "payable": false,
      "stateMutability": "view",
      "type": "function"
    },
    {
      "constant": true,
      "inputs": [],
      "name": "owner",
      "outputs": [
        {
          "name": "",
          "type": "address"
        }
      ],
      "payable": false,
      "stateMutability": "view",
      "type": "function"
    },
    {
      "constant": true,
      "inputs": [],
      "name": "user_contract",
      "outputs": [
        {
          "name": "",
          "type": "address"
        }
      ],
      "payable": false,
      "stateMutability": "view",
      "type": "function"
    },
    {
      "constant": true,
      "inputs": [
        {
          "name": "",
          "type": "uint256"
        }
      ],
      "name": "long_tokens",
      "outputs": [
        {
          "name": "",
          "type": "address"
        }
      ],
      "payable": false,
      "stateMutability": "view",
      "type": "function"
    },
    {
      "constant": true,
      "inputs": [],
      "name": "fee",
      "outputs": [
        {
          "name": "",
          "type": "uint256"
        }
      ],
      "payable": false,
      "stateMutability": "view",
      "type": "function"
    },
    {
      "constant": true,
      "inputs": [],
      "name": "token",
      "outputs": [
        {
          "name": "",
          "type": "address"
        }
      ],
      "payable": false,
      "stateMutability": "view",
      "type": "function"
    },
    {
      "inputs": [],
      "payable": false,
      "stateMutability": "nonpayable",
      "type": "constructor"
    },
    {
      "payable": true,
      "stateMutability": "payable",
      "type": "fallback"
    },
    {
      "anonymous": false,
      "inputs": [
        {
          "indexed": false,
          "name": "_sender",
          "type": "address"
        },
        {
          "indexed": false,
          "name": "_created",
          "type": "address"
        }
      ],
      "name": "ContractCreation",
      "type": "event"
    },
    {
      "constant": true,
      "inputs": [
        {
          "name": "_date",
          "type": "uint256"
        }
      ],
      "name": "getTokens",
      "outputs": [
        {
          "name": "",
          "type": "address"
        },
        {
          "name": "",
          "type": "address"
        }
      ],
      "payable": false,
      "stateMutability": "view",
      "type": "function"
    },
    {
      "constant": false,
      "inputs": [
        {
          "name": "_fee",
          "type": "uint256"
        }
      ],
      "name": "setFee",
      "outputs": [],
      "payable": false,
      "stateMutability": "nonpayable",
      "type": "function"
    },
    {
      "constant": false,
      "inputs": [
        {
          "name": "_deployer",
          "type": "address"
        }
      ],
      "name": "setDeployer",
      "outputs": [],
      "payable": false,
      "stateMutability": "nonpayable",
      "type": "function"
    },
    {
      "constant": false,
      "inputs": [
        {
          "name": "_tdeployer",
          "type": "address"
        }
      ],
      "name": "settokenDeployer",
      "outputs": [],
      "payable": false,
      "stateMutability": "nonpayable",
      "type": "function"
    },
    {
      "constant": false,
      "inputs": [
        {
          "name": "_userContract",
          "type": "address"
        }
      ],
      "name": "setUserContract",
      "outputs": [],
      "payable": false,
      "stateMutability": "nonpayable",
      "type": "function"
    },
    {
      "constant": true,
      "inputs": [],
      "name": "getBase",
      "outputs": [
        {
          "name": "",
          "type": "address"
        }
      ],
      "payable": false,
      "stateMutability": "view",
      "type": "function"
    },
    {
      "constant": false,
      "inputs": [
        {
          "name": "_token_ratio",
          "type": "uint256"
        },
        {
          "name": "_duration",
          "type": "uint256"
        },
        {
          "name": "_multiplier",
          "type": "uint256"
        }
      ],
      "name": "setVariables",
      "outputs": [],
      "payable": false,
      "stateMutability": "nonpayable",
      "type": "function"
    },
    {
      "constant": false,
      "inputs": [
        {
          "name": "_token",
          "type": "address"
        }
      ],
      "name": "setBaseToken",
      "outputs": [],
      "payable": false,
      "stateMutability": "nonpayable",
      "type": "function"
    },
    {
      "constant": false,
      "inputs": [
        {
          "name": "_start_date",
          "type": "uint256"
        }
      ],
      "name": "deployContract",
      "outputs": [
        {
          "name": "",
          "type": "address"
        }
      ],
      "payable": true,
      "stateMutability": "payable",
      "type": "function"
    },
    {
      "constant": false,
      "inputs": [
        {
          "name": "_start_date",
          "type": "uint256"
        },
        {
          "name": "_long",
          "type": "bool"
        }
      ],
      "name": "deployTokenContract",
      "outputs": [
        {
          "name": "",
          "type": "address"
        }
      ],
      "payable": false,
      "stateMutability": "nonpayable",
      "type": "function"
    },
    {
      "constant": false,
      "inputs": [
        {
          "name": "_supply",
          "type": "uint256"
        },
        {
          "name": "_party",
          "type": "address"
        },
        {
          "name": "_start_date",
          "type": "uint256"
        }
      ],
      "name": "createToken",
      "outputs": [
        {
          "name": "",
          "type": "address"
        },
        {
          "name": "",
          "type": "address"
        },
        {
          "name": "",
          "type": "uint256"
        }
      ],
      "payable": false,
      "stateMutability": "nonpayable",
      "type": "function"
    },
    {
      "constant": false,
      "inputs": [
        {
          "name": "_new_oracle_address",
          "type": "address"
        }
      ],
      "name": "setOracleAddress",
      "outputs": [],
      "payable": false,
      "stateMutability": "nonpayable",
      "type": "function"
    },
    {
      "constant": false,
      "inputs": [
        {
          "name": "_new_owner",
          "type": "address"
        }
      ],
      "name": "setOwner",
      "outputs": [],
      "payable": false,
      "stateMutability": "nonpayable",
      "type": "function"
    },
    {
      "constant": false,
      "inputs": [],
      "name": "withdrawFees",
      "outputs": [
        {
          "name": "",
          "type": "uint256"
        },
        {
          "name": "",
          "type": "uint256"
        }
      ],
      "payable": false,
      "stateMutability": "nonpayable",
      "type": "function"
    },
    {
      "constant": true,
      "inputs": [],
      "name": "getVariables",
      "outputs": [
        {
          "name": "",
          "type": "address"
        },
        {
          "name": "",
          "type": "uint256"
        },
        {
          "name": "",
          "type": "uint256"
        },
        {
          "name": "",
          "type": "address"
        }
      ],
      "payable": false,
      "stateMutability": "view",
      "type": "function"
    },
    {
      "constant": false,
      "inputs": [
        {
          "name": "_party",
          "type": "address"
        },
        {
          "name": "_token_add",
          "type": "address"
        }
      ],
      "name": "payToken",
      "outputs": [],
      "payable": false,
      "stateMutability": "nonpayable",
      "type": "function"
    },
    {
      "constant": true,
      "inputs": [],
      "name": "getCount",
      "outputs": [
        {
          "name": "",
          "type": "uint256"
        }
      ],
      "payable": false,
      "stateMutability": "view",
      "type": "function"
    }
  ],
  "bytecode": "0x6060604052341561000f57600080fd5b336000806101000a81548173ffffffffffffffffffffffffffffffffffffffff021916908373ffffffffffffffffffffffffffffffffffffffff1602179055506120738061005e6000396000f300606060405260043610610175576000357c0100000000000000000000000000000000000000000000000000000000900463ffffffff16806308911cd5146101775780630fb5a6b4146101b057806313af4035146101d957806316bb6c13146102125780631b3ed7221461024b5780631cf41a81146102745780632a7292d0146102cc57806331fa76db14610391578063474da79a146103f4578063476343ee146104575780634c69c00f146104875780634efb04ff146104c05780635c5991d41461050d57806362628e661461053657806369fe0e2d1461056b5780637e0c17921461058e5780638da5cb5b146105e357806394aef0221461063857806396214735146106ce578063a1206d4e14610707578063a87d942c14610740578063b7f545cc14610769578063d104a136146107d7578063d3749a151461082c578063d3c9cc2614610881578063dc54d91914610917578063ddca3f431461097a578063ecb14519146109a3578063fc0c546a146109fb575b005b341561018257600080fd5b6101ae600480803573ffffffffffffffffffffffffffffffffffffffff16906020019091905050610a50565b005b34156101bb57600080fd5b6101c3610b30565b6040518082815260200191505060405180910390f35b34156101e457600080fd5b610210600480803573ffffffffffffffffffffffffffffffffffffffff16906020019091905050610b36565b005b341561021d57600080fd5b610249600480803573ffffffffffffffffffffffffffffffffffffffff16906020019091905050610bd4565b005b341561025657600080fd5b61025e610c73565b6040518082815260200191505060405180910390f35b61028a6004808035906020019091905050610c79565b604051808273ffffffffffffffffffffffffffffffffffffffff1673ffffffffffffffffffffffffffffffffffffffff16815260200191505060405180910390f35b34156102d757600080fd5b610315600480803590602001909190803573ffffffffffffffffffffffffffffffffffffffff16906020019091908035906020019091905050610f14565b604051808473ffffffffffffffffffffffffffffffffffffffff1673ffffffffffffffffffffffffffffffffffffffff1681526020018373ffffffffffffffffffffffffffffffffffffffff1673ffffffffffffffffffffffffffffffffffffffff168152602001828152602001935050505060405180910390f35b341561039c57600080fd5b6103b26004808035906020019091905050611322565b604051808273ffffffffffffffffffffffffffffffffffffffff1673ffffffffffffffffffffffffffffffffffffffff16815260200191505060405180910390f35b34156103ff57600080fd5b6104156004808035906020019091905050611355565b604051808273ffffffffffffffffffffffffffffffffffffffff1673ffffffffffffffffffffffffffffffffffffffff16815260200191505060405180910390f35b341561046257600080fd5b61046a611394565b604051808381526020018281526020019250505060405180910390f35b341561049257600080fd5b6104be600480803573ffffffffffffffffffffffffffffffffffffffff16906020019091905050611664565b005b34156104cb57600080fd5b6104f7600480803573ffffffffffffffffffffffffffffffffffffffff16906020019091905050611703565b6040518082815260200191505060405180910390f35b341561051857600080fd5b61052061171b565b6040518082815260200191505060405180910390f35b341561054157600080fd5b6105696004808035906020019091908035906020019091908035906020019091905050611721565b005b341561057657600080fd5b61058c6004808035906020019091905050611796565b005b341561059957600080fd5b6105a16117fb565b604051808273ffffffffffffffffffffffffffffffffffffffff1673ffffffffffffffffffffffffffffffffffffffff16815260200191505060405180910390f35b34156105ee57600080fd5b6105f6611821565b604051808273ffffffffffffffffffffffffffffffffffffffff1673ffffffffffffffffffffffffffffffffffffffff16815260200191505060405180910390f35b341561064357600080fd5b61064b611846565b604051808573ffffffffffffffffffffffffffffffffffffffff1673ffffffffffffffffffffffffffffffffffffffff1681526020018481526020018381526020018273ffffffffffffffffffffffffffffffffffffffff1673ffffffffffffffffffffffffffffffffffffffff16815260200194505050505060405180910390f35b34156106d957600080fd5b610705600480803573ffffffffffffffffffffffffffffffffffffffff169060200190919050506118a6565b005b341561071257600080fd5b61073e600480803573ffffffffffffffffffffffffffffffffffffffff16906020019091905050611986565b005b341561074b57600080fd5b610753611a25565b6040518082815260200191505060405180910390f35b341561077457600080fd5b61079560048080359060200190919080351515906020019091905050611a32565b604051808273ffffffffffffffffffffffffffffffffffffffff1673ffffffffffffffffffffffffffffffffffffffff16815260200191505060405180910390f35b34156107e257600080fd5b6107ea611d21565b604051808273ffffffffffffffffffffffffffffffffffffffff1673ffffffffffffffffffffffffffffffffffffffff16815260200191505060405180910390f35b341561083757600080fd5b61083f611d4b565b604051808273ffffffffffffffffffffffffffffffffffffffff1673ffffffffffffffffffffffffffffffffffffffff16815260200191505060405180910390f35b341561088c57600080fd5b6108a26004808035906020019091905050611d71565b604051808373ffffffffffffffffffffffffffffffffffffffff1673ffffffffffffffffffffffffffffffffffffffff1681526020018273ffffffffffffffffffffffffffffffffffffffff1673ffffffffffffffffffffffffffffffffffffffff1681526020019250505060405180910390f35b341561092257600080fd5b6109386004808035906020019091905050611de5565b604051808273ffffffffffffffffffffffffffffffffffffffff1673ffffffffffffffffffffffffffffffffffffffff16815260200191505060405180910390f35b341561098557600080fd5b61098d611e18565b6040518082815260200191505060405180910390f35b34156109ae57600080fd5b6109f9600480803573ffffffffffffffffffffffffffffffffffffffff1690602001909190803573ffffffffffffffffffffffffffffffffffffffff16906020019091905050611e1e565b005b3415610a0657600080fd5b610a0e611fb5565b604051808273ffffffffffffffffffffffffffffffffffffffff1673ffffffffffffffffffffffffffffffffffffffff16815260200191505060405180910390f35b6000809054906101000a900473ffffffffffffffffffffffffffffffffffffffff1673ffffffffffffffffffffffffffffffffffffffff163373ffffffffffffffffffffffffffffffffffffffff16141515610aab57600080fd5b80600860006101000a81548173ffffffffffffffffffffffffffffffffffffffff021916908373ffffffffffffffffffffffffffffffffffffffff16021790555080600760006101000a81548173ffffffffffffffffffffffffffffffffffffffff021916908373ffffffffffffffffffffffffffffffffffffffff16021790555050565b600b5481565b6000809054906101000a900473ffffffffffffffffffffffffffffffffffffffff1673ffffffffffffffffffffffffffffffffffffffff163373ffffffffffffffffffffffffffffffffffffffff16141515610b9157600080fd5b806000806101000a81548173ffffffffffffffffffffffffffffffffffffffff021916908373ffffffffffffffffffffffffffffffffffffffff16021790555050565b6000809054906101000a900473ffffffffffffffffffffffffffffffffffffffff1673ffffffffffffffffffffffffffffffffffffffff163373ffffffffffffffffffffffffffffffffffffffff16141515610c2f57600080fd5b80600960006101000a81548173ffffffffffffffffffffffffffffffffffffffff021916908373ffffffffffffffffffffffffffffffffffffffff16021790555050565b600c5481565b600080600a543410151515610c8d57600080fd5b600660009054906101000a900473ffffffffffffffffffffffffffffffffffffffff1673ffffffffffffffffffffffffffffffffffffffff1663548dd51e33600260009054906101000a900473ffffffffffffffffffffffffffffffffffffffff16866000604051602001526040518463ffffffff167c0100000000000000000000000000000000000000000000000000000000028152600401808473ffffffffffffffffffffffffffffffffffffffff1673ffffffffffffffffffffffffffffffffffffffff1681526020018373ffffffffffffffffffffffffffffffffffffffff1673ffffffffffffffffffffffffffffffffffffffff1681526020018281526020019350505050602060405180830381600087803b1515610db057600080fd5b6102c65a03f11515610dc157600080fd5b505050604051805190509050600e8054806001018281610de19190611ff6565b9160005260206000209001600083909190916101000a81548173ffffffffffffffffffffffffffffffffffffffff021916908373ffffffffffffffffffffffffffffffffffffffff1602179055505082600f60008373ffffffffffffffffffffffffffffffffffffffff1673ffffffffffffffffffffffffffffffffffffffff168152602001908152602001600020819055507fb6c9f70724e4ce6b9bca2eace320dd3164063f0a0b229f8c4705ef05be829c253382604051808373ffffffffffffffffffffffffffffffffffffffff1673ffffffffffffffffffffffffffffffffffffffff1681526020018273ffffffffffffffffffffffffffffffffffffffff1673ffffffffffffffffffffffffffffffffffffffff1681526020019250505060405180910390a180915050919050565b600080600080600085600f60003373ffffffffffffffffffffffffffffffffffffffff1673ffffffffffffffffffffffffffffffffffffffff16815260200190815260200160002054141515610f6957600080fd5b6010600087815260200190815260200160002060009054906101000a900473ffffffffffffffffffffffffffffffffffffffff1691506011600087815260200190815260200160002060009054906101000a900473ffffffffffffffffffffffffffffffffffffffff169050600073ffffffffffffffffffffffffffffffffffffffff168273ffffffffffffffffffffffffffffffffffffffff161415801561103f5750600073ffffffffffffffffffffffffffffffffffffffff168173ffffffffffffffffffffffffffffffffffffffff1614155b151561104a57600080fd5b81600360006101000a81548173ffffffffffffffffffffffffffffffffffffffff021916908373ffffffffffffffffffffffffffffffffffffffff160217905550600360009054906101000a900473ffffffffffffffffffffffffffffffffffffffff1673ffffffffffffffffffffffffffffffffffffffff1663e6ed51b76110de600d548b611fdb90919063ffffffff16565b89336040518463ffffffff167c0100000000000000000000000000000000000000000000000000000000028152600401808481526020018373ffffffffffffffffffffffffffffffffffffffff1673ffffffffffffffffffffffffffffffffffffffff1681526020018273ffffffffffffffffffffffffffffffffffffffff1673ffffffffffffffffffffffffffffffffffffffff1681526020019350505050600060405180830381600087803b151561119757600080fd5b6102c65a03f115156111a857600080fd5b50505080600360006101000a81548173ffffffffffffffffffffffffffffffffffffffff021916908373ffffffffffffffffffffffffffffffffffffffff160217905550600360009054906101000a900473ffffffffffffffffffffffffffffffffffffffff1673ffffffffffffffffffffffffffffffffffffffff1663e6ed51b761123f600d548b611fdb90919063ffffffff16565b89336040518463ffffffff167c0100000000000000000000000000000000000000000000000000000000028152600401808481526020018373ffffffffffffffffffffffffffffffffffffffff1673ffffffffffffffffffffffffffffffffffffffff1681526020018273ffffffffffffffffffffffffffffffffffffffff1673ffffffffffffffffffffffffffffffffffffffff1681526020019350505050600060405180830381600087803b15156112f857600080fd5b6102c65a03f1151561130957600080fd5b5050508181600d54945094509450505093509350939050565b60116020528060005260406000206000915054906101000a900473ffffffffffffffffffffffffffffffffffffffff1681565b600e8181548110151561136457fe5b90600052602060002090016000915054906101000a900473ffffffffffffffffffffffffffffffffffffffff1681565b60008060008060009054906101000a900473ffffffffffffffffffffffffffffffffffffffff1673ffffffffffffffffffffffffffffffffffffffff163373ffffffffffffffffffffffffffffffffffffffff161415156113f457600080fd5b600960009054906101000a900473ffffffffffffffffffffffffffffffffffffffff16600460006101000a81548173ffffffffffffffffffffffffffffffffffffffff021916908373ffffffffffffffffffffffffffffffffffffffff160217905550600460009054906101000a900473ffffffffffffffffffffffffffffffffffffffff1673ffffffffffffffffffffffffffffffffffffffff166370a08231306000604051602001526040518263ffffffff167c0100000000000000000000000000000000000000000000000000000000028152600401808273ffffffffffffffffffffffffffffffffffffffff1673ffffffffffffffffffffffffffffffffffffffff168152602001915050602060405180830381600087803b151561151c57600080fd5b6102c65a03f1151561152d57600080fd5b50505060405180519050905060008111156115e757600460009054906101000a900473ffffffffffffffffffffffffffffffffffffffff1673ffffffffffffffffffffffffffffffffffffffff16632e1a7d4d826040518263ffffffff167c010000000000000000000000000000000000000000000000000000000002815260040180828152602001915050600060405180830381600087803b15156115d257600080fd5b6102c65a03f115156115e357600080fd5b5050505b6000809054906101000a900473ffffffffffffffffffffffffffffffffffffffff1673ffffffffffffffffffffffffffffffffffffffff166108fc3073ffffffffffffffffffffffffffffffffffffffff16319081150290604051600060405180830381858888f19350505050151561165f57600080fd5b509091565b6000809054906101000a900473ffffffffffffffffffffffffffffffffffffffff1673ffffffffffffffffffffffffffffffffffffffff163373ffffffffffffffffffffffffffffffffffffffff161415156116bf57600080fd5b80600160006101000a81548173ffffffffffffffffffffffffffffffffffffffff021916908373ffffffffffffffffffffffffffffffffffffffff16021790555050565b600f6020528060005260406000206000915090505481565b600d5481565b6000809054906101000a900473ffffffffffffffffffffffffffffffffffffffff1673ffffffffffffffffffffffffffffffffffffffff163373ffffffffffffffffffffffffffffffffffffffff1614151561177c57600080fd5b82600d8190555081600b8190555080600c81905550505050565b6000809054906101000a900473ffffffffffffffffffffffffffffffffffffffff1673ffffffffffffffffffffffffffffffffffffffff163373ffffffffffffffffffffffffffffffffffffffff161415156117f157600080fd5b80600a8190555050565b600160009054906101000a900473ffffffffffffffffffffffffffffffffffffffff1681565b6000809054906101000a900473ffffffffffffffffffffffffffffffffffffffff1681565b600080600080600160009054906101000a900473ffffffffffffffffffffffffffffffffffffffff16600b54600c54600960009054906101000a900473ffffffffffffffffffffffffffffffffffffffff16935093509350935090919293565b6000809054906101000a900473ffffffffffffffffffffffffffffffffffffffff1673ffffffffffffffffffffffffffffffffffffffff163373ffffffffffffffffffffffffffffffffffffffff1614151561190157600080fd5b80600560006101000a81548173ffffffffffffffffffffffffffffffffffffffff021916908373ffffffffffffffffffffffffffffffffffffffff16021790555080600660006101000a81548173ffffffffffffffffffffffffffffffffffffffff021916908373ffffffffffffffffffffffffffffffffffffffff16021790555050565b6000809054906101000a900473ffffffffffffffffffffffffffffffffffffffff1673ffffffffffffffffffffffffffffffffffffffff163373ffffffffffffffffffffffffffffffffffffffff161415156119e157600080fd5b80600260006101000a81548173ffffffffffffffffffffffffffffffffffffffff021916908373ffffffffffffffffffffffffffffffffffffffff16021790555050565b6000600e80549050905090565b6000808215611bab57600073ffffffffffffffffffffffffffffffffffffffff166010600086815260200190815260200160002060009054906101000a900473ffffffffffffffffffffffffffffffffffffffff1673ffffffffffffffffffffffffffffffffffffffff16141515611aa957600080fd5b600760009054906101000a900473ffffffffffffffffffffffffffffffffffffffff1673ffffffffffffffffffffffffffffffffffffffff1663c42bd05a6000604051602001526040518163ffffffff167c0100000000000000000000000000000000000000000000000000000000028152600401602060405180830381600087803b1515611b3757600080fd5b6102c65a03f11515611b4857600080fd5b505050604051805190509050806010600086815260200190815260200160002060006101000a81548173ffffffffffffffffffffffffffffffffffffffff021916908373ffffffffffffffffffffffffffffffffffffffff160217905550611d17565b600073ffffffffffffffffffffffffffffffffffffffff166011600086815260200190815260200160002060009054906101000a900473ffffffffffffffffffffffffffffffffffffffff1673ffffffffffffffffffffffffffffffffffffffff16141515611c1957600080fd5b600760009054906101000a900473ffffffffffffffffffffffffffffffffffffffff1673ffffffffffffffffffffffffffffffffffffffff1663c42bd05a6000604051602001526040518163ffffffff167c0100000000000000000000000000000000000000000000000000000000028152600401602060405180830381600087803b1515611ca757600080fd5b6102c65a03f11515611cb857600080fd5b505050604051805190509050806011600086815260200190815260200160002060006101000a81548173ffffffffffffffffffffffffffffffffffffffff021916908373ffffffffffffffffffffffffffffffffffffffff1602179055505b8091505092915050565b6000600960009054906101000a900473ffffffffffffffffffffffffffffffffffffffff16905090565b600260009054906101000a900473ffffffffffffffffffffffffffffffffffffffff1681565b6000806010600084815260200190815260200160002060009054906101000a900473ffffffffffffffffffffffffffffffffffffffff166011600085815260200190815260200160002060009054906101000a900473ffffffffffffffffffffffffffffffffffffffff1691509150915091565b60106020528060005260406000206000915054906101000a900473ffffffffffffffffffffffffffffffffffffffff1681565b600a5481565b6000600f60003373ffffffffffffffffffffffffffffffffffffffff1673ffffffffffffffffffffffffffffffffffffffff16815260200190815260200160002054111515611e6c57600080fd5b80600360006101000a81548173ffffffffffffffffffffffffffffffffffffffff021916908373ffffffffffffffffffffffffffffffffffffffff160217905550600360009054906101000a900473ffffffffffffffffffffffffffffffffffffffff1673ffffffffffffffffffffffffffffffffffffffff1663bd0af85d83336040518363ffffffff167c0100000000000000000000000000000000000000000000000000000000028152600401808373ffffffffffffffffffffffffffffffffffffffff1673ffffffffffffffffffffffffffffffffffffffff1681526020018273ffffffffffffffffffffffffffffffffffffffff1673ffffffffffffffffffffffffffffffffffffffff16815260200192505050600060405180830381600087803b1515611f9d57600080fd5b6102c65a03f11515611fae57600080fd5b5050505050565b600960009054906101000a900473ffffffffffffffffffffffffffffffffffffffff1681565b6000808284811515611fe957fe5b0490508091505092915050565b81548183558181151161201d5781836000526020600020918201910161201c9190612022565b5b505050565b61204491905b80821115612040576000816000905550600101612028565b5090565b905600a165627a7a72305820ac5269863f5ce30c255275640ce5cc1c4c1cec720233efac48b1c92ac75a275f0029",
  "source": "pragma solidity ^0.4.17;\r\n\r\nimport \"./interfaces/Deployer_Interface.sol\";\r\nimport \"./interfaces/DRCT_Token_Interface.sol\";\r\nimport \"./libraries/SafeMath.sol\";\r\nimport \"./interfaces/Wrapped_Ether_Interface.sol\";\r\n\r\n\r\n//The Factory contract sets the standardized variables and also deploys new contracts based on these variables for the user.  \r\ncontract Factory {\r\n  using SafeMath for uint256;\r\n  //Addresses of the Factory owner and oracle. For oracle information, check www.github.com/DecentralizedDerivatives/Oracles\r\n  address public owner;\r\n  address public oracle_address;\r\n\r\n  //Address of the user contract\r\n  address public user_contract;\r\n  DRCT_Token_Interface drct_interface;\r\n  Wrapped_Ether_Interface token_interface;\r\n\r\n  //Address of the deployer contract\r\n  address deployer_address;\r\n  Deployer_Interface deployer;\r\n  Deployer_Interface tokenDeployer;\r\n  address token_deployer_address;\r\n\r\n  address public token;\r\n\r\n  //A fee for creating a swap in wei.  Plan is for this to be zero, however can be raised to prevent spam\r\n  uint public fee;\r\n  //Duration of swap contract in days\r\n  uint public duration;\r\n  //Multiplier of reference rate.  2x refers to a 50% move generating a 100% move in the contract payout values\r\n  uint public multiplier;\r\n  //Token_ratio refers to the number of DRCT Tokens a party will get based on the number of base tokens.  As an example, 1e15 indicates that a party will get 1000 DRCT Tokens based upon 1 ether of wrapped wei. \r\n  uint public token_ratio;\r\n\r\n\r\n  //Array of deployed contracts\r\n  address[] public contracts;\r\n  mapping(address => uint) public created_contracts;\r\n  mapping(uint => address) public long_tokens;\r\n  mapping(uint => address) public short_tokens;\r\n\r\n  //Emitted when a Swap is created\r\n  event ContractCreation(address _sender, address _created);\r\n\r\n  /*Modifiers*/\r\n  modifier onlyOwner() {\r\n    require(msg.sender == owner);\r\n    _;\r\n  }\r\n\r\n  /*Functions*/\r\n  // Constructor - Sets owner\r\n  function Factory() public {\r\n    owner = msg.sender;\r\n  }\r\n\r\n  function getTokens(uint _date) public view returns(address, address){\r\n    return(long_tokens[_date],short_tokens[_date]);\r\n  }\r\n\r\n  /*\r\n  * Updates the fee amount\r\n  * @param \"_fee\": The new fee amount\r\n  */\r\n  function setFee(uint _fee) public onlyOwner() {\r\n    fee = _fee;\r\n  }\r\n\r\n  /*\r\n  * Sets the deployer address\r\n  * @param \"_deployer\": The new deployer address\r\n  */\r\n  function setDeployer(address _deployer) public onlyOwner() {\r\n    deployer_address = _deployer;\r\n    deployer = Deployer_Interface(_deployer);\r\n  }\r\n\r\n  /*\r\n  * Sets the token_deployer address\r\n  * @param \"_tdeployer\": The new token deployer address\r\n  */  \r\n  function settokenDeployer(address _tdeployer) public onlyOwner() {\r\n    token_deployer_address = _tdeployer;\r\n    tokenDeployer = Deployer_Interface(_tdeployer);\r\n  }\r\n  /*\r\n  * Sets the user_contract address\r\n  * @param \"_userContract\": The new userContract address\r\n  */\r\n  function setUserContract(address _userContract) public onlyOwner() {\r\n    user_contract = _userContract;\r\n  }\r\n\r\n  /*\r\n  * Returns the base token address\r\n  */\r\n  function getBase() public view returns(address){\r\n    return (token);\r\n  }\r\n\r\n\r\n  /*\r\n  * Sets token ratio, swap duration, and multiplier variables for a swap\r\n  * @param \"_token_ratio1\": The ratio of the first token\r\n  * @param \"_token_ratio2\": The ratio of the second token\r\n  * @param \"_duration\": The duration of the swap, in seconds\r\n  * @param \"_multiplier\": The multiplier used for the swap\r\n  */\r\n  function setVariables(uint _token_ratio, uint _duration, uint _multiplier) public onlyOwner() {\r\n    token_ratio = _token_ratio;\r\n    duration = _duration;\r\n    multiplier = _multiplier;\r\n  }\r\n\r\n  /*\r\n  * Sets the addresses of the tokens used for the swap\r\n  * @param \"_token_a\": The address of a token to be used\r\n  * @param \"_token_b\": The address of another token to be used\r\n  */\r\n  function setBaseToken(address _token) public onlyOwner() {\r\n    token = _token;\r\n  }\r\n\r\n  //Allows a user to deploy a new swap contract, if they pay the fee\r\n  //returns the newly created swap address and calls event 'ContractCreation'\r\n  function deployContract(uint _start_date) public payable returns (address) {\r\n    require(msg.value >= fee);\r\n    address new_contract = deployer.newContract(msg.sender, user_contract, _start_date);\r\n    contracts.push(new_contract);\r\n    created_contracts[new_contract] = _start_date;\r\n    ContractCreation(msg.sender,new_contract);\r\n    return new_contract;\r\n  }\r\n\r\n\r\n  function deployTokenContract(uint _start_date, bool _long) public returns(address) {\r\n    address _token;\r\n    if (_long){\r\n      require(long_tokens[_start_date] == address(0));\r\n      _token = tokenDeployer.newToken();\r\n      long_tokens[_start_date] = _token;\r\n    }\r\n    else{\r\n      require(short_tokens[_start_date] == address(0));\r\n      _token = tokenDeployer.newToken();\r\n      short_tokens[_start_date] = _token;\r\n    }\r\n    return _token;\r\n  }\r\n\r\n\r\n\r\n  /*\r\n  * Deploys new tokens on a DRCT_Token contract -- called from within a swap\r\n  * @param \"_supply\": The number of tokens to create\r\n  * @param \"_party\": The address to send the tokens to\r\n  * @param \"_long\": Whether the party is long or short\r\n  * @returns \"created\": The address of the created DRCT token\r\n  * @returns \"token_ratio\": The ratio of the created DRCT token\r\n  */\r\n  function createToken(uint _supply, address _party, uint _start_date) public returns (address, address, uint) {\r\n    require(created_contracts[msg.sender] == _start_date);\r\n    address ltoken = long_tokens[_start_date];\r\n    address stoken = short_tokens[_start_date];\r\n    require(ltoken != address(0) && stoken != address(0));\r\n      drct_interface = DRCT_Token_Interface(ltoken);\r\n      drct_interface.createToken(_supply.div(token_ratio), _party,msg.sender);\r\n      drct_interface = DRCT_Token_Interface(stoken);\r\n      drct_interface.createToken(_supply.div(token_ratio), _party,msg.sender);\r\n    return (ltoken, stoken, token_ratio);\r\n  }\r\n  \r\n\r\n  //Allows the owner to set a new oracle address\r\n  function setOracleAddress(address _new_oracle_address) public onlyOwner() { oracle_address = _new_oracle_address; }\r\n\r\n  //Allows the owner to set a new owner address\r\n  function setOwner(address _new_owner) public onlyOwner() { owner = _new_owner; }\r\n\r\n  //Allows the owner to pull contract creation fees\r\n  function withdrawFees() public onlyOwner() returns(uint, uint){\r\n   token_interface = Wrapped_Ether_Interface(token);\r\n   uint _val = token_interface.balanceOf(address(this));\r\n   if(_val > 0){\r\n      token_interface.withdraw(_val);\r\n    }\r\n   owner.transfer(this.balance);\r\n   }\r\n\r\n   function() public payable {\r\n\r\n   }\r\n\r\n  /*\r\n  * Returns a tuple of many private variables\r\n  * @returns \"_oracle_adress\": The address of the oracle\r\n  * @returns \"_operator\": The address of the owner and operator of the factory\r\n  * @returns \"_duration\": The duration of the swap\r\n  * @returns \"_multiplier\": The multiplier for the swap\r\n  * @returns \"token_a_address\": The address of token a\r\n  * @returns \"token_b_address\": The address of token b\r\n  * @returns \"start_date\": The start date of the swap\r\n  */\r\n  function getVariables() public view returns (address, uint, uint, address){\r\n    return (oracle_address,duration, multiplier, token);\r\n  }\r\n\r\n  /*\r\n  * Pays out to a DRCT token\r\n  * @param \"_party\": The address being paid\r\n  * @param \"_long\": Whether the _party is long or not\r\n  */\r\n  function payToken(address _party, address _token_add) public {\r\n    require(created_contracts[msg.sender] > 0);\r\n    drct_interface = DRCT_Token_Interface(_token_add);\r\n    drct_interface.pay(_party, msg.sender);\r\n  }\r\n\r\n  //Returns the number of contracts created by this factory\r\n    function getCount() public constant returns(uint) {\r\n      return contracts.length;\r\n  }\r\n}\r\n",
  "sourcePath": "C:\\company\\code\\drct_standard\\contracts\\Factory.sol",
  "compiler": {
    "name": "solc",
    "version": "0.4.19+commit.c4cbbb05.Emscripten.clang"
  },
  "schemaVersion": "1.0.1",
  "updatedAt": "2018-04-04T16:56:21.763Z"
}