{
  "contractName": "Factory",
  "abi": [
    {
      "constant": true,
      "inputs": [],
      "name": "duration",
      "outputs": [
        {
          "name": "",
          "type": "uint256"
        }
      ],
      "payable": false,
      "stateMutability": "view",
      "type": "function"
    },
    {
      "constant": true,
      "inputs": [],
      "name": "multiplier",
      "outputs": [
        {
          "name": "",
          "type": "uint256"
        }
      ],
      "payable": false,
      "stateMutability": "view",
      "type": "function"
    },
    {
      "constant": true,
      "inputs": [
        {
          "name": "",
          "type": "uint256"
        }
      ],
      "name": "short_tokens",
      "outputs": [
        {
          "name": "",
          "type": "address"
        }
      ],
      "payable": false,
      "stateMutability": "view",
      "type": "function"
    },
    {
      "constant": true,
      "inputs": [
        {
          "name": "",
          "type": "uint256"
        }
      ],
      "name": "contracts",
      "outputs": [
        {
          "name": "",
          "type": "address"
        }
      ],
      "payable": false,
      "stateMutability": "view",
      "type": "function"
    },
    {
      "constant": true,
      "inputs": [
        {
          "name": "",
          "type": "address"
        }
      ],
      "name": "created_contracts",
      "outputs": [
        {
          "name": "",
          "type": "uint256"
        }
      ],
      "payable": false,
      "stateMutability": "view",
      "type": "function"
    },
    {
      "constant": true,
      "inputs": [],
      "name": "token_ratio",
      "outputs": [
        {
          "name": "",
          "type": "uint256"
        }
      ],
      "payable": false,
      "stateMutability": "view",
      "type": "function"
    },
    {
      "constant": true,
      "inputs": [],
      "name": "oracle_address",
      "outputs": [
        {
          "name": "",
          "type": "address"
        }
      ],
      "payable": false,
      "stateMutability": "view",
      "type": "function"
    },
    {
      "constant": true,
      "inputs": [],
      "name": "owner",
      "outputs": [
        {
          "name": "",
          "type": "address"
        }
      ],
      "payable": false,
      "stateMutability": "view",
      "type": "function"
    },
    {
      "constant": true,
      "inputs": [
        {
          "name": "",
          "type": "uint256"
        }
      ],
      "name": "startDates",
      "outputs": [
        {
          "name": "",
          "type": "uint256"
        }
      ],
      "payable": false,
      "stateMutability": "view",
      "type": "function"
    },
    {
      "constant": true,
      "inputs": [],
      "name": "user_contract",
      "outputs": [
        {
          "name": "",
          "type": "address"
        }
      ],
      "payable": false,
      "stateMutability": "view",
      "type": "function"
    },
    {
      "constant": true,
      "inputs": [
        {
          "name": "",
          "type": "uint256"
        }
      ],
      "name": "long_tokens",
      "outputs": [
        {
          "name": "",
          "type": "address"
        }
      ],
      "payable": false,
      "stateMutability": "view",
      "type": "function"
    },
    {
      "constant": true,
      "inputs": [],
      "name": "fee",
      "outputs": [
        {
          "name": "",
          "type": "uint256"
        }
      ],
      "payable": false,
      "stateMutability": "view",
      "type": "function"
    },
    {
      "constant": true,
      "inputs": [],
      "name": "token",
      "outputs": [
        {
          "name": "",
          "type": "address"
        }
      ],
      "payable": false,
      "stateMutability": "view",
      "type": "function"
    },
    {
      "inputs": [],
      "payable": false,
      "stateMutability": "nonpayable",
      "type": "constructor"
    },
    {
      "payable": true,
      "stateMutability": "payable",
      "type": "fallback"
    },
    {
      "anonymous": false,
      "inputs": [
        {
          "indexed": false,
          "name": "_sender",
          "type": "address"
        },
        {
          "indexed": false,
          "name": "_created",
          "type": "address"
        }
      ],
      "name": "ContractCreation",
      "type": "event"
    },
    {
      "constant": true,
      "inputs": [
        {
          "name": "_date",
          "type": "uint256"
        }
      ],
      "name": "getTokens",
      "outputs": [
        {
          "name": "",
          "type": "address"
        },
        {
          "name": "",
          "type": "address"
        }
      ],
      "payable": false,
      "stateMutability": "view",
      "type": "function"
    },
    {
      "constant": false,
      "inputs": [
        {
          "name": "_fee",
          "type": "uint256"
        }
      ],
      "name": "setFee",
      "outputs": [],
      "payable": false,
      "stateMutability": "nonpayable",
      "type": "function"
    },
    {
      "constant": false,
      "inputs": [
        {
          "name": "_deployer",
          "type": "address"
        }
      ],
      "name": "setDeployer",
      "outputs": [],
      "payable": false,
      "stateMutability": "nonpayable",
      "type": "function"
    },
    {
      "constant": false,
      "inputs": [
        {
          "name": "_tdeployer",
          "type": "address"
        }
      ],
      "name": "settokenDeployer",
      "outputs": [],
      "payable": false,
      "stateMutability": "nonpayable",
      "type": "function"
    },
    {
      "constant": false,
      "inputs": [
        {
          "name": "_userContract",
          "type": "address"
        }
      ],
      "name": "setUserContract",
      "outputs": [],
      "payable": false,
      "stateMutability": "nonpayable",
      "type": "function"
    },
    {
      "constant": true,
      "inputs": [],
      "name": "getBase",
      "outputs": [
        {
          "name": "",
          "type": "address"
        }
      ],
      "payable": false,
      "stateMutability": "view",
      "type": "function"
    },
    {
      "constant": false,
      "inputs": [
        {
          "name": "_token_ratio",
          "type": "uint256"
        },
        {
          "name": "_duration",
          "type": "uint256"
        },
        {
          "name": "_multiplier",
          "type": "uint256"
        }
      ],
      "name": "setVariables",
      "outputs": [],
      "payable": false,
      "stateMutability": "nonpayable",
      "type": "function"
    },
    {
      "constant": false,
      "inputs": [
        {
          "name": "_token",
          "type": "address"
        }
      ],
      "name": "setBaseToken",
      "outputs": [],
      "payable": false,
      "stateMutability": "nonpayable",
      "type": "function"
    },
    {
      "constant": false,
      "inputs": [
        {
          "name": "_start_date",
          "type": "uint256"
        }
      ],
      "name": "deployContract",
      "outputs": [
        {
          "name": "",
          "type": "address"
        }
      ],
      "payable": true,
      "stateMutability": "payable",
      "type": "function"
    },
    {
      "constant": false,
      "inputs": [
        {
          "name": "_start_date",
          "type": "uint256"
        },
        {
          "name": "_long",
          "type": "bool"
        }
      ],
      "name": "deployTokenContract",
      "outputs": [
        {
          "name": "",
          "type": "address"
        }
      ],
      "payable": false,
      "stateMutability": "nonpayable",
      "type": "function"
    },
    {
      "constant": false,
      "inputs": [
        {
          "name": "_supply",
          "type": "uint256"
        },
        {
          "name": "_party",
          "type": "address"
        },
        {
          "name": "_start_date",
          "type": "uint256"
        }
      ],
      "name": "createToken",
      "outputs": [
        {
          "name": "",
          "type": "address"
        },
        {
          "name": "",
          "type": "address"
        },
        {
          "name": "",
          "type": "uint256"
        }
      ],
      "payable": false,
      "stateMutability": "nonpayable",
      "type": "function"
    },
    {
      "constant": false,
      "inputs": [
        {
          "name": "_new_oracle_address",
          "type": "address"
        }
      ],
      "name": "setOracleAddress",
      "outputs": [],
      "payable": false,
      "stateMutability": "nonpayable",
      "type": "function"
    },
    {
      "constant": false,
      "inputs": [
        {
          "name": "_new_owner",
          "type": "address"
        }
      ],
      "name": "setOwner",
      "outputs": [],
      "payable": false,
      "stateMutability": "nonpayable",
      "type": "function"
    },
    {
      "constant": false,
      "inputs": [],
      "name": "withdrawFees",
      "outputs": [],
      "payable": false,
      "stateMutability": "nonpayable",
      "type": "function"
    },
    {
      "constant": true,
      "inputs": [],
      "name": "getVariables",
      "outputs": [
        {
          "name": "",
          "type": "address"
        },
        {
          "name": "",
          "type": "uint256"
        },
        {
          "name": "",
          "type": "uint256"
        },
        {
          "name": "",
          "type": "address"
        }
      ],
      "payable": false,
      "stateMutability": "view",
      "type": "function"
    },
    {
      "constant": false,
      "inputs": [
        {
          "name": "_party",
          "type": "address"
        },
        {
          "name": "_token_add",
          "type": "address"
        }
      ],
      "name": "payToken",
      "outputs": [],
      "payable": false,
      "stateMutability": "nonpayable",
      "type": "function"
    },
    {
      "constant": true,
      "inputs": [],
      "name": "getCount",
      "outputs": [
        {
          "name": "",
          "type": "uint256"
        }
      ],
      "payable": false,
      "stateMutability": "view",
      "type": "function"
    },
    {
      "constant": true,
      "inputs": [],
      "name": "getDateCount",
      "outputs": [
        {
          "name": "",
          "type": "uint256"
        }
      ],
      "payable": false,
      "stateMutability": "view",
      "type": "function"
    }
  ],
  "bytecode": "0x6060604052341561000f57600080fd5b336000806101000a81548173ffffffffffffffffffffffffffffffffffffffff021916908373ffffffffffffffffffffffffffffffffffffffff16021790555061225f8061005e6000396000f30060606040526004361061018b576000357c0100000000000000000000000000000000000000000000000000000000900463ffffffff16806308911cd51461018d5780630fb5a6b4146101c657806313af4035146101ef57806316bb6c13146102285780631b3ed722146102615780631cf41a811461028a5780632a7292d0146102e257806331fa76db146103a7578063474da79a1461040a578063476343ee1461046d5780634c69c00f146104825780634efb04ff146104bb5780635c5991d41461050857806362628e661461053157806369fe0e2d146105665780637e0c1792146105895780638da5cb5b146105de57806394aef0221461063357806396214735146106c9578063a1206d4e14610702578063a55e93701461073b578063a87d942c14610764578063b266c6611461078d578063b7f545cc146107c4578063d104a13614610832578063d3749a1514610887578063d3c9cc26146108dc578063dc54d91914610972578063ddca3f43146109d5578063ecb14519146109fe578063fc0c546a14610a56575b005b341561019857600080fd5b6101c4600480803573ffffffffffffffffffffffffffffffffffffffff16906020019091905050610aab565b005b34156101d157600080fd5b6101d9610b8b565b6040518082815260200191505060405180910390f35b34156101fa57600080fd5b610226600480803573ffffffffffffffffffffffffffffffffffffffff16906020019091905050610b91565b005b341561023357600080fd5b61025f600480803573ffffffffffffffffffffffffffffffffffffffff16906020019091905050610c2f565b005b341561026c57600080fd5b610274610cce565b6040518082815260200191505060405180910390f35b6102a06004808035906020019091905050610cd4565b604051808273ffffffffffffffffffffffffffffffffffffffff1673ffffffffffffffffffffffffffffffffffffffff16815260200191505060405180910390f35b34156102ed57600080fd5b61032b600480803590602001909190803573ffffffffffffffffffffffffffffffffffffffff16906020019091908035906020019091905050610f8c565b604051808473ffffffffffffffffffffffffffffffffffffffff1673ffffffffffffffffffffffffffffffffffffffff1681526020018373ffffffffffffffffffffffffffffffffffffffff1673ffffffffffffffffffffffffffffffffffffffff168152602001828152602001935050505060405180910390f35b34156103b257600080fd5b6103c8600480803590602001909190505061139a565b604051808273ffffffffffffffffffffffffffffffffffffffff1673ffffffffffffffffffffffffffffffffffffffff16815260200191505060405180910390f35b341561041557600080fd5b61042b60048080359060200190919050506113cd565b604051808273ffffffffffffffffffffffffffffffffffffffff1673ffffffffffffffffffffffffffffffffffffffff16815260200191505060405180910390f35b341561047857600080fd5b61048061140c565b005b341561048d57600080fd5b6104b9600480803573ffffffffffffffffffffffffffffffffffffffff169060200190919050506116d7565b005b34156104c657600080fd5b6104f2600480803573ffffffffffffffffffffffffffffffffffffffff16906020019091905050611776565b6040518082815260200191505060405180910390f35b341561051357600080fd5b61051b61178e565b6040518082815260200191505060405180910390f35b341561053c57600080fd5b6105646004808035906020019091908035906020019091908035906020019091905050611794565b005b341561057157600080fd5b6105876004808035906020019091905050611809565b005b341561059457600080fd5b61059c61186e565b604051808273ffffffffffffffffffffffffffffffffffffffff1673ffffffffffffffffffffffffffffffffffffffff16815260200191505060405180910390f35b34156105e957600080fd5b6105f1611894565b604051808273ffffffffffffffffffffffffffffffffffffffff1673ffffffffffffffffffffffffffffffffffffffff16815260200191505060405180910390f35b341561063e57600080fd5b6106466118b9565b604051808573ffffffffffffffffffffffffffffffffffffffff1673ffffffffffffffffffffffffffffffffffffffff1681526020018481526020018381526020018273ffffffffffffffffffffffffffffffffffffffff1673ffffffffffffffffffffffffffffffffffffffff16815260200194505050505060405180910390f35b34156106d457600080fd5b610700600480803573ffffffffffffffffffffffffffffffffffffffff16906020019091905050611919565b005b341561070d57600080fd5b610739600480803573ffffffffffffffffffffffffffffffffffffffff169060200190919050506119f9565b005b341561074657600080fd5b61074e611a98565b6040518082815260200191505060405180910390f35b341561076f57600080fd5b610777611aa5565b6040518082815260200191505060405180910390f35b341561079857600080fd5b6107ae6004808035906020019091905050611ab2565b6040518082815260200191505060405180910390f35b34156107cf57600080fd5b6107f060048080359060200190919080351515906020019091905050611ad6565b604051808273ffffffffffffffffffffffffffffffffffffffff1673ffffffffffffffffffffffffffffffffffffffff16815260200191505060405180910390f35b341561083d57600080fd5b610845611ee1565b604051808273ffffffffffffffffffffffffffffffffffffffff1673ffffffffffffffffffffffffffffffffffffffff16815260200191505060405180910390f35b341561089257600080fd5b61089a611f0b565b604051808273ffffffffffffffffffffffffffffffffffffffff1673ffffffffffffffffffffffffffffffffffffffff16815260200191505060405180910390f35b34156108e757600080fd5b6108fd6004808035906020019091905050611f31565b604051808373ffffffffffffffffffffffffffffffffffffffff1673ffffffffffffffffffffffffffffffffffffffff1681526020018273ffffffffffffffffffffffffffffffffffffffff1673ffffffffffffffffffffffffffffffffffffffff1681526020019250505060405180910390f35b341561097d57600080fd5b6109936004808035906020019091905050611fa5565b604051808273ffffffffffffffffffffffffffffffffffffffff1673ffffffffffffffffffffffffffffffffffffffff16815260200191505060405180910390f35b34156109e057600080fd5b6109e8611fd8565b6040518082815260200191505060405180910390f35b3415610a0957600080fd5b610a54600480803573ffffffffffffffffffffffffffffffffffffffff1690602001909190803573ffffffffffffffffffffffffffffffffffffffff16906020019091905050611fde565b005b3415610a6157600080fd5b610a69612175565b604051808273ffffffffffffffffffffffffffffffffffffffff1673ffffffffffffffffffffffffffffffffffffffff16815260200191505060405180910390f35b6000809054906101000a900473ffffffffffffffffffffffffffffffffffffffff1673ffffffffffffffffffffffffffffffffffffffff163373ffffffffffffffffffffffffffffffffffffffff16141515610b0657600080fd5b80600860006101000a81548173ffffffffffffffffffffffffffffffffffffffff021916908373ffffffffffffffffffffffffffffffffffffffff16021790555080600760006101000a81548173ffffffffffffffffffffffffffffffffffffffff021916908373ffffffffffffffffffffffffffffffffffffffff16021790555050565b600b5481565b6000809054906101000a900473ffffffffffffffffffffffffffffffffffffffff1673ffffffffffffffffffffffffffffffffffffffff163373ffffffffffffffffffffffffffffffffffffffff16141515610bec57600080fd5b806000806101000a81548173ffffffffffffffffffffffffffffffffffffffff021916908373ffffffffffffffffffffffffffffffffffffffff16021790555050565b6000809054906101000a900473ffffffffffffffffffffffffffffffffffffffff1673ffffffffffffffffffffffffffffffffffffffff163373ffffffffffffffffffffffffffffffffffffffff16141515610c8a57600080fd5b80600960006101000a81548173ffffffffffffffffffffffffffffffffffffffff021916908373ffffffffffffffffffffffffffffffffffffffff16021790555050565b600c5481565b600080600a543410151515610ce857600080fd5b60006201518084811515610cf857fe5b06141515610d0557600080fd5b600660009054906101000a900473ffffffffffffffffffffffffffffffffffffffff1673ffffffffffffffffffffffffffffffffffffffff1663548dd51e33600260009054906101000a900473ffffffffffffffffffffffffffffffffffffffff16866000604051602001526040518463ffffffff167c0100000000000000000000000000000000000000000000000000000000028152600401808473ffffffffffffffffffffffffffffffffffffffff1673ffffffffffffffffffffffffffffffffffffffff1681526020018373ffffffffffffffffffffffffffffffffffffffff1673ffffffffffffffffffffffffffffffffffffffff1681526020018281526020019350505050602060405180830381600087803b1515610e2857600080fd5b6102c65a03f11515610e3957600080fd5b505050604051805190509050600e8054806001018281610e5991906121b6565b9160005260206000209001600083909190916101000a81548173ffffffffffffffffffffffffffffffffffffffff021916908373ffffffffffffffffffffffffffffffffffffffff1602179055505082601060008373ffffffffffffffffffffffffffffffffffffffff1673ffffffffffffffffffffffffffffffffffffffff168152602001908152602001600020819055507fb6c9f70724e4ce6b9bca2eace320dd3164063f0a0b229f8c4705ef05be829c253382604051808373ffffffffffffffffffffffffffffffffffffffff1673ffffffffffffffffffffffffffffffffffffffff1681526020018273ffffffffffffffffffffffffffffffffffffffff1673ffffffffffffffffffffffffffffffffffffffff1681526020019250505060405180910390a180915050919050565b600080600080600085601060003373ffffffffffffffffffffffffffffffffffffffff1673ffffffffffffffffffffffffffffffffffffffff16815260200190815260200160002054141515610fe157600080fd5b6011600087815260200190815260200160002060009054906101000a900473ffffffffffffffffffffffffffffffffffffffff1691506012600087815260200190815260200160002060009054906101000a900473ffffffffffffffffffffffffffffffffffffffff169050600073ffffffffffffffffffffffffffffffffffffffff168273ffffffffffffffffffffffffffffffffffffffff16141580156110b75750600073ffffffffffffffffffffffffffffffffffffffff168173ffffffffffffffffffffffffffffffffffffffff1614155b15156110c257600080fd5b81600360006101000a81548173ffffffffffffffffffffffffffffffffffffffff021916908373ffffffffffffffffffffffffffffffffffffffff160217905550600360009054906101000a900473ffffffffffffffffffffffffffffffffffffffff1673ffffffffffffffffffffffffffffffffffffffff1663e6ed51b7611156600d548b61219b90919063ffffffff16565b89336040518463ffffffff167c0100000000000000000000000000000000000000000000000000000000028152600401808481526020018373ffffffffffffffffffffffffffffffffffffffff1673ffffffffffffffffffffffffffffffffffffffff1681526020018273ffffffffffffffffffffffffffffffffffffffff1673ffffffffffffffffffffffffffffffffffffffff1681526020019350505050600060405180830381600087803b151561120f57600080fd5b6102c65a03f1151561122057600080fd5b50505080600360006101000a81548173ffffffffffffffffffffffffffffffffffffffff021916908373ffffffffffffffffffffffffffffffffffffffff160217905550600360009054906101000a900473ffffffffffffffffffffffffffffffffffffffff1673ffffffffffffffffffffffffffffffffffffffff1663e6ed51b76112b7600d548b61219b90919063ffffffff16565b89336040518463ffffffff167c0100000000000000000000000000000000000000000000000000000000028152600401808481526020018373ffffffffffffffffffffffffffffffffffffffff1673ffffffffffffffffffffffffffffffffffffffff1681526020018273ffffffffffffffffffffffffffffffffffffffff1673ffffffffffffffffffffffffffffffffffffffff1681526020019350505050600060405180830381600087803b151561137057600080fd5b6102c65a03f1151561138157600080fd5b5050508181600d54945094509450505093509350939050565b60126020528060005260406000206000915054906101000a900473ffffffffffffffffffffffffffffffffffffffff1681565b600e818154811015156113dc57fe5b90600052602060002090016000915054906101000a900473ffffffffffffffffffffffffffffffffffffffff1681565b60008060009054906101000a900473ffffffffffffffffffffffffffffffffffffffff1673ffffffffffffffffffffffffffffffffffffffff163373ffffffffffffffffffffffffffffffffffffffff1614151561146957600080fd5b600960009054906101000a900473ffffffffffffffffffffffffffffffffffffffff16600460006101000a81548173ffffffffffffffffffffffffffffffffffffffff021916908373ffffffffffffffffffffffffffffffffffffffff160217905550600460009054906101000a900473ffffffffffffffffffffffffffffffffffffffff1673ffffffffffffffffffffffffffffffffffffffff166370a08231306000604051602001526040518263ffffffff167c0100000000000000000000000000000000000000000000000000000000028152600401808273ffffffffffffffffffffffffffffffffffffffff1673ffffffffffffffffffffffffffffffffffffffff168152602001915050602060405180830381600087803b151561159157600080fd5b6102c65a03f115156115a257600080fd5b505050604051805190509050600081111561165c57600460009054906101000a900473ffffffffffffffffffffffffffffffffffffffff1673ffffffffffffffffffffffffffffffffffffffff16632e1a7d4d826040518263ffffffff167c010000000000000000000000000000000000000000000000000000000002815260040180828152602001915050600060405180830381600087803b151561164757600080fd5b6102c65a03f1151561165857600080fd5b5050505b6000809054906101000a900473ffffffffffffffffffffffffffffffffffffffff1673ffffffffffffffffffffffffffffffffffffffff166108fc3073ffffffffffffffffffffffffffffffffffffffff16319081150290604051600060405180830381858888f1935050505015156116d457600080fd5b50565b6000809054906101000a900473ffffffffffffffffffffffffffffffffffffffff1673ffffffffffffffffffffffffffffffffffffffff163373ffffffffffffffffffffffffffffffffffffffff1614151561173257600080fd5b80600160006101000a81548173ffffffffffffffffffffffffffffffffffffffff021916908373ffffffffffffffffffffffffffffffffffffffff16021790555050565b60106020528060005260406000206000915090505481565b600d5481565b6000809054906101000a900473ffffffffffffffffffffffffffffffffffffffff1673ffffffffffffffffffffffffffffffffffffffff163373ffffffffffffffffffffffffffffffffffffffff161415156117ef57600080fd5b82600d8190555081600b8190555080600c81905550505050565b6000809054906101000a900473ffffffffffffffffffffffffffffffffffffffff1673ffffffffffffffffffffffffffffffffffffffff163373ffffffffffffffffffffffffffffffffffffffff1614151561186457600080fd5b80600a8190555050565b600160009054906101000a900473ffffffffffffffffffffffffffffffffffffffff1681565b6000809054906101000a900473ffffffffffffffffffffffffffffffffffffffff1681565b600080600080600160009054906101000a900473ffffffffffffffffffffffffffffffffffffffff16600b54600c54600960009054906101000a900473ffffffffffffffffffffffffffffffffffffffff16935093509350935090919293565b6000809054906101000a900473ffffffffffffffffffffffffffffffffffffffff1673ffffffffffffffffffffffffffffffffffffffff163373ffffffffffffffffffffffffffffffffffffffff1614151561197457600080fd5b80600560006101000a81548173ffffffffffffffffffffffffffffffffffffffff021916908373ffffffffffffffffffffffffffffffffffffffff16021790555080600660006101000a81548173ffffffffffffffffffffffffffffffffffffffff021916908373ffffffffffffffffffffffffffffffffffffffff16021790555050565b6000809054906101000a900473ffffffffffffffffffffffffffffffffffffffff1673ffffffffffffffffffffffffffffffffffffffff163373ffffffffffffffffffffffffffffffffffffffff16141515611a5457600080fd5b80600260006101000a81548173ffffffffffffffffffffffffffffffffffffffff021916908373ffffffffffffffffffffffffffffffffffffffff16021790555050565b6000600f80549050905090565b6000600e80549050905090565b600f81815481101515611ac157fe5b90600052602060002090016000915090505481565b60008060006201518085811515611ae957fe5b06141515611af657600080fd5b8215611c6c57600073ffffffffffffffffffffffffffffffffffffffff166011600086815260200190815260200160002060009054906101000a900473ffffffffffffffffffffffffffffffffffffffff1673ffffffffffffffffffffffffffffffffffffffff16141515611b6a57600080fd5b600760009054906101000a900473ffffffffffffffffffffffffffffffffffffffff1673ffffffffffffffffffffffffffffffffffffffff1663c42bd05a6000604051602001526040518163ffffffff167c0100000000000000000000000000000000000000000000000000000000028152600401602060405180830381600087803b1515611bf857600080fd5b6102c65a03f11515611c0957600080fd5b505050604051805190509050806011600086815260200190815260200160002060006101000a81548173ffffffffffffffffffffffffffffffffffffffff021916908373ffffffffffffffffffffffffffffffffffffffff160217905550611dd8565b600073ffffffffffffffffffffffffffffffffffffffff166012600086815260200190815260200160002060009054906101000a900473ffffffffffffffffffffffffffffffffffffffff1673ffffffffffffffffffffffffffffffffffffffff16141515611cda57600080fd5b600760009054906101000a900473ffffffffffffffffffffffffffffffffffffffff1673ffffffffffffffffffffffffffffffffffffffff1663c42bd05a6000604051602001526040518163ffffffff167c0100000000000000000000000000000000000000000000000000000000028152600401602060405180830381600087803b1515611d6857600080fd5b6102c65a03f11515611d7957600080fd5b505050604051805190509050806012600086815260200190815260200160002060006101000a81548173ffffffffffffffffffffffffffffffffffffffff021916908373ffffffffffffffffffffffffffffffffffffffff1602179055505b600073ffffffffffffffffffffffffffffffffffffffff166012600086815260200190815260200160002060009054906101000a900473ffffffffffffffffffffffffffffffffffffffff1673ffffffffffffffffffffffffffffffffffffffff1614158015611ea85750600073ffffffffffffffffffffffffffffffffffffffff166011600086815260200190815260200160002060009054906101000a900473ffffffffffffffffffffffffffffffffffffffff1673ffffffffffffffffffffffffffffffffffffffff1614155b15611ed757600f8054806001018281611ec191906121e2565b9160005260206000209001600086909190915055505b8091505092915050565b6000600960009054906101000a900473ffffffffffffffffffffffffffffffffffffffff16905090565b600260009054906101000a900473ffffffffffffffffffffffffffffffffffffffff1681565b6000806011600084815260200190815260200160002060009054906101000a900473ffffffffffffffffffffffffffffffffffffffff166012600085815260200190815260200160002060009054906101000a900473ffffffffffffffffffffffffffffffffffffffff1691509150915091565b60116020528060005260406000206000915054906101000a900473ffffffffffffffffffffffffffffffffffffffff1681565b600a5481565b6000601060003373ffffffffffffffffffffffffffffffffffffffff1673ffffffffffffffffffffffffffffffffffffffff1681526020019081526020016000205411151561202c57600080fd5b80600360006101000a81548173ffffffffffffffffffffffffffffffffffffffff021916908373ffffffffffffffffffffffffffffffffffffffff160217905550600360009054906101000a900473ffffffffffffffffffffffffffffffffffffffff1673ffffffffffffffffffffffffffffffffffffffff1663bd0af85d83336040518363ffffffff167c0100000000000000000000000000000000000000000000000000000000028152600401808373ffffffffffffffffffffffffffffffffffffffff1673ffffffffffffffffffffffffffffffffffffffff1681526020018273ffffffffffffffffffffffffffffffffffffffff1673ffffffffffffffffffffffffffffffffffffffff16815260200192505050600060405180830381600087803b151561215d57600080fd5b6102c65a03f1151561216e57600080fd5b5050505050565b600960009054906101000a900473ffffffffffffffffffffffffffffffffffffffff1681565b60008082848115156121a957fe5b0490508091505092915050565b8154818355818115116121dd578183600052602060002091820191016121dc919061220e565b5b505050565b81548183558181151161220957818360005260206000209182019101612208919061220e565b5b505050565b61223091905b8082111561222c576000816000905550600101612214565b5090565b905600a165627a7a7230582094f5a0112c3fcb176e23a94533de297907e98766da2e5ecdf7ed9c20e22cfe370029",
  "source": "pragma solidity ^0.4.17;\r\n\r\nimport \"./interfaces/Deployer_Interface.sol\";\r\nimport \"./interfaces/DRCT_Token_Interface.sol\";\r\nimport \"./libraries/SafeMath.sol\";\r\nimport \"./interfaces/Wrapped_Ether_Interface.sol\";\r\n\r\n\r\n//The Factory contract sets the standardized variables and also deploys new contracts based on these variables for the user.  \r\ncontract Factory {\r\n  using SafeMath for uint256;\r\n  //Addresses of the Factory owner and oracle. For oracle information, check www.github.com/DecentralizedDerivatives/Oracles\r\n  address public owner;\r\n  address public oracle_address;\r\n\r\n  //Address of the user contract\r\n  address public user_contract;\r\n  DRCT_Token_Interface drct_interface;\r\n  Wrapped_Ether_Interface token_interface;\r\n\r\n  //Address of the deployer contract\r\n  address deployer_address;\r\n  Deployer_Interface deployer;\r\n  Deployer_Interface tokenDeployer;\r\n  address token_deployer_address;\r\n\r\n  address public token;\r\n\r\n  //A fee for creating a swap in wei.  Plan is for this to be zero, however can be raised to prevent spam\r\n  uint public fee;\r\n  //Duration of swap contract in days\r\n  uint public duration;\r\n  //Multiplier of reference rate.  2x refers to a 50% move generating a 100% move in the contract payout values\r\n  uint public multiplier;\r\n  //Token_ratio refers to the number of DRCT Tokens a party will get based on the number of base tokens.  As an example, 1e15 indicates that a party will get 1000 DRCT Tokens based upon 1 ether of wrapped wei. \r\n  uint public token_ratio;\r\n\r\n\r\n  //Array of deployed contracts\r\n  address[] public contracts;\r\n  uint[] public startDates;\r\n  mapping(address => uint) public created_contracts;\r\n  mapping(uint => address) public long_tokens;\r\n  mapping(uint => address) public short_tokens;\r\n\r\n  //Emitted when a Swap is created\r\n  event ContractCreation(address _sender, address _created);\r\n\r\n  /*Modifiers*/\r\n  modifier onlyOwner() {\r\n    require(msg.sender == owner);\r\n    _;\r\n  }\r\n\r\n  /*Functions*/\r\n  // Constructor - Sets owner\r\n  function Factory() public {\r\n    owner = msg.sender;\r\n  }\r\n\r\n  function getTokens(uint _date) public view returns(address, address){\r\n    return(long_tokens[_date],short_tokens[_date]);\r\n  }\r\n\r\n  /*\r\n  * Updates the fee amount\r\n  * @param \"_fee\": The new fee amount\r\n  */\r\n  function setFee(uint _fee) public onlyOwner() {\r\n    fee = _fee;\r\n  }\r\n\r\n  /*\r\n  * Sets the deployer address\r\n  * @param \"_deployer\": The new deployer address\r\n  */\r\n  function setDeployer(address _deployer) public onlyOwner() {\r\n    deployer_address = _deployer;\r\n    deployer = Deployer_Interface(_deployer);\r\n  }\r\n\r\n  /*\r\n  * Sets the token_deployer address\r\n  * @param \"_tdeployer\": The new token deployer address\r\n  */  \r\n  function settokenDeployer(address _tdeployer) public onlyOwner() {\r\n    token_deployer_address = _tdeployer;\r\n    tokenDeployer = Deployer_Interface(_tdeployer);\r\n  }\r\n  /*\r\n  * Sets the user_contract address\r\n  * @param \"_userContract\": The new userContract address\r\n  */\r\n  function setUserContract(address _userContract) public onlyOwner() {\r\n    user_contract = _userContract;\r\n  }\r\n\r\n  /*\r\n  * Returns the base token address\r\n  */\r\n  function getBase() public view returns(address){\r\n    return (token);\r\n  }\r\n\r\n\r\n  /*\r\n  * Sets token ratio, swap duration, and multiplier variables for a swap\r\n  * @param \"_token_ratio1\": The ratio of the first token\r\n  * @param \"_token_ratio2\": The ratio of the second token\r\n  * @param \"_duration\": The duration of the swap, in seconds\r\n  * @param \"_multiplier\": The multiplier used for the swap\r\n  */\r\n  function setVariables(uint _token_ratio, uint _duration, uint _multiplier) public onlyOwner() {\r\n    token_ratio = _token_ratio;\r\n    duration = _duration;\r\n    multiplier = _multiplier;\r\n  }\r\n\r\n  /*\r\n  * Sets the addresses of the tokens used for the swap\r\n  * @param \"_token_a\": The address of a token to be used\r\n  * @param \"_token_b\": The address of another token to be used\r\n  */\r\n  function setBaseToken(address _token) public onlyOwner() {\r\n    token = _token;\r\n  }\r\n\r\n  //Allows a user to deploy a new swap contract, if they pay the fee\r\n  //returns the newly created swap address and calls event 'ContractCreation'\r\n  function deployContract(uint _start_date) public payable returns (address) {\r\n    require(msg.value >= fee);\r\n    require(_start_date % 86400 == 0);\r\n    address new_contract = deployer.newContract(msg.sender, user_contract, _start_date);\r\n    contracts.push(new_contract);\r\n    created_contracts[new_contract] = _start_date;\r\n    ContractCreation(msg.sender,new_contract);\r\n    return new_contract;\r\n  }\r\n\r\n\r\n  function deployTokenContract(uint _start_date, bool _long) public returns(address) {\r\n    address _token;\r\n    require(_start_date % 86400 == 0);\r\n    if (_long){\r\n      require(long_tokens[_start_date] == address(0));\r\n      _token = tokenDeployer.newToken();\r\n      long_tokens[_start_date] = _token;\r\n    }\r\n    else{\r\n      require(short_tokens[_start_date] == address(0));\r\n      _token = tokenDeployer.newToken();\r\n      short_tokens[_start_date] = _token;\r\n    }\r\n    if(short_tokens[_start_date] != address(0) && long_tokens[_start_date] != address(0)){\r\n      startDates.push(_start_date);\r\n    }\r\n    return _token;\r\n  }\r\n\r\n\r\n\r\n  /*\r\n  * Deploys new tokens on a DRCT_Token contract -- called from within a swap\r\n  * @param \"_supply\": The number of tokens to create\r\n  * @param \"_party\": The address to send the tokens to\r\n  * @param \"_long\": Whether the party is long or short\r\n  * @returns \"created\": The address of the created DRCT token\r\n  * @returns \"token_ratio\": The ratio of the created DRCT token\r\n  */\r\n  function createToken(uint _supply, address _party, uint _start_date) public returns (address, address, uint) {\r\n    require(created_contracts[msg.sender] == _start_date);\r\n    address ltoken = long_tokens[_start_date];\r\n    address stoken = short_tokens[_start_date];\r\n    require(ltoken != address(0) && stoken != address(0));\r\n      drct_interface = DRCT_Token_Interface(ltoken);\r\n      drct_interface.createToken(_supply.div(token_ratio), _party,msg.sender);\r\n      drct_interface = DRCT_Token_Interface(stoken);\r\n      drct_interface.createToken(_supply.div(token_ratio), _party,msg.sender);\r\n    return (ltoken, stoken, token_ratio);\r\n  }\r\n  \r\n\r\n  //Allows the owner to set a new oracle address\r\n  function setOracleAddress(address _new_oracle_address) public onlyOwner() { oracle_address = _new_oracle_address; }\r\n\r\n  //Allows the owner to set a new owner address\r\n  function setOwner(address _new_owner) public onlyOwner() { owner = _new_owner; }\r\n\r\n  //Allows the owner to pull contract creation fees\r\n  function withdrawFees() public onlyOwner(){\r\n   token_interface = Wrapped_Ether_Interface(token);\r\n   uint _val = token_interface.balanceOf(address(this));\r\n   if(_val > 0){\r\n      token_interface.withdraw(_val);\r\n    }\r\n          owner.transfer(this.balance);\r\n   }\r\n\r\n   function() public payable {\r\n   }\r\n\r\n  /*\r\n  * Returns a tuple of many private variables\r\n  * @returns \"_oracle_adress\": The address of the oracle\r\n  * @returns \"_operator\": The address of the owner and operator of the factory\r\n  * @returns \"_duration\": The duration of the swap\r\n  * @returns \"_multiplier\": The multiplier for the swap\r\n  * @returns \"token_a_address\": The address of token a\r\n  * @returns \"token_b_address\": The address of token b\r\n  * @returns \"start_date\": The start date of the swap\r\n  */\r\n  function getVariables() public view returns (address, uint, uint, address){\r\n    return (oracle_address,duration, multiplier, token);\r\n  }\r\n\r\n  /*\r\n  * Pays out to a DRCT token\r\n  * @param \"_party\": The address being paid\r\n  * @param \"_long\": Whether the _party is long or not\r\n  */\r\n  function payToken(address _party, address _token_add) public {\r\n    require(created_contracts[msg.sender] > 0);\r\n    drct_interface = DRCT_Token_Interface(_token_add);\r\n    drct_interface.pay(_party, msg.sender);\r\n  }\r\n\r\n  //Returns the number of contracts created by this factory\r\n    function getCount() public constant returns(uint) {\r\n      return contracts.length;\r\n  }\r\n\r\n\r\n  //Returns the number of start dates created by this factory\r\n    function getDateCount() public constant returns(uint) {\r\n      return startDates.length;\r\n  }\r\n}\r\n",
  "sourcePath": "C:\\company\\code\\drct_standard\\contracts\\Factory.sol",
  "compiler": {
    "name": "solc",
    "version": "0.4.19+commit.c4cbbb05.Emscripten.clang"
  },
  "schemaVersion": "1.0.1",
  "updatedAt": "2018-04-13T02:06:46.401Z"
}