{
  "contractName": "Oracle",
  "abi": [
    {
      "constant": true,
      "inputs": [
        {
          "name": "",
          "type": "uint256"
        }
      ],
      "name": "queried",
      "outputs": [
        {
          "name": "",
          "type": "bool"
        }
      ],
      "payable": false,
      "stateMutability": "view",
      "type": "function"
    },
    {
      "constant": true,
      "inputs": [
        {
          "name": "",
          "type": "uint256"
        }
      ],
      "name": "oracle_values",
      "outputs": [
        {
          "name": "",
          "type": "uint256"
        }
      ],
      "payable": false,
      "stateMutability": "view",
      "type": "function"
    },
    {
      "anonymous": false,
      "inputs": [
        {
          "indexed": false,
          "name": "_key",
          "type": "uint256"
        },
        {
          "indexed": false,
          "name": "_value",
          "type": "uint256"
        }
      ],
      "name": "DocumentStored",
      "type": "event"
    },
    {
      "anonymous": false,
      "inputs": [
        {
          "indexed": false,
          "name": "description",
          "type": "string"
        }
      ],
      "name": "newOraclizeQuery",
      "type": "event"
    },
    {
      "constant": true,
      "inputs": [
        {
          "name": "_date",
          "type": "uint256"
        }
      ],
      "name": "RetrieveData",
      "outputs": [
        {
          "name": "",
          "type": "uint256"
        }
      ],
      "payable": false,
      "stateMutability": "view",
      "type": "function"
    },
    {
      "constant": false,
      "inputs": [],
      "name": "pushData",
      "outputs": [],
      "payable": true,
      "stateMutability": "payable",
      "type": "function"
    },
    {
      "constant": false,
      "inputs": [
        {
          "name": "_oraclizeID",
          "type": "bytes32"
        },
        {
          "name": "_result",
          "type": "string"
        }
      ],
      "name": "__callback",
      "outputs": [],
      "payable": false,
      "stateMutability": "nonpayable",
      "type": "function"
    },
    {
      "constant": false,
      "inputs": [
        {
          "name": "myid",
          "type": "bytes32"
        },
        {
          "name": "result",
          "type": "string"
        },
        {
          "name": "proof",
          "type": "bytes"
        }
      ],
      "name": "__callback",
      "outputs": [],
      "payable": false,
      "stateMutability": "nonpayable",
      "type": "function"
    },
    {
      "constant": false,
      "inputs": [],
      "name": "fund",
      "outputs": [],
      "payable": true,
      "stateMutability": "payable",
      "type": "function"
    },
    {
      "constant": true,
      "inputs": [
        {
          "name": "_date",
          "type": "uint256"
        }
      ],
      "name": "getQuery",
      "outputs": [
        {
          "name": "",
          "type": "bool"
        }
      ],
      "payable": false,
      "stateMutability": "view",
      "type": "function"
    }
  ],
  "bytecode": "0x6060604052341561000f57600080fd5b6118158061001e6000396000f30060606040526004361061008e576000357c0100000000000000000000000000000000000000000000000000000000900463ffffffff16806318e857ab1461009357806327dc297e146100ce57806338bbfa50146101385780635bed1772146101e55780638aed434a1461021c578063aeb2ffc114610253578063b60d42881461028e578063c692c04914610298575b600080fd5b341561009e57600080fd5b6100b460048080359060200190919050506102a2565b604051808215151515815260200191505060405180910390f35b34156100d957600080fd5b61013660048080356000191690602001909190803590602001908201803590602001908080601f016020809104026020016040519081016040528093929190818152602001838380828437820191505050505050919050506102c2565b005b341561014357600080fd5b6101e360048080356000191690602001909190803590602001908201803590602001908080601f0160208091040260200160405190810160405280939291908181526020018383808284378201915050505050509190803590602001908201803590602001908080601f01602080910402602001604051908101604052809392919081815260200183838082843782019150505050505091905050610398565b005b34156101f057600080fd5b610206600480803590602001909190505061039d565b6040518082815260200191505060405180910390f35b341561022757600080fd5b61023d60048080359060200190919050506103bf565b6040518082815260200191505060405180910390f35b341561025e57600080fd5b61027460048080359060200190919050506103d7565b604051808215151515815260200191505060405180910390f35b610296610401565b005b6102a0610403565b005b60076020528060005260406000206000915054906101000a900460ff1681565b6000806102cd61069d565b73ffffffffffffffffffffffffffffffffffffffff163373ffffffffffffffffffffffffffffffffffffffff161480156103105750600554600019168460001916145b151561031b57600080fd5b6103268360036108b4565b9150620151804281151561033657fe5b06420390508160066000838152602001908152602001600020819055507f25dac5e3ce09d66cb5ac7099effd09f1ee5b500d16d2e7c966f0ae75f89985f28183604051808381526020018281526020019250505060405180910390a150505050565b505050565b6000806006600084815260200190815260200160002054905080915050919050565b60066020528060005260406000206000915090505481565b60006007600083815260200190815260200160002060009054906101000a900460ff169050919050565b565b6000620151804281151561041357fe5b0642039050600015156007600083815260200190815260200160002060009054906101000a900460ff16151514151561044b57600080fd5b3073ffffffffffffffffffffffffffffffffffffffff16316104a16040805190810160405280600381526020017f55524c0000000000000000000000000000000000000000000000000000000000815250610bae565b1115610560577f46cb989ef9cef13e930e3b7f286225a086e716a90d63e0b7da85d310a9db0c9a60405180806020018281038252604b8152602001807f4f7261636c697a6520717565727920776173204e4f542073656e742c20706c6581526020017f6173652061646420736f6d652045544820746f20636f76657220666f7220746881526020017f652071756572792066656500000000000000000000000000000000000000000081525060600191505060405180910390a161069a565b7f46cb989ef9cef13e930e3b7f286225a086e716a90d63e0b7da85d310a9db0c9a6040518080602001828103825260158152602001807f4f7261636c697a6520717565726965732073656e74000000000000000000000081525060200191505060405180910390a16106636040805190810160405280600381526020017f55524c0000000000000000000000000000000000000000000000000000000000815250606060405190810160405280603881526020017f6a736f6e2868747470733a2f2f6170692e676461782e636f6d2f70726f64756381526020017f74732f4254432d5553442f7469636b6572292e70726963650000000000000000815250610e37565b6005816000191690555060016007600083815260200190815260200160002060006101000a81548160ff0219169083151502179055505b50565b6000806000809054906101000a900473ffffffffffffffffffffffffffffffffffffffff1673ffffffffffffffffffffffffffffffffffffffff16148061070d5750600061070b6000809054906101000a900473ffffffffffffffffffffffffffffffffffffffff1661127a565b145b1561071e5761071c6000611285565b505b6000809054906101000a900473ffffffffffffffffffffffffffffffffffffffff1673ffffffffffffffffffffffffffffffffffffffff166338cc48316000604051602001526040518163ffffffff167c0100000000000000000000000000000000000000000000000000000000028152600401602060405180830381600087803b15156107ab57600080fd5b6102c65a03f115156107bc57600080fd5b50505060405180519050600160006101000a81548173ffffffffffffffffffffffffffffffffffffffff021916908373ffffffffffffffffffffffffffffffffffffffff160217905550600160009054906101000a900473ffffffffffffffffffffffffffffffffffffffff1673ffffffffffffffffffffffffffffffffffffffff1663c281d19e6000604051602001526040518163ffffffff167c0100000000000000000000000000000000000000000000000000000000028152600401602060405180830381600087803b151561089457600080fd5b6102c65a03f115156108a557600080fd5b50505060405180519050905090565b60006108be611730565b60008060008693506000925060009150600090505b8351811015610b8f5760307f010000000000000000000000000000000000000000000000000000000000000002848281518110151561090e57fe5b9060200101517f010000000000000000000000000000000000000000000000000000000000000090047f0100000000000000000000000000000000000000000000000000000000000000027effffffffffffffffffffffffffffffffffffffffffffffffffffffffffffff191610158015610a26575060397f01000000000000000000000000000000000000000000000000000000000000000284828151811015156109b657fe5b9060200101517f010000000000000000000000000000000000000000000000000000000000000090047f0100000000000000000000000000000000000000000000000000000000000000027effffffffffffffffffffffffffffffffffffffffffffffffffffffffffffff191611155b15610ad7578115610a49576000861415610a3f57610b8f565b8580600190039650505b600a8302925060308482815181101515610a5f57fe5b9060200101517f010000000000000000000000000000000000000000000000000000000000000090047f0100000000000000000000000000000000000000000000000000000000000000027f010000000000000000000000000000000000000000000000000000000000000090040383019250610b82565b602e7f0100000000000000000000000000000000000000000000000000000000000000028482815181101515610b0957fe5b9060200101517f010000000000000000000000000000000000000000000000000000000000000090047f0100000000000000000000000000000000000000000000000000000000000000027effffffffffffffffffffffffffffffffffffffffffffffffffffffffffffff19161415610b8157600191505b5b80806001019150506108d3565b6000861115610ba15785600a0a830292505b8294505050505092915050565b6000806000809054906101000a900473ffffffffffffffffffffffffffffffffffffffff1673ffffffffffffffffffffffffffffffffffffffff161480610c1e57506000610c1c6000809054906101000a900473ffffffffffffffffffffffffffffffffffffffff1661127a565b145b15610c2f57610c2d6000611285565b505b6000809054906101000a900473ffffffffffffffffffffffffffffffffffffffff1673ffffffffffffffffffffffffffffffffffffffff166338cc48316000604051602001526040518163ffffffff167c0100000000000000000000000000000000000000000000000000000000028152600401602060405180830381600087803b1515610cbc57600080fd5b6102c65a03f11515610ccd57600080fd5b50505060405180519050600160006101000a81548173ffffffffffffffffffffffffffffffffffffffff021916908373ffffffffffffffffffffffffffffffffffffffff160217905550600160009054906101000a900473ffffffffffffffffffffffffffffffffffffffff1673ffffffffffffffffffffffffffffffffffffffff1663524f3889836000604051602001526040518263ffffffff167c01000000000000000000000000000000000000000000000000000000000281526004018080602001828103825283818151815260200191508051906020019080838360005b83811015610dca578082015181840152602081019050610daf565b50505050905090810190601f168015610df75780820380516001836020036101000a031916815260200191505b5092505050602060405180830381600087803b1515610e1557600080fd5b6102c65a03f11515610e2657600080fd5b505050604051805190509050919050565b60008060008060009054906101000a900473ffffffffffffffffffffffffffffffffffffffff1673ffffffffffffffffffffffffffffffffffffffff161480610ea957506000610ea76000809054906101000a900473ffffffffffffffffffffffffffffffffffffffff1661127a565b145b15610eba57610eb86000611285565b505b6000809054906101000a900473ffffffffffffffffffffffffffffffffffffffff1673ffffffffffffffffffffffffffffffffffffffff166338cc48316000604051602001526040518163ffffffff167c0100000000000000000000000000000000000000000000000000000000028152600401602060405180830381600087803b1515610f4757600080fd5b6102c65a03f11515610f5857600080fd5b50505060405180519050600160006101000a81548173ffffffffffffffffffffffffffffffffffffffff021916908373ffffffffffffffffffffffffffffffffffffffff160217905550600160009054906101000a900473ffffffffffffffffffffffffffffffffffffffff1673ffffffffffffffffffffffffffffffffffffffff1663524f3889856000604051602001526040518263ffffffff167c01000000000000000000000000000000000000000000000000000000000281526004018080602001828103825283818151815260200191508051906020019080838360005b8381101561105557808201518184015260208101905061103a565b50505050905090810190601f1680156110825780820380516001836020036101000a031916815260200191505b5092505050602060405180830381600087803b15156110a057600080fd5b6102c65a03f115156110b157600080fd5b50505060405180519050905062030d403a02670de0b6b3a7640000018111156110e05760006001029150611273565b600160009054906101000a900473ffffffffffffffffffffffffffffffffffffffff1673ffffffffffffffffffffffffffffffffffffffff1663adf59f9982600087876000604051602001526040518563ffffffff167c0100000000000000000000000000000000000000000000000000000000028152600401808481526020018060200180602001838103835285818151815260200191508051906020019080838360005b838110156111a1578082015181840152602081019050611186565b50505050905090810190601f1680156111ce5780820380516001836020036101000a031916815260200191505b50838103825284818151815260200191508051906020019080838360005b838110156112075780820151818401526020810190506111ec565b50505050905090810190601f1680156112345780820380516001836020036101000a031916815260200191505b50955050505050506020604051808303818588803b151561125457600080fd5b6125ee5a03f1151561126557600080fd5b505050506040518051905091505b5092915050565b6000813b9050919050565b6000806112a5731d3b2638a7cc9f2cb3d298a3da7a90b67e5506ed61127a565b111561134657731d3b2638a7cc9f2cb3d298a3da7a90b67e5506ed6000806101000a81548173ffffffffffffffffffffffffffffffffffffffff021916908373ffffffffffffffffffffffffffffffffffffffff16021790555061133d6040805190810160405280600b81526020017f6574685f6d61696e6e6574000000000000000000000000000000000000000000815250611716565b60019050611711565b600061136573c03a2615d5efaf5f49f60b7bb6583eaec212fdf161127a565b11156114065773c03a2615d5efaf5f49f60b7bb6583eaec212fdf16000806101000a81548173ffffffffffffffffffffffffffffffffffffffff021916908373ffffffffffffffffffffffffffffffffffffffff1602179055506113fd6040805190810160405280600c81526020017f6574685f726f707374656e330000000000000000000000000000000000000000815250611716565b60019050611711565b600061142573b7a07bcf2ba2f2703b24c0691b5278999c59ac7e61127a565b11156114c65773b7a07bcf2ba2f2703b24c0691b5278999c59ac7e6000806101000a81548173ffffffffffffffffffffffffffffffffffffffff021916908373ffffffffffffffffffffffffffffffffffffffff1602179055506114bd6040805190810160405280600981526020017f6574685f6b6f76616e0000000000000000000000000000000000000000000000815250611716565b60019050611711565b60006114e573146500cfd35b22e4a392fe0adc06de1a1368ed4861127a565b11156115865773146500cfd35b22e4a392fe0adc06de1a1368ed486000806101000a81548173ffffffffffffffffffffffffffffffffffffffff021916908373ffffffffffffffffffffffffffffffffffffffff16021790555061157d6040805190810160405280600b81526020017f6574685f72696e6b656279000000000000000000000000000000000000000000815250611716565b60019050611711565b60006115a5736f485c8bf6fc43ea212e93bbf8ce046c7f1cb47561127a565b111561160857736f485c8bf6fc43ea212e93bbf8ce046c7f1cb4756000806101000a81548173ffffffffffffffffffffffffffffffffffffffff021916908373ffffffffffffffffffffffffffffffffffffffff16021790555060019050611711565b60006116277320e12a1f859b3feae5fb2a0a32c18f5a65555bbf61127a565b111561168a577320e12a1f859b3feae5fb2a0a32c18f5a65555bbf6000806101000a81548173ffffffffffffffffffffffffffffffffffffffff021916908373ffffffffffffffffffffffffffffffffffffffff16021790555060019050611711565b60006116a97351efaf4c8b3c9afbd5ab9f4bbc82784ab6ef8faa61127a565b111561170c577351efaf4c8b3c9afbd5ab9f4bbc82784ab6ef8faa6000806101000a81548173ffffffffffffffffffffffffffffffffffffffff021916908373ffffffffffffffffffffffffffffffffffffffff16021790555060019050611711565b600090505b919050565b806002908051906020019061172c929190611744565b5050565b602060405190810160405280600081525090565b828054600181600116156101000203166002900490600052602060002090601f016020900481019282601f1061178557805160ff19168380011785556117b3565b828001600101855582156117b3579182015b828111156117b2578251825591602001919060010190611797565b5b5090506117c091906117c4565b5090565b6117e691905b808211156117e25760008160009055506001016117ca565b5090565b905600a165627a7a723058202a27300f5392ece2a6a9563bd57278a832fa9405df2f72c0f2af78e0e4bcf59f0029",
  "source": "pragma solidity ^0.4.17;\r\n\r\nimport \"oraclize/usingOraclize.sol\";\r\n\r\n\r\ncontract Oracle is usingOraclize{\r\n\r\n  /*Variables*/\r\n\r\n  //Private queryId for Oraclize callback\r\n  bytes32 private queryID;\r\n\r\n  //Mapping of documents stored in the oracle\r\n  mapping(uint => uint) public oracle_values;\r\n  mapping(uint => bool) public queried;\r\n\r\n  /*Events*/\r\n  event DocumentStored(uint _key, uint _value);\r\n  event newOraclizeQuery(string description);\r\n\r\n  /*Functions*/\r\n  /*\r\n  RetrieveData - Returns stored value by given key\r\n  @param \"_date\": Daily unix timestamp of key storing value (GMT 00:00:00)\r\n  */\r\n  function RetrieveData(uint _date) public constant returns (uint) {\r\n    uint value = oracle_values[_date];\r\n    return value;\r\n  }\r\n\r\n   /*\r\n  PushData - Sends an Oraclize query for entered API\r\n  */\r\n  function pushData() public payable{\r\n    uint _key = now - (now % 86400);\r\n    require(queried[_key] == false);\r\n    if (oraclize_getPrice(\"URL\") > this.balance) {\r\n            newOraclizeQuery(\"Oraclize query was NOT sent, please add some ETH to cover for the query fee\");\r\n        } else {\r\n            newOraclizeQuery(\"Oraclize queries sent\");\r\n            queryID = oraclize_query(\"URL\", \"json(https://api.gdax.com/products/BTC-USD/ticker).price\");\r\n            queried[_key] = true;\r\n        }\r\n  }\r\n\r\n  /*\r\n  _callback - used by Oraclize to return value of PushData API call\r\n  @param \"_oraclizeID\": unique oraclize identifier of call\r\n  @param \"_result\": Result of API call in string format\r\n  */\r\n  function __callback(bytes32 _oraclizeID, string _result) public {\r\n      require(msg.sender == oraclize_cbAddress() && _oraclizeID == queryID);\r\n      uint _value = parseInt(_result,3);\r\n      uint _key = now - (now % 86400);\r\n      oracle_values[_key] = _value;\r\n      DocumentStored(_key, _value);\r\n    }\r\n\r\n  /*\r\n  fund - Allows the contract to be funded in order to pay for oraclize calls\r\n  */\r\n  function fund() public payable {}\r\n\r\n  /*\r\n  getQuery - Returns true or false based upon whether an API query has been initialized (or completed) for given date\r\n  @param \"_date\": Daily unix timestamp of key storing value (GMT 00:00:00)\r\n  */\r\n  function getQuery(uint _date) public view returns(bool){\r\n    return queried[_date];\r\n  }\r\n}",
  "sourcePath": "C:\\company\\code\\drct_standard\\contracts\\Oracle.sol",
  "compiler": {
    "name": "solc",
    "version": "0.4.19+commit.c4cbbb05.Emscripten.clang"
  },
  "schemaVersion": "1.0.1",
  "updatedAt": "2018-04-08T18:29:31.675Z"
}