{
  "contractName": "Test_Oracle",
  "abi": [
    {
      "constant": true,
      "inputs": [
        {
          "name": "",
          "type": "uint256"
        }
      ],
      "name": "queried",
      "outputs": [
        {
          "name": "",
          "type": "bool"
        }
      ],
      "payable": false,
      "stateMutability": "view",
      "type": "function"
    },
    {
      "inputs": [],
      "payable": false,
      "stateMutability": "nonpayable",
      "type": "constructor"
    },
    {
      "anonymous": false,
      "inputs": [
        {
          "indexed": false,
          "name": "_key",
          "type": "uint256"
        },
        {
          "indexed": false,
          "name": "_value",
          "type": "uint256"
        }
      ],
      "name": "DocumentStored",
      "type": "event"
    },
    {
      "constant": false,
      "inputs": [
        {
          "name": "_key",
          "type": "uint256"
        },
        {
          "name": "_value",
          "type": "uint256"
        }
      ],
      "name": "StoreDocument",
      "outputs": [],
      "payable": false,
      "stateMutability": "nonpayable",
      "type": "function"
    },
    {
      "constant": true,
      "inputs": [],
      "name": "pushData",
      "outputs": [],
      "payable": false,
      "stateMutability": "view",
      "type": "function"
    },
    {
      "constant": true,
      "inputs": [
        {
          "name": "_date",
          "type": "uint256"
        }
      ],
      "name": "getQuery",
      "outputs": [
        {
          "name": "",
          "type": "bool"
        }
      ],
      "payable": false,
      "stateMutability": "view",
      "type": "function"
    },
    {
      "constant": true,
      "inputs": [
        {
          "name": "_date",
          "type": "uint256"
        }
      ],
      "name": "RetrieveData",
      "outputs": [
        {
          "name": "",
          "type": "uint256"
        }
      ],
      "payable": false,
      "stateMutability": "view",
      "type": "function"
    },
    {
      "constant": false,
      "inputs": [
        {
          "name": "_new_owner",
          "type": "address"
        }
      ],
      "name": "setOwner",
      "outputs": [],
      "payable": false,
      "stateMutability": "nonpayable",
      "type": "function"
    }
  ],
  "bytecode": "0x6060604052341561000f57600080fd5b336000806101000a81548173ffffffffffffffffffffffffffffffffffffffff021916908373ffffffffffffffffffffffffffffffffffffffff1602179055506103b98061005e6000396000f300606060405260043610610078576000357c0100000000000000000000000000000000000000000000000000000000900463ffffffff16806313af40351461007d57806318e857ab146100b65780635bed1772146100f1578063aeb2ffc114610128578063c692c04914610163578063cccaf5f814610178575b600080fd5b341561008857600080fd5b6100b4600480803573ffffffffffffffffffffffffffffffffffffffff169060200190919050506101a4565b005b34156100c157600080fd5b6100d76004808035906020019091905050610242565b604051808215151515815260200191505060405180910390f35b34156100fc57600080fd5b6101126004808035906020019091905050610262565b6040518082815260200191505060405180910390f35b341561013357600080fd5b610149600480803590602001909190505061027f565b604051808215151515815260200191505060405180910390f35b341561016e57600080fd5b6101766102a9565b005b341561018357600080fd5b6101a260048080359060200190919080359060200190919050506102ab565b005b6000809054906101000a900473ffffffffffffffffffffffffffffffffffffffff1673ffffffffffffffffffffffffffffffffffffffff163373ffffffffffffffffffffffffffffffffffffffff161415156101ff57600080fd5b806000806101000a81548173ffffffffffffffffffffffffffffffffffffffff021916908373ffffffffffffffffffffffffffffffffffffffff16021790555050565b60026020528060005260406000206000915054906101000a900460ff1681565b600060016000838152602001908152602001600020549050919050565b60006002600083815260200190815260200160002060009054906101000a900460ff169050919050565b565b6000809054906101000a900473ffffffffffffffffffffffffffffffffffffffff1673ffffffffffffffffffffffffffffffffffffffff163373ffffffffffffffffffffffffffffffffffffffff1614151561030657600080fd5b8060016000848152602001908152602001600020819055507f25dac5e3ce09d66cb5ac7099effd09f1ee5b500d16d2e7c966f0ae75f89985f28282604051808381526020018281526020019250505060405180910390a160016002600084815260200190815260200160002060006101000a81548160ff02191690831515021790555050505600a165627a7a72305820b7d8173daf20879f66a3e7a9fe80dd6dc2f2532ef493f9b9930e6008626e80820029",
  "source": "pragma solidity ^0.4.17;\r\n\r\n//The Oracle contract provides the reference prices for the contracts.  Currently the Oracle is updated by an off chain calculation by DDA.  Methodology can be found at www.github.com/DecentralizedDerivatives/Oracles\r\ncontract Test_Oracle {\r\n\r\n  /*Variables*/\r\n  //Owner of the oracle\r\n  address private owner;\r\n  //Mapping of documents stored in the oracle\r\n  mapping(uint => uint) oracle_values;\r\n  mapping(uint => bool) public queried;\r\n\r\n  /*Events*/\r\n  event DocumentStored(uint _key, uint _value);\r\n\r\n  modifier onlyOwner {\r\n    require(msg.sender == owner);\r\n    _;\r\n  }\r\n\r\n  //Constructor - Sets owner\r\n  function Test_Oracle() public {\r\n    owner = msg.sender;\r\n  }\r\n\r\n  //Allows the owner of the Oracle to store a document in the oracle_values mapping. Documents\r\n  //represent underlying values at a specified date (key).\r\n  function StoreDocument(uint _key, uint _value) public onlyOwner() {\r\n    oracle_values[_key] = _value;\r\n    DocumentStored(_key, _value);\r\n    queried[_key] = true;\r\n  }\r\n\r\n  function pushData() public view{\r\n    //here for testing purposes\r\n  }\r\n    function getQuery(uint _date) public view returns(bool){\r\n    return queried[_date];\r\n  }\r\n  //Allows for the viewing of oracle data\r\n  function RetrieveData(uint _date) public constant returns (uint) {\r\n    return oracle_values[_date];\r\n  }\r\n\r\n  //set a new owner of the contract\r\n  function setOwner(address _new_owner) public onlyOwner() { owner = _new_owner; }\r\n}",
  "sourcePath": "C:\\company\\code\\drct_standard\\contracts\\Test_Oracle.sol",
  "compiler": {
    "name": "solc",
    "version": "0.4.19+commit.c4cbbb05.Emscripten.clang"
  },
  "schemaVersion": "1.0.1",
  "updatedAt": "2018-04-04T16:56:21.480Z"
}