{
  "contractName": "Test_Oracle",
  "abi": [
    {
      "constant": true,
      "inputs": [
        {
          "name": "",
          "type": "uint256"
        }
      ],
      "name": "queried",
      "outputs": [
        {
          "name": "",
          "type": "bool"
        }
      ],
      "payable": false,
      "stateMutability": "view",
      "type": "function"
    },
    {
      "constant": true,
      "inputs": [],
      "name": "API",
      "outputs": [
        {
          "name": "",
          "type": "string"
        }
      ],
      "payable": false,
      "stateMutability": "view",
      "type": "function"
    },
    {
      "inputs": [],
      "payable": false,
      "stateMutability": "nonpayable",
      "type": "constructor"
    },
    {
      "anonymous": false,
      "inputs": [
        {
          "indexed": false,
          "name": "_key",
          "type": "uint256"
        },
        {
          "indexed": false,
          "name": "_value",
          "type": "uint256"
        }
      ],
      "name": "DocumentStored",
      "type": "event"
    },
    {
      "constant": false,
      "inputs": [
        {
          "name": "_key",
          "type": "uint256"
        },
        {
          "name": "_value",
          "type": "uint256"
        }
      ],
      "name": "StoreDocument",
      "outputs": [],
      "payable": false,
      "stateMutability": "nonpayable",
      "type": "function"
    },
    {
      "constant": true,
      "inputs": [],
      "name": "pushData",
      "outputs": [],
      "payable": false,
      "stateMutability": "view",
      "type": "function"
    },
    {
      "constant": true,
      "inputs": [
        {
          "name": "_date",
          "type": "uint256"
        }
      ],
      "name": "getQuery",
      "outputs": [
        {
          "name": "",
          "type": "bool"
        }
      ],
      "payable": false,
      "stateMutability": "view",
      "type": "function"
    },
    {
      "constant": true,
      "inputs": [
        {
          "name": "_date",
          "type": "uint256"
        }
      ],
      "name": "retrieveData",
      "outputs": [
        {
          "name": "",
          "type": "uint256"
        }
      ],
      "payable": false,
      "stateMutability": "view",
      "type": "function"
    },
    {
      "constant": false,
      "inputs": [
        {
          "name": "_new_owner",
          "type": "address"
        }
      ],
      "name": "setOwner",
      "outputs": [],
      "payable": false,
      "stateMutability": "nonpayable",
      "type": "function"
    }
  ],
  "bytecode": "0x6060604052341561000f57600080fd5b336000806101000a81548173ffffffffffffffffffffffffffffffffffffffff021916908373ffffffffffffffffffffffffffffffffffffffff160217905550606060405190810160405280603381526020017f68747470733a2f2f6170692e676461782e636f6d2f70726f64756374732f425481526020017f432d5553442f7469636b6572292e707269636500000000000000000000000000815250600190805190602001906100c19291906100c7565b5061016c565b828054600181600116156101000203166002900490600052602060002090601f016020900481019282601f1061010857805160ff1916838001178555610136565b82800160010185558215610136579182015b8281111561013557825182559160200191906001019061011a565b5b5090506101439190610147565b5090565b61016991905b8082111561016557600081600090555060010161014d565b5090565b90565b6104f08061017b6000396000f300606060405260043610610083576000357c0100000000000000000000000000000000000000000000000000000000900463ffffffff16806313af40351461008857806318e857ab146100c15780635bee29b7146100fc5780637d7b009914610133578063aeb2ffc1146101c1578063c692c049146101fc578063cccaf5f814610211575b600080fd5b341561009357600080fd5b6100bf600480803573ffffffffffffffffffffffffffffffffffffffff1690602001909190505061023d565b005b34156100cc57600080fd5b6100e260048080359060200190919050506102db565b604051808215151515815260200191505060405180910390f35b341561010757600080fd5b61011d60048080359060200190919050506102fb565b6040518082815260200191505060405180910390f35b341561013e57600080fd5b610146610318565b6040518080602001828103825283818151815260200191508051906020019080838360005b8381101561018657808201518184015260208101905061016b565b50505050905090810190601f1680156101b35780820380516001836020036101000a031916815260200191505b509250505060405180910390f35b34156101cc57600080fd5b6101e260048080359060200190919050506103b6565b604051808215151515815260200191505060405180910390f35b341561020757600080fd5b61020f6103e0565b005b341561021c57600080fd5b61023b60048080359060200190919080359060200190919050506103e2565b005b6000809054906101000a900473ffffffffffffffffffffffffffffffffffffffff1673ffffffffffffffffffffffffffffffffffffffff163373ffffffffffffffffffffffffffffffffffffffff1614151561029857600080fd5b806000806101000a81548173ffffffffffffffffffffffffffffffffffffffff021916908373ffffffffffffffffffffffffffffffffffffffff16021790555050565b60036020528060005260406000206000915054906101000a900460ff1681565b600060026000838152602001908152602001600020549050919050565b60018054600181600116156101000203166002900480601f0160208091040260200160405190810160405280929190818152602001828054600181600116156101000203166002900480156103ae5780601f10610383576101008083540402835291602001916103ae565b820191906000526020600020905b81548152906001019060200180831161039157829003601f168201915b505050505081565b60006003600083815260200190815260200160002060009054906101000a900460ff169050919050565b565b6000809054906101000a900473ffffffffffffffffffffffffffffffffffffffff1673ffffffffffffffffffffffffffffffffffffffff163373ffffffffffffffffffffffffffffffffffffffff1614151561043d57600080fd5b8060026000848152602001908152602001600020819055507f25dac5e3ce09d66cb5ac7099effd09f1ee5b500d16d2e7c966f0ae75f89985f28282604051808381526020018281526020019250505060405180910390a160016003600084815260200190815260200160002060006101000a81548160ff02191690831515021790555050505600a165627a7a723058208d514f1d5e35a8023372b19f619867c0468ed79176c6c2a650fb1524c5710a9f0029",
  "source": "pragma solidity ^0.4.17;\r\n\r\n/**\r\n*The Oracle contract provides the reference prices for the contracts.  Currently the Oracle is \r\n*updated by an off chain calculation by DDA.  Methodology can be found at \r\n*www.github.com/DecentralizedDerivatives/Oracles\r\n*/\r\ncontract Test_Oracle {\r\n\r\n\r\n  /*Variables*/\r\n  //Owner of the oracle\r\n  address private owner;\r\n  string public API;\r\n  //Mapping of documents stored in the oracle\r\n  mapping(uint => uint) oracle_values;\r\n  mapping(uint => bool) public queried;\r\n\r\n  /*Events*/\r\n  event DocumentStored(uint _key, uint _value);\r\n\r\n  modifier onlyOwner {\r\n    require(msg.sender == owner);\r\n    _;\r\n  }\r\n\r\n  //Constructor - Sets owner\r\n  function Test_Oracle() public {\r\n    owner = msg.sender;\r\n    API = \"https://api.gdax.com/products/BTC-USD/ticker).price\";\r\n  }\r\n\r\n  //Allows the owner of the Oracle to store a document in the oracle_values mapping. Documents\r\n  //represent underlying values at a specified date (key).\r\n  function StoreDocument(uint _key, uint _value) public onlyOwner() {\r\n    oracle_values[_key] = _value;\r\n    DocumentStored(_key, _value);\r\n    queried[_key] = true;\r\n  }\r\n\r\n  function pushData() public view{\r\n    //here for testing purposes\r\n    }\r\n\r\n    /**\r\n    *@dev Determine if the Oracle was queried\r\n    *@param _date a specified date\r\n    *@return whether or not the Oracle was queried on the specified date\r\n    */    \r\n    function getQuery(uint _date) public view returns(bool){\r\n        return queried[_date];\r\n    }\r\n\r\n    /**\r\n    *@dev Allows for the viewing of Oracle data\r\n    *@param _date specified date being queried from the Oracle data\r\n    *@return oracle_values for the date\r\n    */\r\n    function retrieveData(uint _date) public constant returns (uint) {\r\n        return oracle_values[_date];\r\n    }\r\n\r\n    /**\r\n    *@dev Set the new owner of the contract or test oracle?\r\n    *@param _new_owner for the oracle? \r\n    */\r\n    function setOwner(address _new_owner) public onlyOwner() {\r\n        owner = _new_owner; \r\n    }\r\n}",
  "sourcePath": "C:\\company\\code\\drct_standard\\contracts\\Test_Oracle.sol",
  "compiler": {
    "name": "solc",
    "version": "0.4.19+commit.c4cbbb05.Emscripten.clang"
  },
  "schemaVersion": "1.0.1",
  "updatedAt": "2018-04-18T00:42:26.218Z"
}