{
  "contractName": "TokenToTokenSwap",
  "abi": [
    {
      "constant": true,
      "inputs": [],
      "name": "token_amount",
      "outputs": [
        {
          "name": "",
          "type": "uint256"
        }
      ],
      "payable": false,
      "stateMutability": "view",
      "type": "function"
    },
    {
      "constant": true,
      "inputs": [],
      "name": "current_state",
      "outputs": [
        {
          "name": "",
          "type": "uint8"
        }
      ],
      "payable": false,
      "stateMutability": "view",
      "type": "function"
    },
    {
      "constant": true,
      "inputs": [],
      "name": "factory_address",
      "outputs": [
        {
          "name": "",
          "type": "address"
        }
      ],
      "payable": false,
      "stateMutability": "view",
      "type": "function"
    },
    {
      "inputs": [
        {
          "name": "_factory_address",
          "type": "address"
        },
        {
          "name": "_creator",
          "type": "address"
        },
        {
          "name": "_userContract",
          "type": "address"
        },
        {
          "name": "_start_date",
          "type": "uint256"
        }
      ],
      "payable": false,
      "stateMutability": "nonpayable",
      "type": "constructor"
    },
    {
      "anonymous": false,
      "inputs": [
        {
          "indexed": false,
          "name": "_token_address",
          "type": "address"
        },
        {
          "indexed": false,
          "name": "_start_date",
          "type": "uint256"
        },
        {
          "indexed": false,
          "name": "_end_date",
          "type": "uint256"
        },
        {
          "indexed": false,
          "name": "_token_amount",
          "type": "uint256"
        }
      ],
      "name": "SwapCreation",
      "type": "event"
    },
    {
      "anonymous": false,
      "inputs": [
        {
          "indexed": false,
          "name": "pay_to_long",
          "type": "uint256"
        },
        {
          "indexed": false,
          "name": "pay_to_short",
          "type": "uint256"
        }
      ],
      "name": "PaidOut",
      "type": "event"
    },
    {
      "constant": true,
      "inputs": [],
      "name": "showPrivateVars",
      "outputs": [
        {
          "name": "",
          "type": "address"
        },
        {
          "name": "",
          "type": "uint256"
        },
        {
          "name": "",
          "type": "address"
        },
        {
          "name": "",
          "type": "address"
        },
        {
          "name": "",
          "type": "address"
        },
        {
          "name": "",
          "type": "address"
        },
        {
          "name": "",
          "type": "uint256"
        },
        {
          "name": "",
          "type": "uint256"
        },
        {
          "name": "",
          "type": "uint256"
        },
        {
          "name": "",
          "type": "uint256"
        }
      ],
      "payable": false,
      "stateMutability": "view",
      "type": "function"
    },
    {
      "constant": false,
      "inputs": [
        {
          "name": "_amount",
          "type": "uint256"
        },
        {
          "name": "_senderAdd",
          "type": "address"
        }
      ],
      "name": "CreateSwap",
      "outputs": [],
      "payable": false,
      "stateMutability": "nonpayable",
      "type": "function"
    },
    {
      "constant": false,
      "inputs": [
        {
          "name": "_begin",
          "type": "uint256"
        },
        {
          "name": "_end",
          "type": "uint256"
        }
      ],
      "name": "forcePay",
      "outputs": [
        {
          "name": "",
          "type": "bool"
        }
      ],
      "payable": false,
      "stateMutability": "nonpayable",
      "type": "function"
    }
  ],
  "bytecode": "0x6060604052341561000f57600080fd5b60405160808061227f8339810160405280805190602001909190805190602001909190805190602001909190805190602001909190505082600460006101000a81548173ffffffffffffffffffffffffffffffffffffffff021916908373ffffffffffffffffffffffffffffffffffffffff16021790555083600260006101000a81548173ffffffffffffffffffffffffffffffffffffffff021916908373ffffffffffffffffffffffffffffffffffffffff16021790555081601460006101000a81548173ffffffffffffffffffffffffffffffffffffffff021916908373ffffffffffffffffffffffffffffffffffffffff160217905550806007819055506000600660146101000a81548160ff0219169083600281111561012f57fe5b021790555050505050612138806101476000396000f300606060405260043610610078576000357c0100000000000000000000000000000000000000000000000000000000900463ffffffff16806354f6c0db1461007d5780635b04cbb5146100a657806370f9c021146100dd57806379eba0b614610121578063ba92d38214610265578063dec5472a146102ba575b600080fd5b341561008857600080fd5b6100906102fc565b6040518082815260200191505060405180910390f35b34156100b157600080fd5b6100b9610302565b604051808260028111156100c957fe5b60ff16815260200191505060405180910390f35b34156100e857600080fd5b6101076004808035906020019091908035906020019091905050610315565b604051808215151515815260200191505060405180910390f35b341561012c57600080fd5b610134610cba565b604051808b73ffffffffffffffffffffffffffffffffffffffff1673ffffffffffffffffffffffffffffffffffffffff1681526020018a81526020018973ffffffffffffffffffffffffffffffffffffffff1673ffffffffffffffffffffffffffffffffffffffff1681526020018873ffffffffffffffffffffffffffffffffffffffff1673ffffffffffffffffffffffffffffffffffffffff1681526020018773ffffffffffffffffffffffffffffffffffffffff1673ffffffffffffffffffffffffffffffffffffffff1681526020018673ffffffffffffffffffffffffffffffffffffffff1673ffffffffffffffffffffffffffffffffffffffff1681526020018581526020018481526020018381526020018281526020019a505050505050505050505060405180910390f35b341561027057600080fd5b610278610da6565b604051808273ffffffffffffffffffffffffffffffffffffffff1673ffffffffffffffffffffffffffffffffffffffff16815260200191505060405180910390f35b34156102c557600080fd5b6102fa600480803590602001909190803573ffffffffffffffffffffffffffffffffffffffff16906020019091905050610dcc565b005b60125481565b600660149054906101000a900460ff1681565b60008060008060008060008060008060006001600660149054906101000a900460ff16600281111561034357fe5b81600281111561034f57fe5b14151561035b57600080fd5b600854421015151561036c57600080fd5b61037461120d565b9a508a15610ca657610384611793565b600f60009054906101000a900473ffffffffffffffffffffffffffffffffffffffff16601360006101000a81548173ffffffffffffffffffffffffffffffffffffffff021916908373ffffffffffffffffffffffffffffffffffffffff160217905550601360009054906101000a900473ffffffffffffffffffffffffffffffffffffffff1673ffffffffffffffffffffffffffffffffffffffff16638811a0ae306000604051602001526040518263ffffffff167c0100000000000000000000000000000000000000000000000000000000028152600401808273ffffffffffffffffffffffffffffffffffffffff1673ffffffffffffffffffffffffffffffffffffffff168152602001915050602060405180830381600087803b15156104ac57600080fd5b6102c65a03f115156104bd57600080fd5b505050604051805190509950898e1115156106e2578c8a106104df578c6104e1565b895b98506001890397505b8d881015156106e157601360009054906101000a900473ffffffffffffffffffffffffffffffffffffffff1673ffffffffffffffffffffffffffffffffffffffff1663b85ed17d89306000604051602001526040518363ffffffff167c0100000000000000000000000000000000000000000000000000000000028152600401808381526020018273ffffffffffffffffffffffffffffffffffffffff1673ffffffffffffffffffffffffffffffffffffffff16815260200192505050602060405180830381600087803b15156105c057600080fd5b6102c65a03f115156105d157600080fd5b505050604051805190509650601360009054906101000a900473ffffffffffffffffffffffffffffffffffffffff1673ffffffffffffffffffffffffffffffffffffffff1663637dda3f89306000604051602001526040518363ffffffff167c0100000000000000000000000000000000000000000000000000000000028152600401808381526020018273ffffffffffffffffffffffffffffffffffffffff1673ffffffffffffffffffffffffffffffffffffffff16815260200192505050602060405180830381600087803b15156106aa57600080fd5b6102c65a03f115156106bb57600080fd5b5050506040518051905095506106d3878760016118ed565b8780600190039850506104ea565b5b601060009054906101000a900473ffffffffffffffffffffffffffffffffffffffff16601360006101000a81548173ffffffffffffffffffffffffffffffffffffffff021916908373ffffffffffffffffffffffffffffffffffffffff160217905550601360009054906101000a900473ffffffffffffffffffffffffffffffffffffffff1673ffffffffffffffffffffffffffffffffffffffff16638811a0ae306000604051602001526040518263ffffffff167c0100000000000000000000000000000000000000000000000000000000028152600401808273ffffffffffffffffffffffffffffffffffffffff1673ffffffffffffffffffffffffffffffffffffffff168152602001915050602060405180830381600087803b151561080a57600080fd5b6102c65a03f1151561081b57600080fd5b505050604051805190509450848e111515610a40578c851061083d578c61083f565b845b98506001890393505b8d84101515610a3f57601360009054906101000a900473ffffffffffffffffffffffffffffffffffffffff1673ffffffffffffffffffffffffffffffffffffffff1663b85ed17d85306000604051602001526040518363ffffffff167c0100000000000000000000000000000000000000000000000000000000028152600401808381526020018273ffffffffffffffffffffffffffffffffffffffff1673ffffffffffffffffffffffffffffffffffffffff16815260200192505050602060405180830381600087803b151561091e57600080fd5b6102c65a03f1151561092f57600080fd5b505050604051805190509250601360009054906101000a900473ffffffffffffffffffffffffffffffffffffffff1673ffffffffffffffffffffffffffffffffffffffff1663637dda3f85306000604051602001526040518363ffffffff167c0100000000000000000000000000000000000000000000000000000000028152600401808381526020018273ffffffffffffffffffffffffffffffffffffffff1673ffffffffffffffffffffffffffffffffffffffff16815260200192505050602060405180830381600087803b1515610a0857600080fd5b6102c65a03f11515610a1957600080fd5b505050604051805190509150610a31838360006118ed565b838060019003945050610848565b5b898d118015610a4e5750848d115b15610ca557600660009054906101000a900473ffffffffffffffffffffffffffffffffffffffff1673ffffffffffffffffffffffffffffffffffffffff1663a9059cbb600260009054906101000a900473ffffffffffffffffffffffffffffffffffffffff16600660009054906101000a900473ffffffffffffffffffffffffffffffffffffffff1673ffffffffffffffffffffffffffffffffffffffff166370a08231306000604051602001526040518263ffffffff167c0100000000000000000000000000000000000000000000000000000000028152600401808273ffffffffffffffffffffffffffffffffffffffff1673ffffffffffffffffffffffffffffffffffffffff168152602001915050602060405180830381600087803b1515610b7957600080fd5b6102c65a03f11515610b8a57600080fd5b505050604051805190506000604051602001526040518363ffffffff167c0100000000000000000000000000000000000000000000000000000000028152600401808373ffffffffffffffffffffffffffffffffffffffff1673ffffffffffffffffffffffffffffffffffffffff16815260200182815260200192505050602060405180830381600087803b1515610c2157600080fd5b6102c65a03f11515610c3257600080fd5b50505060405180519050507fbc6c94b90850c7cd9f35740bb9b9cbce0e00c88e8ddeaace095f1d45bfd74010600b54600c54604051808381526020018281526020019250505060405180910390a16002600660146101000a81548160ff02191690836002811115610c9f57fe5b02179055505b5b8a9b50505050505050505050505092915050565b600080600080600080600080600080601460009054906101000a900473ffffffffffffffffffffffffffffffffffffffff16601154600f60009054906101000a900473ffffffffffffffffffffffffffffffffffffffff16601060009054906101000a900473ffffffffffffffffffffffffffffffffffffffff166000809054906101000a900473ffffffffffffffffffffffffffffffffffffffff16600560009054906101000a900473ffffffffffffffffffffffffffffffffffffffff16600954600a54600754600854995099509950995099509950995099509950995090919293949596979899565b600260009054906101000a900473ffffffffffffffffffffffffffffffffffffffff1681565b6000600660149054906101000a900460ff166002811115610de957fe5b816002811115610df557fe5b141515610e0157600080fd5b600460009054906101000a900473ffffffffffffffffffffffffffffffffffffffff1673ffffffffffffffffffffffffffffffffffffffff163373ffffffffffffffffffffffffffffffffffffffff161480610f035750601460009054906101000a900473ffffffffffffffffffffffffffffffffffffffff1673ffffffffffffffffffffffffffffffffffffffff163373ffffffffffffffffffffffffffffffffffffffff16148015610f025750600460009054906101000a900473ffffffffffffffffffffffffffffffffffffffff1673ffffffffffffffffffffffffffffffffffffffff168273ffffffffffffffffffffffffffffffffffffffff16145b5b1515610f0e57600080fd5b600260009054906101000a900473ffffffffffffffffffffffffffffffffffffffff16600360006101000a81548173ffffffffffffffffffffffffffffffffffffffff021916908373ffffffffffffffffffffffffffffffffffffffff160217905550610f79611d5c565b610fa5610f9462015180600a54611eb490919063ffffffff16565b600754611ee790919063ffffffff16565b6008819055506224ea0060075460085403101515610fbf57fe5b82601281905550600560009054906101000a900473ffffffffffffffffffffffffffffffffffffffff16600660006101000a81548173ffffffffffffffffffffffffffffffffffffffff021916908373ffffffffffffffffffffffffffffffffffffffff16021790555060028302600660009054906101000a900473ffffffffffffffffffffffffffffffffffffffff1673ffffffffffffffffffffffffffffffffffffffff166370a08231306000604051602001526040518263ffffffff167c0100000000000000000000000000000000000000000000000000000000028152600401808273ffffffffffffffffffffffffffffffffffffffff1673ffffffffffffffffffffffffffffffffffffffff168152602001915050602060405180830381600087803b15156110f257600080fd5b6102c65a03f1151561110357600080fd5b5050506040518051905014151561111657fe5b611141600460009054906101000a900473ffffffffffffffffffffffffffffffffffffffff16611f05565b7f4bd82ea3087db5766e0b0ac766426889c709d48bfa239b6e5de07f5f57f561df600560009054906101000a900473ffffffffffffffffffffffffffffffffffffffff16600754600854601254604051808573ffffffffffffffffffffffffffffffffffffffff1673ffffffffffffffffffffffffffffffffffffffff16815260200184815260200183815260200182815260200194505050505060405180910390a16001600660146101000a81548160ff0219169083600281111561120357fe5b0217905550505050565b60008060008060009054906101000a900473ffffffffffffffffffffffffffffffffffffffff16600160006101000a81548173ffffffffffffffffffffffffffffffffffffffff021916908373ffffffffffffffffffffffffffffffffffffffff160217905550620151804281151561128257fe5b0642039150600754821015801561129b57506000600d54145b1561150857600090505b6201518060075483038115156112b757fe5b0481101561145a57600160009054906101000a900473ffffffffffffffffffffffffffffffffffffffff1673ffffffffffffffffffffffffffffffffffffffff1663aeb2ffc1620151808302600754016000604051602001526040518263ffffffff167c010000000000000000000000000000000000000000000000000000000002815260040180828152602001915050602060405180830381600087803b151561136157600080fd5b6102c65a03f1151561137257600080fd5b505050604051805190501561144d57600160009054906101000a900473ffffffffffffffffffffffffffffffffffffffff1673ffffffffffffffffffffffffffffffffffffffff16635bed1772620151808302600754016000604051602001526040518263ffffffff167c010000000000000000000000000000000000000000000000000000000002815260040180828152602001915050602060405180830381600087803b151561142357600080fd5b6102c65a03f1151561143457600080fd5b50505060405180519050600d819055506001925061178e565b80806001019150506112a5565b6000600d54141561150757600160009054906101000a900473ffffffffffffffffffffffffffffffffffffffff1673ffffffffffffffffffffffffffffffffffffffff1663c692c0496040518163ffffffff167c0100000000000000000000000000000000000000000000000000000000028152600401600060405180830381600087803b15156114ea57600080fd5b6102c65a03f115156114fb57600080fd5b5050506000925061178e565b5b600854821015801561151c57506000600e54145b1561178957600090505b62015180600854830381151561153857fe5b048110156116db57600160009054906101000a900473ffffffffffffffffffffffffffffffffffffffff1673ffffffffffffffffffffffffffffffffffffffff1663aeb2ffc1620151808302600854016000604051602001526040518263ffffffff167c010000000000000000000000000000000000000000000000000000000002815260040180828152602001915050602060405180830381600087803b15156115e257600080fd5b6102c65a03f115156115f357600080fd5b50505060405180519050156116ce57600160009054906101000a900473ffffffffffffffffffffffffffffffffffffffff1673ffffffffffffffffffffffffffffffffffffffff16635bed1772620151808302600854016000604051602001526040518263ffffffff167c010000000000000000000000000000000000000000000000000000000002815260040180828152602001915050602060405180830381600087803b15156116a457600080fd5b6102c65a03f115156116b557600080fd5b50505060405180519050600e819055506001925061178e565b8080600101915050611526565b6000600e54141561178857600160009054906101000a900473ffffffffffffffffffffffffffffffffffffffff1673ffffffffffffffffffffffffffffffffffffffff1663c692c0496040518163ffffffff167c0100000000000000000000000000000000000000000000000000000000028152600401600060405180830381600087803b151561176b57600080fd5b6102c65a03f1151561177c57600080fd5b5050506000925061178e565b5b600192505b505090565b60006117c06103e86117b26103e3601254611eb490919063ffffffff16565b6120bf90919063ffffffff16565b6012819055506000600d541180156117da57506000600e54115b156118125761180b600d546117fd620186a0600e54611eb490919063ffffffff16565b6120bf90919063ffffffff16565b9050611847565b6000600e54111561182a5764174876e8009050611846565b6000600d54111561183e5760009050611845565b620186a090505b5b5b61185462030d40826120da565b9050611894620186a061188660115461187860125486611eb490919063ffffffff16565b6120bf90919063ffffffff16565b6120bf90919063ffffffff16565b600b819055506118e4620186a06118d66011546118c86012546118ba62030d40886120f3565b611eb490919063ffffffff16565b6120bf90919063ffffffff16565b6120bf90919063ffffffff16565b600c8190555050565b8015611b27576000600b541115611b2257600660009054906101000a900473ffffffffffffffffffffffffffffffffffffffff1673ffffffffffffffffffffffffffffffffffffffff1663a9059cbb84611952600b5486611eb490919063ffffffff16565b6000604051602001526040518363ffffffff167c0100000000000000000000000000000000000000000000000000000000028152600401808373ffffffffffffffffffffffffffffffffffffffff1673ffffffffffffffffffffffffffffffffffffffff16815260200182815260200192505050602060405180830381600087803b15156119df57600080fd5b6102c65a03f115156119f057600080fd5b5050506040518051905050600360009054906101000a900473ffffffffffffffffffffffffffffffffffffffff1673ffffffffffffffffffffffffffffffffffffffff1663ecb1451984600f60009054906101000a900473ffffffffffffffffffffffffffffffffffffffff166040518363ffffffff167c0100000000000000000000000000000000000000000000000000000000028152600401808373ffffffffffffffffffffffffffffffffffffffff1673ffffffffffffffffffffffffffffffffffffffff1681526020018273ffffffffffffffffffffffffffffffffffffffff1673ffffffffffffffffffffffffffffffffffffffff16815260200192505050600060405180830381600087803b1515611b0d57600080fd5b6102c65a03f11515611b1e57600080fd5b5050505b611d57565b6000600c541115611d5657600660009054906101000a900473ffffffffffffffffffffffffffffffffffffffff1673ffffffffffffffffffffffffffffffffffffffff1663a9059cbb84611b86600c5486611eb490919063ffffffff16565b6000604051602001526040518363ffffffff167c0100000000000000000000000000000000000000000000000000000000028152600401808373ffffffffffffffffffffffffffffffffffffffff1673ffffffffffffffffffffffffffffffffffffffff16815260200182815260200192505050602060405180830381600087803b1515611c1357600080fd5b6102c65a03f11515611c2457600080fd5b5050506040518051905050600360009054906101000a900473ffffffffffffffffffffffffffffffffffffffff1673ffffffffffffffffffffffffffffffffffffffff1663ecb1451984601060009054906101000a900473ffffffffffffffffffffffffffffffffffffffff166040518363ffffffff167c0100000000000000000000000000000000000000000000000000000000028152600401808373ffffffffffffffffffffffffffffffffffffffff1673ffffffffffffffffffffffffffffffffffffffff1681526020018273ffffffffffffffffffffffffffffffffffffffff1673ffffffffffffffffffffffffffffffffffffffff16815260200192505050600060405180830381600087803b1515611d4157600080fd5b6102c65a03f11515611d5257600080fd5b5050505b5b505050565b600360009054906101000a900473ffffffffffffffffffffffffffffffffffffffff1673ffffffffffffffffffffffffffffffffffffffff166394aef0226000604051608001526040518163ffffffff167c0100000000000000000000000000000000000000000000000000000000028152600401608060405180830381600087803b1515611dea57600080fd5b6102c65a03f11515611dfb57600080fd5b50505060405180519060200180519060200180519060200180519050600080600a600060096000600560008891906101000a81548173ffffffffffffffffffffffffffffffffffffffff021916908373ffffffffffffffffffffffffffffffffffffffff160217905550879190505586919050558591906101000a81548173ffffffffffffffffffffffffffffffffffffffff021916908373ffffffffffffffffffffffffffffffffffffffff16021790555050505050565b60008082840290506000841480611ed55750828482811515611ed257fe5b04145b1515611edd57fe5b8091505092915050565b6000808284019050838110151515611efb57fe5b8091505092915050565b600060019050600360009054906101000a900473ffffffffffffffffffffffffffffffffffffffff1673ffffffffffffffffffffffffffffffffffffffff16632a7292d0601254846007546000604051606001526040518463ffffffff167c0100000000000000000000000000000000000000000000000000000000028152600401808481526020018373ffffffffffffffffffffffffffffffffffffffff1673ffffffffffffffffffffffffffffffffffffffff1681526020018281526020019350505050606060405180830381600087803b1515611fe457600080fd5b6102c65a03f11515611ff557600080fd5b50505060405180519060200180519060200180519050600f6000601060008497508591906101000a81548173ffffffffffffffffffffffffffffffffffffffff021916908373ffffffffffffffffffffffffffffffffffffffff1602179055508491906101000a81548173ffffffffffffffffffffffffffffffffffffffff021916908373ffffffffffffffffffffffffffffffffffffffff1602179055505050506120ac816012546120bf90919063ffffffff16565b6011819055506120ba61120d565b505050565b60008082848115156120cd57fe5b0490508091505092915050565b60008183106120e957816120eb565b825b905092915050565b600082821115151561210157fe5b8183039050929150505600a165627a7a723058209914e4d5ed718c317c0bf946c68e0a1418f119461ee3464eb9698613ff7f09500029",
  "source": "pragma solidity ^0.4.17;\r\n\r\nimport \"./interfaces/Oracle_Interface.sol\";\r\nimport \"./interfaces/DRCT_Token_Interface.sol\";\r\nimport \"./interfaces/Factory_Interface.sol\";\r\nimport \"./interfaces/ERC20_Interface.sol\";\r\nimport \"./libraries/SafeMath.sol\";\r\n\r\n\r\n//This contract is the specific DRCT base contract that holds the funds of the contract and redistributes them based upon the change in the underlying values\r\ncontract TokenToTokenSwap {\r\n\r\n  using SafeMath for uint256;\r\n\r\n\r\n\r\n  /*Enums*/\r\n  //Describes various states of the Swap\r\n  enum SwapState {\r\n    created,\r\n    started,\r\n    ended\r\n  }\r\n  /*Variables*/\r\n  //The Oracle address (check for list at www.github.com/DecentralizedDerivatives/Oracles)\r\n  address oracle_address;\r\n  Oracle_Interface oracle;\r\n  //Address of the Factory that created this contract\r\n  address public factory_address;\r\n  Factory_Interface factory;\r\n  address creator;\r\n  //Addresses of ERC20 token\r\n  address token_address;\r\n  ERC20_Interface token;\r\n  //Enum state of the swap\r\n  SwapState public current_state;\r\n  //Start and end dates of the swaps - format is the same as block.timestamp\r\n  uint start_date;\r\n  uint end_date;\r\n  uint multiplier;\r\n  uint duration;\r\n  // pay_to_x refers to the amount of the base token (a or b) to pay to the long or short side based upon the share_long and share_short\r\n  uint pay_to_long;\r\n  uint pay_to_short;\r\n\r\n  uint start_value;\r\n  uint end_value;\r\n  //Address of created long and short DRCT tokens\r\n  address long_token_address;\r\n  address short_token_address;\r\n  //Number of DRCT Tokens distributed to both parties\r\n  uint num_DRCT_tokens;\r\n  //The notional that the payment is calculated on from the change in the reference rate\r\n  uint public token_amount;\r\n  DRCT_Token_Interface drct;\r\n  address userContract;\r\n\r\n  /*Events*/\r\n  //Emitted when a Swap is created\r\n  event SwapCreation(address _token_address, uint _start_date, uint _end_date, uint _token_amount);\r\n  //Emitted when the swap has been paid out\r\n  event PaidOut(uint pay_to_long, uint pay_to_short);\r\n  /*Functions*/\r\n  modifier onlyState(SwapState expected_state) {\r\n    require(expected_state == current_state);\r\n    _;\r\n  }\r\n\r\n  /*\r\n  * Constructor - Run by the factory at contract creation\r\n  * @param \"_factory_address\": Address of the factory that created this contract\r\n  * @param \"_creator\": Address of the person who created the contract\r\n  * @param \"_userContract\": Address of the _userContract that is authorized to interact with this contract\r\n  */\r\n  function TokenToTokenSwap (address _factory_address, address _creator, address _userContract, uint _start_date) public {\r\n    creator = _creator;\r\n    factory_address = _factory_address;\r\n    userContract = _userContract;\r\n    start_date = _start_date;\r\n    current_state = SwapState.created;\r\n  }\r\n\r\n\r\n  //A getter function for retriving standardized variables from the factory contract\r\n  function showPrivateVars() public view returns (address, uint, address, address, address, address,  uint, uint, uint, uint){\r\n    return (userContract, num_DRCT_tokens,long_token_address,short_token_address, oracle_address, token_address, multiplier, duration, start_date, end_date);\r\n  }\r\n\r\n  /*\r\n  * Allows the sender to create the terms for the swap\r\n  * @param \"_amount_a\": Amount of Token A that should be deposited for the notional\r\n  * @param \"_amount_b\": Amount of Token B that should be deposited for the notional\r\n  * @param \"_sender_is_long\": Denotes whether the sender is set as the short or long party\r\n  * @param \"_senderAdd\": States the owner of this side of the contract (does not have to be msg.sender)\r\n  */\r\n  function CreateSwap(\r\n    uint _amount,\r\n    address _senderAdd\r\n    ) public onlyState(SwapState.created) {\r\n    require(\r\n      msg.sender == creator || (msg.sender == userContract && _senderAdd == creator)\r\n    );\r\n    factory = Factory_Interface(factory_address);\r\n    setVars();\r\n    end_date = start_date.add(duration.mul(86400));\r\n    assert(end_date-start_date < 28*86400);\r\n    token_amount = _amount;\r\n    token = ERC20_Interface(token_address);\r\n    assert(token.balanceOf(address(this)) == _amount*2);\r\n    createTokens(creator);\r\n    SwapCreation(token_address,start_date,end_date,token_amount);\r\n    current_state = SwapState.started;\r\n  }\r\n\r\n  function setVars() internal{\r\n      (oracle_address,duration,multiplier,token_address) = factory.getVariables();\r\n  }\r\n\r\n  /*\r\n  * This function is for those entering the swap. The details of the swap are re-entered and checked\r\n  * to ensure the entering party is entering the correct swap. Note that the tokens you are entering with\r\n  * do not need to be entered as a variable, but you should ensure that the contract is funded.\r\n  * This function creates the DRCT tokens for the short and long parties, and ensures the short and long parties\r\n  * have funded the contract with the correct amount of the ERC20 tokens A and B\r\n  *\r\n  */\r\n  function createTokens(address _party) internal {\r\n    uint tokenratio = 1;\r\n    (long_token_address,short_token_address,tokenratio) = factory.createToken(token_amount,_party,start_date);\r\n    num_DRCT_tokens = token_amount.div(tokenratio);\r\n    oracleQuery();\r\n  }\r\n\r\n  function oracleQuery() internal returns(bool){\r\n    oracle = Oracle_Interface(oracle_address);\r\n    uint _today = now - (now % 86400);\r\n    uint i;\r\n    if(_today >= start_date && start_value == 0){\r\n        for(i=0;i < (_today- start_date)/86400;i++){\r\n           if(oracle.getQuery(start_date+i*86400)){\r\n              start_value = oracle.RetrieveData(start_date+i*86400);\r\n              return true;\r\n           }\r\n        }\r\n        if(start_value ==0){\r\n          oracle.pushData();\r\n          return false;\r\n        }\r\n    }\r\n    if(_today >= end_date && end_value == 0){\r\n        for(i=0;i < (_today- end_date)/86400;i++){\r\n           if(oracle.getQuery(end_date+i*86400)){\r\n              end_value = oracle.RetrieveData(end_date+i*86400);\r\n              return true;\r\n           }\r\n        }\r\n        if(end_value ==0){\r\n          oracle.pushData();\r\n          return false;\r\n        }\r\n    }\r\n    return true;\r\n  }\r\n\r\n  /*\r\n  * This function calculates the payout of the swap. It can be called after the Swap has been tokenized.\r\n  * The value of the underlying cannot reach zero, but rather can only get within 0.001 * the precision\r\n  * of the Oracle.\r\n  */\r\n  function Calculate() internal {\r\n    uint ratio;\r\n    token_amount = token_amount.mul(995).div(1000);\r\n    if (start_value > 0 && end_value > 0)\r\n      ratio = (end_value).mul(100000).div(start_value);\r\n    else if (end_value > 0)\r\n      ratio = 10e10;\r\n    else if (start_value > 0)\r\n      ratio = 0;\r\n    else\r\n      ratio = 100000;\r\n    ratio = SafeMath.min(200000,ratio);\r\n    pay_to_long = (ratio.mul(token_amount)).div(num_DRCT_tokens).div(100000);\r\n    pay_to_short = (SafeMath.sub(200000,ratio).mul(token_amount)).div(num_DRCT_tokens).div(100000);\r\n  }\r\n\r\n\r\n  /*\r\n  * This function can be called after the swap is tokenized or after the Calculate function is called.\r\n  * If the Calculate function has not yet been called, this function will call it.\r\n  * The function then pays every token holder of both the long and short DRCT tokens\r\n  //What should we do about zeroed out values? \r\n  */\r\n  function forcePay(uint _begin, uint _end) public onlyState(SwapState.started) returns (bool) {\r\n    //Calls the Calculate function first to calculate short and long shares\r\n    require(now >= end_date);\r\n    bool ready = oracleQuery();\r\n    if(ready){\r\n      Calculate();\r\n      //Loop through the owners of long and short DRCT tokens and pay them\r\n      drct = DRCT_Token_Interface(long_token_address);\r\n      uint count = drct.addressCount(address(this));\r\n      if(_begin <= count){\r\n        uint loop_count = count < _end ? count : _end;\r\n        //Indexing begins at 1 for DRCT_Token balances\r\n        for(uint i = loop_count-1; i >= _begin ; i--) {\r\n          address long_owner = drct.getHolderByIndex(i, address(this));\r\n          uint to_pay_long = drct.getBalanceByIndex(i, address(this));\r\n          paySwap(long_owner, to_pay_long, true);\r\n        }\r\n      }\r\n\r\n      drct = DRCT_Token_Interface(short_token_address);\r\n      uint count2 = drct.addressCount(address(this));\r\n      if(_begin <= count2){\r\n      loop_count = count2 < _end ? count2 : _end;\r\n      for(uint j = loop_count-1; j >= _begin ; j--) {\r\n        address short_owner = drct.getHolderByIndex(j, address(this));\r\n        uint to_pay_short = drct.getBalanceByIndex(j, address(this));\r\n        paySwap(short_owner, to_pay_short, false);\r\n      }\r\n     }\r\n      if (_end > count && _end > count2){\r\n          token.transfer(factory_address, token.balanceOf(address(this)));\r\n          PaidOut(pay_to_long,pay_to_short);\r\n          current_state = SwapState.ended;\r\n        }\r\n    }\r\n\r\n    return ready;\r\n  }\r\n\r\n  /*\r\n  * This function pays the receiver an amount determined by the Calculate function\r\n  * @param \"_receiver\": The recipient of the payout\r\n  * @param \"_amount\": The amount of token the recipient holds\r\n  * @param \"_is_long\": Whether or not the reciever holds a long or short token\r\n  */\r\n  function paySwap(address _receiver, uint _amount, bool _is_long) internal {\r\n    if (_is_long) {\r\n      if (pay_to_long > 0){\r\n        token.transfer(_receiver, _amount.mul(pay_to_long));\r\n        factory.payToken(_receiver,long_token_address);\r\n      }\r\n    } else {\r\n      if (pay_to_short > 0){\r\n       token.transfer(_receiver, _amount.mul(pay_to_short));\r\n       factory.payToken(_receiver,short_token_address);\r\n     }\r\n    }\r\n  }\r\n}\r\n",
  "sourcePath": "C:\\company\\code\\drct_standard\\contracts\\TokenToTokenSwap.sol",
  "compiler": {
    "name": "solc",
    "version": "0.4.19+commit.c4cbbb05.Emscripten.clang"
  },
  "schemaVersion": "1.0.1",
  "updatedAt": "2018-04-16T18:17:35.434Z"
}