{
  "contractName": "Wrapped_Ether",
  "abi": [
    {
      "constant": true,
      "inputs": [],
      "name": "name",
      "outputs": [
        {
          "name": "",
          "type": "string"
        }
      ],
      "payable": false,
      "stateMutability": "view",
      "type": "function"
    },
    {
      "constant": true,
      "inputs": [],
      "name": "total_supply",
      "outputs": [
        {
          "name": "",
          "type": "uint256"
        }
      ],
      "payable": false,
      "stateMutability": "view",
      "type": "function"
    },
    {
      "anonymous": false,
      "inputs": [
        {
          "indexed": true,
          "name": "_from",
          "type": "address"
        },
        {
          "indexed": true,
          "name": "_to",
          "type": "address"
        },
        {
          "indexed": false,
          "name": "_value",
          "type": "uint256"
        }
      ],
      "name": "Transfer",
      "type": "event"
    },
    {
      "anonymous": false,
      "inputs": [
        {
          "indexed": true,
          "name": "_owner",
          "type": "address"
        },
        {
          "indexed": true,
          "name": "_spender",
          "type": "address"
        },
        {
          "indexed": false,
          "name": "_value",
          "type": "uint256"
        }
      ],
      "name": "Approval",
      "type": "event"
    },
    {
      "anonymous": false,
      "inputs": [
        {
          "indexed": false,
          "name": "_success",
          "type": "bool"
        },
        {
          "indexed": false,
          "name": "_message",
          "type": "string"
        }
      ],
      "name": "StateChanged",
      "type": "event"
    },
    {
      "constant": false,
      "inputs": [],
      "name": "CreateToken",
      "outputs": [],
      "payable": true,
      "stateMutability": "payable",
      "type": "function"
    },
    {
      "constant": false,
      "inputs": [
        {
          "name": "_value",
          "type": "uint256"
        }
      ],
      "name": "withdraw",
      "outputs": [],
      "payable": false,
      "stateMutability": "nonpayable",
      "type": "function"
    },
    {
      "constant": true,
      "inputs": [
        {
          "name": "_owner",
          "type": "address"
        }
      ],
      "name": "balanceOf",
      "outputs": [
        {
          "name": "bal",
          "type": "uint256"
        }
      ],
      "payable": false,
      "stateMutability": "view",
      "type": "function"
    },
    {
      "constant": false,
      "inputs": [
        {
          "name": "_to",
          "type": "address"
        },
        {
          "name": "_amount",
          "type": "uint256"
        }
      ],
      "name": "transfer",
      "outputs": [
        {
          "name": "",
          "type": "bool"
        }
      ],
      "payable": false,
      "stateMutability": "nonpayable",
      "type": "function"
    },
    {
      "constant": false,
      "inputs": [
        {
          "name": "_from",
          "type": "address"
        },
        {
          "name": "_to",
          "type": "address"
        },
        {
          "name": "_amount",
          "type": "uint256"
        }
      ],
      "name": "transferFrom",
      "outputs": [
        {
          "name": "",
          "type": "bool"
        }
      ],
      "payable": false,
      "stateMutability": "nonpayable",
      "type": "function"
    },
    {
      "constant": false,
      "inputs": [
        {
          "name": "_spender",
          "type": "address"
        },
        {
          "name": "_amount",
          "type": "uint256"
        }
      ],
      "name": "approve",
      "outputs": [
        {
          "name": "",
          "type": "bool"
        }
      ],
      "payable": false,
      "stateMutability": "nonpayable",
      "type": "function"
    },
    {
      "constant": true,
      "inputs": [
        {
          "name": "_owner",
          "type": "address"
        },
        {
          "name": "_spender",
          "type": "address"
        }
      ],
      "name": "allowance",
      "outputs": [
        {
          "name": "",
          "type": "uint256"
        }
      ],
      "payable": false,
      "stateMutability": "view",
      "type": "function"
    }
  ],
  "bytecode": "0x60606040526040805190810160405280600d81526020017f57726170706564204574686572000000000000000000000000000000000000008152506000908051906020019061004f929190610060565b50341561005b57600080fd5b610105565b828054600181600116156101000203166002900490600052602060002090601f016020900481019282601f106100a157805160ff19168380011785556100cf565b828001600101855582156100cf579182015b828111156100ce5782518255916020019190600101906100b3565b5b5090506100dc91906100e0565b5090565b61010291905b808211156100fe5760008160009055506001016100e6565b5090565b90565b610e85806101146000396000f300606060405260043610610099576000357c0100000000000000000000000000000000000000000000000000000000900463ffffffff16806306fdde031461009e578063095ea7b31461012c57806323b872dd146101865780632e1a7d4d146101ff5780633940e9ee1461022257806370a082311461024b578063a2ea2aaf14610298578063a9059cbb146102a2578063dd62ed3e146102fc575b600080fd5b34156100a957600080fd5b6100b1610368565b6040518080602001828103825283818151815260200191508051906020019080838360005b838110156100f15780820151818401526020810190506100d6565b50505050905090810190601f16801561011e5780820380516001836020036101000a031916815260200191505b509250505060405180910390f35b341561013757600080fd5b61016c600480803573ffffffffffffffffffffffffffffffffffffffff16906020019091908035906020019091905050610406565b604051808215151515815260200191505060405180910390f35b341561019157600080fd5b6101e5600480803573ffffffffffffffffffffffffffffffffffffffff1690602001909190803573ffffffffffffffffffffffffffffffffffffffff169060200190919080359060200190919050506104f8565b604051808215151515815260200191505060405180910390f35b341561020a57600080fd5b6102206004808035906020019091905050610914565b005b341561022d57600080fd5b610235610a07565b6040518082815260200191505060405180910390f35b341561025657600080fd5b610282600480803573ffffffffffffffffffffffffffffffffffffffff16906020019091905050610a0d565b6040518082815260200191505060405180910390f35b6102a0610a56565b005b34156102ad57600080fd5b6102e2600480803573ffffffffffffffffffffffffffffffffffffffff16906020019091908035906020019091905050610b17565b604051808215151515815260200191505060405180910390f35b341561030757600080fd5b610352600480803573ffffffffffffffffffffffffffffffffffffffff1690602001909190803573ffffffffffffffffffffffffffffffffffffffff16906020019091905050610d9b565b6040518082815260200191505060405180910390f35b60008054600181600116156101000203166002900480601f0160208091040260200160405190810160405280929190818152602001828054600181600116156101000203166002900480156103fe5780601f106103d3576101008083540402835291602001916103fe565b820191906000526020600020905b8154815290600101906020018083116103e157829003601f168201915b505050505081565b600081600360003373ffffffffffffffffffffffffffffffffffffffff1673ffffffffffffffffffffffffffffffffffffffff16815260200190815260200160002060008573ffffffffffffffffffffffffffffffffffffffff1673ffffffffffffffffffffffffffffffffffffffff168152602001908152602001600020819055508273ffffffffffffffffffffffffffffffffffffffff163373ffffffffffffffffffffffffffffffffffffffff167f8c5be1e5ebec7d5bd14f71427d1e84f3dd0314c0f7b2291e5b200ac8c7c3b925846040518082815260200191505060405180910390a36001905092915050565b600081600260008673ffffffffffffffffffffffffffffffffffffffff1673ffffffffffffffffffffffffffffffffffffffff16815260200190815260200160002054101580156105c5575081600360008673ffffffffffffffffffffffffffffffffffffffff1673ffffffffffffffffffffffffffffffffffffffff16815260200190815260200160002060003373ffffffffffffffffffffffffffffffffffffffff1673ffffffffffffffffffffffffffffffffffffffff1681526020019081526020016000205410155b80156105d15750600082115b801561065c5750600260008473ffffffffffffffffffffffffffffffffffffffff1673ffffffffffffffffffffffffffffffffffffffff1681526020019081526020016000205482600260008673ffffffffffffffffffffffffffffffffffffffff1673ffffffffffffffffffffffffffffffffffffffff1681526020019081526020016000205401115b15610908576106b382600260008773ffffffffffffffffffffffffffffffffffffffff1673ffffffffffffffffffffffffffffffffffffffff16815260200190815260200160002054610e2290919063ffffffff16565b600260008673ffffffffffffffffffffffffffffffffffffffff1673ffffffffffffffffffffffffffffffffffffffff1681526020019081526020016000208190555061078582600360008773ffffffffffffffffffffffffffffffffffffffff1673ffffffffffffffffffffffffffffffffffffffff16815260200190815260200160002060003373ffffffffffffffffffffffffffffffffffffffff1673ffffffffffffffffffffffffffffffffffffffff16815260200190815260200160002054610e2290919063ffffffff16565b600360008673ffffffffffffffffffffffffffffffffffffffff1673ffffffffffffffffffffffffffffffffffffffff16815260200190815260200160002060003373ffffffffffffffffffffffffffffffffffffffff1673ffffffffffffffffffffffffffffffffffffffff1681526020019081526020016000208190555061085782600260008673ffffffffffffffffffffffffffffffffffffffff1673ffffffffffffffffffffffffffffffffffffffff16815260200190815260200160002054610e3b90919063ffffffff16565b600260008573ffffffffffffffffffffffffffffffffffffffff1673ffffffffffffffffffffffffffffffffffffffff168152602001908152602001600020819055508273ffffffffffffffffffffffffffffffffffffffff168473ffffffffffffffffffffffffffffffffffffffff167fddf252ad1be2c89b69c2b068fc378daa952ba7f163c4a11628f55a4df523b3ef846040518082815260200191505060405180910390a36001905061090d565b600090505b9392505050565b61096681600260003373ffffffffffffffffffffffffffffffffffffffff1673ffffffffffffffffffffffffffffffffffffffff16815260200190815260200160002054610e2290919063ffffffff16565b600260003373ffffffffffffffffffffffffffffffffffffffff1673ffffffffffffffffffffffffffffffffffffffff168152602001908152602001600020819055506109be81600154610e2290919063ffffffff16565b6001819055503373ffffffffffffffffffffffffffffffffffffffff166108fc829081150290604051600060405180830381858888f193505050501515610a0457600080fd5b50565b60015481565b6000600260008373ffffffffffffffffffffffffffffffffffffffff1673ffffffffffffffffffffffffffffffffffffffff168152602001908152602001600020549050919050565b600034111515610a6557600080fd5b610ab734600260003373ffffffffffffffffffffffffffffffffffffffff1673ffffffffffffffffffffffffffffffffffffffff16815260200190815260200160002054610e3b90919063ffffffff16565b600260003373ffffffffffffffffffffffffffffffffffffffff1673ffffffffffffffffffffffffffffffffffffffff16815260200190815260200160002081905550610b0f34600154610e3b90919063ffffffff16565b600181905550565b600081600260003373ffffffffffffffffffffffffffffffffffffffff1673ffffffffffffffffffffffffffffffffffffffff1681526020019081526020016000205410158015610b685750600082115b8015610bf35750600260008473ffffffffffffffffffffffffffffffffffffffff1673ffffffffffffffffffffffffffffffffffffffff1681526020019081526020016000205482600260008673ffffffffffffffffffffffffffffffffffffffff1673ffffffffffffffffffffffffffffffffffffffff1681526020019081526020016000205401115b15610d9057610c4a82600260003373ffffffffffffffffffffffffffffffffffffffff1673ffffffffffffffffffffffffffffffffffffffff16815260200190815260200160002054610e2290919063ffffffff16565b600260003373ffffffffffffffffffffffffffffffffffffffff1673ffffffffffffffffffffffffffffffffffffffff16815260200190815260200160002081905550610cdf82600260008673ffffffffffffffffffffffffffffffffffffffff1673ffffffffffffffffffffffffffffffffffffffff16815260200190815260200160002054610e3b90919063ffffffff16565b600260008573ffffffffffffffffffffffffffffffffffffffff1673ffffffffffffffffffffffffffffffffffffffff168152602001908152602001600020819055508273ffffffffffffffffffffffffffffffffffffffff163373ffffffffffffffffffffffffffffffffffffffff167fddf252ad1be2c89b69c2b068fc378daa952ba7f163c4a11628f55a4df523b3ef846040518082815260200191505060405180910390a360019050610d95565b600090505b92915050565b6000600360008473ffffffffffffffffffffffffffffffffffffffff1673ffffffffffffffffffffffffffffffffffffffff16815260200190815260200160002060008373ffffffffffffffffffffffffffffffffffffffff1673ffffffffffffffffffffffffffffffffffffffff16815260200190815260200160002054905092915050565b6000828211151515610e3057fe5b818303905092915050565b6000808284019050838110151515610e4f57fe5b80915050929150505600a165627a7a7230582069a1ec61a7fbae14535a18603855040aad72c5d5784462841eea3ceb5c9ef97d0029",
  "source": "pragma solidity ^0.4.17;\r\n\r\nimport \"./libraries/SafeMath.sol\";\r\n\r\n\r\n//This is the basic wrapped Ether contract. \r\n//All money deposited is transformed into ERC20 tokens at the rate of 1 wei = 1 token\r\ncontract Wrapped_Ether {\r\n\r\n  using SafeMath for uint256;\r\n\r\n  /*Variables*/\r\n\r\n  //ERC20 fields\r\n  string public name = \"Wrapped Ether\";\r\n  uint public total_supply;\r\n\r\n\r\n  //ERC20 fields\r\n  mapping(address => uint) balances;\r\n  mapping(address => mapping (address => uint)) allowed;\r\n\r\n  /*Events*/\r\n\r\n  event Transfer(address indexed _from, address indexed _to, uint _value);\r\n  event Approval(address indexed _owner, address indexed _spender, uint _value);\r\n  event StateChanged(bool _success, string _message);\r\n\r\n  /*Functions*/\r\n\r\n  //This function creates tokens equal in value to the amount sent to the contract\r\n  function CreateToken() public payable {\r\n    require(msg.value > 0);\r\n    balances[msg.sender] = balances[msg.sender].add(msg.value);\r\n    total_supply = total_supply.add(msg.value);\r\n  }\r\n\r\n  /*\r\n  * This function 'unwraps' an _amount of Ether in the sender's balance by transferring Ether to them\r\n  *\r\n  * @param \"_amount\": The amount of the token to unwrap\r\n  */\r\n  function withdraw(uint _value) public {\r\n    balances[msg.sender] = balances[msg.sender].sub(_value);\r\n    total_supply = total_supply.sub(_value);\r\n    msg.sender.transfer(_value);\r\n  }\r\n\r\n  //Returns the balance associated with the passed in _owner\r\n  function balanceOf(address _owner) public constant returns (uint bal) { return balances[_owner]; }\r\n\r\n  /*\r\n  * Allows for a transfer of tokens to _to\r\n  *\r\n  * @param \"_to\": The address to send tokens to\r\n  * @param \"_amount\": The amount of tokens to send\r\n  */\r\n  function transfer(address _to, uint _amount) public returns (bool) {\r\n    if (balances[msg.sender] >= _amount\r\n    && _amount > 0\r\n    && balances[_to] + _amount > balances[_to]) {\r\n      balances[msg.sender] = balances[msg.sender].sub(_amount);\r\n      balances[_to] = balances[_to].add(_amount);\r\n      emit Transfer(msg.sender, _to, _amount);\r\n      return true;\r\n    } else {\r\n      return false;\r\n    }\r\n  }\r\n\r\n  /*\r\n  * Allows an address with sufficient spending allowance to send tokens on the behalf of _from\r\n  *\r\n  * @param \"_from\": The address to send tokens from\r\n  * @param \"_to\": The address to send tokens to\r\n  * @param \"_amount\": The amount of tokens to send\r\n  */\r\n  function transferFrom(address _from, address _to, uint _amount) public returns (bool) {\r\n    if (balances[_from] >= _amount\r\n    && allowed[_from][msg.sender] >= _amount\r\n    && _amount > 0\r\n    && balances[_to] + _amount > balances[_to]) {\r\n      balances[_from] = balances[_from].sub(_amount);\r\n      allowed[_from][msg.sender] = allowed[_from][msg.sender].sub(_amount);\r\n      balances[_to] = balances[_to].add(_amount);\r\n      emit Transfer(_from, _to, _amount);\r\n      return true;\r\n    } else {\r\n      return false;\r\n    }\r\n  }\r\n\r\n  //Approves a _spender an _amount of tokens to use\r\n  function approve(address _spender, uint _amount) public returns (bool) {\r\n    allowed[msg.sender][_spender] = _amount;\r\n    emit Approval(msg.sender, _spender, _amount);\r\n    return true;\r\n  }\r\n\r\n  //Returns the remaining allowance of tokens granted to the _spender from the _owner\r\n  function allowance(address _owner, address _spender) public view returns (uint) { return allowed[_owner][_spender]; }\r\n}\r\n",
  "sourcePath": "C:\\company\\code\\drct_standard\\contracts\\Wrapped_Ether.sol",
  "compiler": {
    "name": "solc",
    "version": "0.4.21+commit.dfe3193c.Emscripten.clang"
  },
  "schemaVersion": "2.0.0",
  "updatedAt": "2018-04-23T18:01:45.556Z"
}